{
  "address": "0xc7709b37C63E116Cc973842aE902462580d76104",
  "abi": [
    {
      "inputs": [
        {
          "components": [
            {
              "internalType": "contract ISwapRouter",
              "name": "uniswap",
              "type": "address"
            },
            {
              "internalType": "contract IERC20",
              "name": "weth",
              "type": "address"
            },
            {
              "internalType": "uint256",
              "name": "minSwapAmount",
              "type": "uint256"
            },
            {
              "internalType": "contract IERC20[]",
              "name": "tokens",
              "type": "address[]"
            },
            {
              "internalType": "contract IChainlinkOracle[]",
              "name": "priceFeeds",
              "type": "address[]"
            },
            {
              "internalType": "uint24[]",
              "name": "uniswapPoolFees",
              "type": "uint24[]"
            },
            {
              "internalType": "string[]",
              "name": "permitMethodSignatures",
              "type": "string[]"
            },
            {
              "internalType": "uint8[]",
              "name": "slippages",
              "type": "uint8[]"
            },
            {
              "internalType": "bool[]",
              "name": "reverseQuotes",
              "type": "bool[]"
            }
          ],
          "internalType": "struct PermitERC20UniswapV3Paymaster.UniswapConfig",
          "name": "uniswapConfig",
          "type": "tuple"
        },
        {
          "components": [
            {
              "internalType": "uint256",
              "name": "gasUsedByPost",
              "type": "uint256"
            },
            {
              "internalType": "uint256",
              "name": "minHubBalance",
              "type": "uint256"
            },
            {
              "internalType": "uint256",
              "name": "targetHubBalance",
              "type": "uint256"
            },
            {
              "internalType": "uint256",
              "name": "minWithdrawalAmount",
              "type": "uint256"
            },
            {
              "internalType": "uint256",
              "name": "paymasterFee",
              "type": "uint256"
            }
          ],
          "internalType": "struct PermitERC20UniswapV3Paymaster.GasAndEthConfig",
          "name": "gasAndEthConfig",
          "type": "tuple"
        },
        {
          "internalType": "address",
          "name": "_trustedForwarder",
          "type": "address"
        },
        {
          "internalType": "contract IRelayHub",
          "name": "_relayHub",
          "type": "address"
        }
      ],
      "stateMutability": "nonpayable",
      "type": "constructor"
    },
    {
      "anonymous": false,
      "inputs": [
        {
          "indexed": true,
          "internalType": "address",
          "name": "previousOwner",
          "type": "address"
        },
        {
          "indexed": true,
          "internalType": "address",
          "name": "newOwner",
          "type": "address"
        }
      ],
      "name": "OwnershipTransferred",
      "type": "event"
    },
    {
      "anonymous": false,
      "inputs": [
        {
          "indexed": true,
          "internalType": "address",
          "name": "sender",
          "type": "address"
        },
        {
          "indexed": false,
          "internalType": "uint256",
          "name": "eth",
          "type": "uint256"
        }
      ],
      "name": "Received",
      "type": "event"
    },
    {
      "anonymous": false,
      "inputs": [
        {
          "indexed": false,
          "internalType": "uint256",
          "name": "gasUseWithoutPost",
          "type": "uint256"
        },
        {
          "indexed": false,
          "internalType": "uint256",
          "name": "gasJustPost",
          "type": "uint256"
        },
        {
          "indexed": false,
          "internalType": "uint256",
          "name": "tokenActualCharge",
          "type": "uint256"
        },
        {
          "indexed": false,
          "internalType": "uint256",
          "name": "ethActualCharge",
          "type": "uint256"
        }
      ],
      "name": "TokensCharged",
      "type": "event"
    },
    {
      "inputs": [],
      "name": "CALLDATA_SIZE_LIMIT",
      "outputs": [
        {
          "internalType": "uint256",
          "name": "",
          "type": "uint256"
        }
      ],
      "stateMutability": "view",
      "type": "function"
    },
    {
      "inputs": [],
      "name": "FORWARDER_HUB_OVERHEAD",
      "outputs": [
        {
          "internalType": "uint256",
          "name": "",
          "type": "uint256"
        }
      ],
      "stateMutability": "view",
      "type": "function"
    },
    {
      "inputs": [],
      "name": "PAYMASTER_ACCEPTANCE_BUDGET",
      "outputs": [
        {
          "internalType": "uint256",
          "name": "",
          "type": "uint256"
        }
      ],
      "stateMutability": "view",
      "type": "function"
    },
    {
      "inputs": [],
      "name": "POST_RELAYED_CALL_GAS_LIMIT",
      "outputs": [
        {
          "internalType": "uint256",
          "name": "",
          "type": "uint256"
        }
      ],
      "stateMutability": "view",
      "type": "function"
    },
    {
      "inputs": [],
      "name": "PRE_RELAYED_CALL_GAS_LIMIT",
      "outputs": [
        {
          "internalType": "uint256",
          "name": "",
          "type": "uint256"
        }
      ],
      "stateMutability": "view",
      "type": "function"
    },
    {
      "inputs": [
        {
          "internalType": "uint256",
          "name": "charge",
          "type": "uint256"
        }
      ],
      "name": "addPaymasterFee",
      "outputs": [
        {
          "internalType": "uint256",
          "name": "",
          "type": "uint256"
        }
      ],
      "stateMutability": "view",
      "type": "function"
    },
    {
      "inputs": [
        {
          "internalType": "uint256",
          "name": "amount",
          "type": "uint256"
        },
        {
          "internalType": "uint8",
          "name": "slippage",
          "type": "uint8"
        }
      ],
      "name": "addSlippage",
      "outputs": [
        {
          "internalType": "uint256",
          "name": "",
          "type": "uint256"
        }
      ],
      "stateMutability": "pure",
      "type": "function"
    },
    {
      "inputs": [],
      "name": "gasUsedByPost",
      "outputs": [
        {
          "internalType": "uint256",
          "name": "",
          "type": "uint256"
        }
      ],
      "stateMutability": "view",
      "type": "function"
    },
    {
      "inputs": [],
      "name": "getGasAndDataLimits",
      "outputs": [
        {
          "components": [
            {
              "internalType": "uint256",
              "name": "acceptanceBudget",
              "type": "uint256"
            },
            {
              "internalType": "uint256",
              "name": "preRelayedCallGasLimit",
              "type": "uint256"
            },
            {
              "internalType": "uint256",
              "name": "postRelayedCallGasLimit",
              "type": "uint256"
            },
            {
              "internalType": "uint256",
              "name": "calldataSizeLimit",
              "type": "uint256"
            }
          ],
          "internalType": "struct IPaymaster.GasAndDataLimits",
          "name": "limits",
          "type": "tuple"
        }
      ],
      "stateMutability": "pure",
      "type": "function"
    },
    {
      "inputs": [],
      "name": "getRelayHub",
      "outputs": [
        {
          "internalType": "address",
          "name": "",
          "type": "address"
        }
      ],
      "stateMutability": "view",
      "type": "function"
    },
    {
      "inputs": [
        {
          "internalType": "contract IERC20",
          "name": "token",
          "type": "address"
        }
      ],
      "name": "getTokenSwapData",
      "outputs": [
        {
          "components": [
            {
              "internalType": "contract IChainlinkOracle",
              "name": "priceFeed",
              "type": "address"
            },
            {
              "internalType": "bool",
              "name": "reverseQuote",
              "type": "bool"
            },
            {
              "internalType": "uint24",
              "name": "uniswapPoolFee",
              "type": "uint24"
            },
            {
              "internalType": "uint8",
              "name": "slippage",
              "type": "uint8"
            },
            {
              "internalType": "bytes4",
              "name": "permitMethodSelector",
              "type": "bytes4"
            },
            {
              "internalType": "uint256",
              "name": "priceDivisor",
              "type": "uint256"
            },
            {
              "internalType": "uint256",
              "name": "validFromBlockNumber",
              "type": "uint256"
            }
          ],
          "internalType": "struct PermitERC20UniswapV3Paymaster.TokenSwapData",
          "name": "",
          "type": "tuple"
        }
      ],
      "stateMutability": "view",
      "type": "function"
    },
    {
      "inputs": [],
      "name": "getTokens",
      "outputs": [
        {
          "internalType": "contract IERC20[]",
          "name": "",
          "type": "address[]"
        }
      ],
      "stateMutability": "view",
      "type": "function"
    },
    {
      "inputs": [],
      "name": "getTrustedForwarder",
      "outputs": [
        {
          "internalType": "address",
          "name": "forwarder",
          "type": "address"
        }
      ],
      "stateMutability": "view",
      "type": "function"
    },
    {
      "inputs": [
        {
          "internalType": "contract IERC20",
          "name": "token",
          "type": "address"
        }
      ],
      "name": "isTokenSupported",
      "outputs": [
        {
          "internalType": "bool",
          "name": "",
          "type": "bool"
        }
      ],
      "stateMutability": "view",
      "type": "function"
    },
    {
      "inputs": [
        {
          "internalType": "address",
          "name": "forwarder",
          "type": "address"
        }
      ],
      "name": "isTrustedForwarder",
      "outputs": [
        {
          "internalType": "bool",
          "name": "",
          "type": "bool"
        }
      ],
      "stateMutability": "view",
      "type": "function"
    },
    {
      "inputs": [],
      "name": "minHubBalance",
      "outputs": [
        {
          "internalType": "uint256",
          "name": "",
          "type": "uint256"
        }
      ],
      "stateMutability": "view",
      "type": "function"
    },
    {
      "inputs": [],
      "name": "minSwapAmount",
      "outputs": [
        {
          "internalType": "uint256",
          "name": "",
          "type": "uint256"
        }
      ],
      "stateMutability": "view",
      "type": "function"
    },
    {
      "inputs": [],
      "name": "minWithdrawalAmount",
      "outputs": [
        {
          "internalType": "uint256",
          "name": "",
          "type": "uint256"
        }
      ],
      "stateMutability": "view",
      "type": "function"
    },
    {
      "inputs": [],
      "name": "owner",
      "outputs": [
        {
          "internalType": "address",
          "name": "",
          "type": "address"
        }
      ],
      "stateMutability": "view",
      "type": "function"
    },
    {
      "inputs": [],
      "name": "paymasterFee",
      "outputs": [
        {
          "internalType": "uint256",
          "name": "",
          "type": "uint256"
        }
      ],
      "stateMutability": "view",
      "type": "function"
    },
    {
      "inputs": [
        {
          "internalType": "bytes",
          "name": "context",
          "type": "bytes"
        },
        {
          "internalType": "bool",
          "name": "success",
          "type": "bool"
        },
        {
          "internalType": "uint256",
          "name": "gasUseWithoutPost",
          "type": "uint256"
        },
        {
          "components": [
            {
              "internalType": "uint256",
              "name": "maxFeePerGas",
              "type": "uint256"
            },
            {
              "internalType": "uint256",
              "name": "maxPriorityFeePerGas",
              "type": "uint256"
            },
            {
              "internalType": "uint256",
              "name": "transactionCalldataGasUsed",
              "type": "uint256"
            },
            {
              "internalType": "address",
              "name": "relayWorker",
              "type": "address"
            },
            {
              "internalType": "address",
              "name": "paymaster",
              "type": "address"
            },
            {
              "internalType": "address",
              "name": "forwarder",
              "type": "address"
            },
            {
              "internalType": "bytes",
              "name": "paymasterData",
              "type": "bytes"
            },
            {
              "internalType": "uint256",
              "name": "clientId",
              "type": "uint256"
            }
          ],
          "internalType": "struct GsnTypes.RelayData",
          "name": "relayData",
          "type": "tuple"
        }
      ],
      "name": "postRelayedCall",
      "outputs": [],
      "stateMutability": "nonpayable",
      "type": "function"
    },
    {
      "inputs": [
        {
          "components": [
            {
              "components": [
                {
                  "internalType": "address",
                  "name": "from",
                  "type": "address"
                },
                {
                  "internalType": "address",
                  "name": "to",
                  "type": "address"
                },
                {
                  "internalType": "uint256",
                  "name": "value",
                  "type": "uint256"
                },
                {
                  "internalType": "uint256",
                  "name": "gas",
                  "type": "uint256"
                },
                {
                  "internalType": "uint256",
                  "name": "nonce",
                  "type": "uint256"
                },
                {
                  "internalType": "bytes",
                  "name": "data",
                  "type": "bytes"
                },
                {
                  "internalType": "uint256",
                  "name": "validUntilTime",
                  "type": "uint256"
                }
              ],
              "internalType": "struct IForwarder.ForwardRequest",
              "name": "request",
              "type": "tuple"
            },
            {
              "components": [
                {
                  "internalType": "uint256",
                  "name": "maxFeePerGas",
                  "type": "uint256"
                },
                {
                  "internalType": "uint256",
                  "name": "maxPriorityFeePerGas",
                  "type": "uint256"
                },
                {
                  "internalType": "uint256",
                  "name": "transactionCalldataGasUsed",
                  "type": "uint256"
                },
                {
                  "internalType": "address",
                  "name": "relayWorker",
                  "type": "address"
                },
                {
                  "internalType": "address",
                  "name": "paymaster",
                  "type": "address"
                },
                {
                  "internalType": "address",
                  "name": "forwarder",
                  "type": "address"
                },
                {
                  "internalType": "bytes",
                  "name": "paymasterData",
                  "type": "bytes"
                },
                {
                  "internalType": "uint256",
                  "name": "clientId",
                  "type": "uint256"
                }
              ],
              "internalType": "struct GsnTypes.RelayData",
              "name": "relayData",
              "type": "tuple"
            }
          ],
          "internalType": "struct GsnTypes.RelayRequest",
          "name": "relayRequest",
          "type": "tuple"
        },
        {
          "internalType": "bytes",
          "name": "signature",
          "type": "bytes"
        },
        {
          "internalType": "bytes",
          "name": "approvalData",
          "type": "bytes"
        },
        {
          "internalType": "uint256",
          "name": "maxPossibleGas",
          "type": "uint256"
        }
      ],
      "name": "preRelayedCall",
      "outputs": [
        {
          "internalType": "bytes",
          "name": "",
          "type": "bytes"
        },
        {
          "internalType": "bool",
          "name": "",
          "type": "bool"
        }
      ],
      "stateMutability": "nonpayable",
      "type": "function"
    },
    {
      "inputs": [
        {
          "internalType": "uint256",
          "name": "amount",
          "type": "uint256"
        }
      ],
      "name": "refillHubDeposit",
      "outputs": [],
      "stateMutability": "payable",
      "type": "function"
    },
    {
      "inputs": [],
      "name": "renounceOwnership",
      "outputs": [],
      "stateMutability": "nonpayable",
      "type": "function"
    },
    {
      "inputs": [
        {
          "components": [
            {
              "internalType": "uint256",
              "name": "gasUsedByPost",
              "type": "uint256"
            },
            {
              "internalType": "uint256",
              "name": "minHubBalance",
              "type": "uint256"
            },
            {
              "internalType": "uint256",
              "name": "targetHubBalance",
              "type": "uint256"
            },
            {
              "internalType": "uint256",
              "name": "minWithdrawalAmount",
              "type": "uint256"
            },
            {
              "internalType": "uint256",
              "name": "paymasterFee",
              "type": "uint256"
            }
          ],
          "internalType": "struct PermitERC20UniswapV3Paymaster.GasAndEthConfig",
          "name": "config",
          "type": "tuple"
        }
      ],
      "name": "setGasAndEthConfig",
      "outputs": [],
      "stateMutability": "nonpayable",
      "type": "function"
    },
    {
      "inputs": [
        {
          "internalType": "contract IRelayHub",
          "name": "hub",
          "type": "address"
        }
      ],
      "name": "setRelayHub",
      "outputs": [],
      "stateMutability": "nonpayable",
      "type": "function"
    },
    {
      "inputs": [
        {
          "internalType": "address",
          "name": "_forwarder",
          "type": "address"
        }
      ],
      "name": "setTrustedForwarder",
      "outputs": [],
      "stateMutability": "nonpayable",
      "type": "function"
    },
    {
      "inputs": [
        {
          "components": [
            {
              "internalType": "contract ISwapRouter",
              "name": "uniswap",
              "type": "address"
            },
            {
              "internalType": "contract IERC20",
              "name": "weth",
              "type": "address"
            },
            {
              "internalType": "uint256",
              "name": "minSwapAmount",
              "type": "uint256"
            },
            {
              "internalType": "contract IERC20[]",
              "name": "tokens",
              "type": "address[]"
            },
            {
              "internalType": "contract IChainlinkOracle[]",
              "name": "priceFeeds",
              "type": "address[]"
            },
            {
              "internalType": "uint24[]",
              "name": "uniswapPoolFees",
              "type": "uint24[]"
            },
            {
              "internalType": "string[]",
              "name": "permitMethodSignatures",
              "type": "string[]"
            },
            {
              "internalType": "uint8[]",
              "name": "slippages",
              "type": "uint8[]"
            },
            {
              "internalType": "bool[]",
              "name": "reverseQuotes",
              "type": "bool[]"
            }
          ],
          "internalType": "struct PermitERC20UniswapV3Paymaster.UniswapConfig",
          "name": "config",
          "type": "tuple"
        }
      ],
      "name": "setUniswapConfig",
      "outputs": [],
      "stateMutability": "nonpayable",
      "type": "function"
    },
    {
      "inputs": [
        {
          "internalType": "bytes4",
          "name": "interfaceId",
          "type": "bytes4"
        }
      ],
      "name": "supportsInterface",
      "outputs": [
        {
          "internalType": "bool",
          "name": "",
          "type": "bool"
        }
      ],
      "stateMutability": "view",
      "type": "function"
    },
    {
      "inputs": [],
      "name": "targetHubBalance",
      "outputs": [
        {
          "internalType": "uint256",
          "name": "",
          "type": "uint256"
        }
      ],
      "stateMutability": "view",
      "type": "function"
    },
    {
      "inputs": [
        {
          "internalType": "uint256",
          "name": "quote",
          "type": "uint256"
        },
        {
          "internalType": "uint256",
          "name": "divisor",
          "type": "uint256"
        }
      ],
      "name": "toActualQuote",
      "outputs": [
        {
          "internalType": "uint256",
          "name": "",
          "type": "uint256"
        }
      ],
      "stateMutability": "pure",
      "type": "function"
    },
    {
      "inputs": [
        {
          "internalType": "uint256",
          "name": "amount",
          "type": "uint256"
        },
        {
          "internalType": "uint256",
          "name": "quote",
          "type": "uint256"
        },
        {
          "internalType": "bool",
          "name": "reverse",
          "type": "bool"
        }
      ],
      "name": "tokenToWei",
      "outputs": [
        {
          "internalType": "uint256",
          "name": "",
          "type": "uint256"
        }
      ],
      "stateMutability": "pure",
      "type": "function"
    },
    {
      "inputs": [
        {
          "internalType": "uint256",
          "name": "",
          "type": "uint256"
        }
      ],
      "name": "tokens",
      "outputs": [
        {
          "internalType": "contract IERC20",
          "name": "",
          "type": "address"
        }
      ],
      "stateMutability": "view",
      "type": "function"
    },
    {
      "inputs": [],
      "name": "tokensBlockNumber",
      "outputs": [
        {
          "internalType": "uint256",
          "name": "",
          "type": "uint256"
        }
      ],
      "stateMutability": "view",
      "type": "function"
    },
    {
      "inputs": [
        {
          "internalType": "contract IERC20",
          "name": "",
          "type": "address"
        }
      ],
      "name": "tokensSwapData",
      "outputs": [
        {
          "internalType": "contract IChainlinkOracle",
          "name": "priceFeed",
          "type": "address"
        },
        {
          "internalType": "bool",
          "name": "reverseQuote",
          "type": "bool"
        },
        {
          "internalType": "uint24",
          "name": "uniswapPoolFee",
          "type": "uint24"
        },
        {
          "internalType": "uint8",
          "name": "slippage",
          "type": "uint8"
        },
        {
          "internalType": "bytes4",
          "name": "permitMethodSelector",
          "type": "bytes4"
        },
        {
          "internalType": "uint256",
          "name": "priceDivisor",
          "type": "uint256"
        },
        {
          "internalType": "uint256",
          "name": "validFromBlockNumber",
          "type": "uint256"
        }
      ],
      "stateMutability": "view",
      "type": "function"
    },
    {
      "inputs": [
        {
          "internalType": "address",
          "name": "newOwner",
          "type": "address"
        }
      ],
      "name": "transferOwnership",
      "outputs": [],
      "stateMutability": "nonpayable",
      "type": "function"
    },
    {
      "inputs": [
        {
          "internalType": "contract IERC20",
          "name": "token",
          "type": "address"
        },
        {
          "internalType": "address",
          "name": "target",
          "type": "address"
        },
        {
          "internalType": "uint256",
          "name": "value",
          "type": "uint256"
        }
      ],
      "name": "transferToken",
      "outputs": [],
      "stateMutability": "nonpayable",
      "type": "function"
    },
    {
      "inputs": [],
      "name": "uniswap",
      "outputs": [
        {
          "internalType": "contract ISwapRouter",
          "name": "",
          "type": "address"
        }
      ],
      "stateMutability": "view",
      "type": "function"
    },
    {
      "inputs": [],
      "name": "versionPaymaster",
      "outputs": [
        {
          "internalType": "string",
          "name": "",
          "type": "string"
        }
      ],
      "stateMutability": "view",
      "type": "function"
    },
    {
      "inputs": [
        {
          "internalType": "uint256",
          "name": "amount",
          "type": "uint256"
        },
        {
          "internalType": "uint256",
          "name": "quote",
          "type": "uint256"
        },
        {
          "internalType": "bool",
          "name": "reverse",
          "type": "bool"
        }
      ],
      "name": "weiToToken",
      "outputs": [
        {
          "internalType": "uint256",
          "name": "",
          "type": "uint256"
        }
      ],
      "stateMutability": "pure",
      "type": "function"
    },
    {
      "inputs": [],
      "name": "weth",
      "outputs": [
        {
          "internalType": "contract IERC20",
          "name": "",
          "type": "address"
        }
      ],
      "stateMutability": "view",
      "type": "function"
    },
    {
      "inputs": [
        {
          "internalType": "uint256",
          "name": "amount",
          "type": "uint256"
        },
        {
          "internalType": "address payable",
          "name": "target",
          "type": "address"
        }
      ],
      "name": "withdrawRelayHubDepositTo",
      "outputs": [],
      "stateMutability": "nonpayable",
      "type": "function"
    },
    {
      "inputs": [
        {
          "internalType": "contract IERC20[]",
          "name": "_tokens",
          "type": "address[]"
        },
        {
          "internalType": "address",
          "name": "target",
          "type": "address"
        },
        {
          "internalType": "uint256[]",
          "name": "amounts",
          "type": "uint256[]"
        }
      ],
      "name": "withdrawTokens",
      "outputs": [],
      "stateMutability": "nonpayable",
      "type": "function"
    },
    {
      "stateMutability": "payable",
      "type": "receive"
    }
  ],
  "transactionHash": "0xf5d1bbd4429a8d6dfb03e4156a818f8cad6104d47935f6c894b87d276a90f72b",
  "args": [
    {
      "uniswap": "0xE592427A0AEce92De3Edee1F18E0157C05861564",
      "weth": "0xB4FBF271143F4FBf7B91A5ded31805e42b2208d6",
      "minSwapAmount": 0,
      "tokens": [
        "0x11fe4b6ae13d2a6055c8d9cf65c55bac32b5d844"
      ],
      "priceFeeds": [
        "0xD4a33860578De61DBAbDc8BFdb98FD742fA7028e"
      ],
      "uniswapPoolFees": [
        3000
      ],
      "permitMethodSignatures": [
        "permit(address,address,uint256,uint256,bool,uint8,bytes32,bytes32)"
      ],
      "slippages": [
        10
      ],
      "reverseQuotes": [
        true
      ]
    },
    {
      "gasUsedByPost": 230000,
      "minHubBalance": "100000000000000000",
      "targetHubBalance": "1000000000000000000",
      "minWithdrawalAmount": "2000000000000000000",
      "paymasterFee": 5
    },
    "0xAa3E82b4c4093b4bA13Cb5714382C99ADBf750cA",
    "0x7DDa9Bf2C0602a96c06FA5996F715C7Acfb8E7b0"
  ],
  "numDeployments": 1,
  "solcInputHash": "7787bbb1814de08c189c076febcd7380",
  "bytecode": "0x60806040523480156200001157600080fd5b5060405162004a3c38038062004a3c833981016040819052620000349162000d33565b62000048620000426200007e565b6200009a565b6200005384620000ea565b6200005e8362000161565b620000698162000191565b620000748262000239565b505050506200111d565b6000620000956200026360201b620010251760201c565b905090565b600080546001600160a01b038381166001600160a01b0319831681178455604051919092169283917f8be0079c531659141344cd1fd0a4f28419497f9722a3daafe3b4186f6b6457e09190a35050565b620000f462000299565b6020810151600780546001600160a01b039283166001600160a01b0319918216179091558251600580549190931691161790556040810151600d556060810151608082015160c083015160a084015161010085015160e08601516200015e95949392919062000319565b50565b6200016b62000299565b6060810151600c5580516009556040810151600b556020810151600a5560800151600e55565b6200019b62000299565b620001c563e9fb30f760e01b826001600160a01b03166200078760201b620010591790919060201c565b620002175760405162461bcd60e51b815260206004820152601f60248201527f746172676574206973206e6f7420612076616c6964204952656c61794875620060448201526064015b60405180910390fd5b600180546001600160a01b0319166001600160a01b0392909216919091179055565b6200024362000299565b600380546001600160a01b0383166001600160a01b031990911617905550565b6000601436108015906200028157506003546001600160a01b031633145b1562000294575060131936013560601c90565b503390565b620002a36200007e565b6001600160a01b0316620002bf6000546001600160a01b031690565b6001600160a01b031614620003175760405162461bcd60e51b815260206004820181905260248201527f4f776e61626c653a2063616c6c6572206973206e6f7420746865206f776e657260448201526064016200020e565b565b85516200032e90600690602089019062000874565b5043600881905560005b6006548110156200077d576040805160e081018252600080825260208201819052918101829052606081018290526080810182905260a0810182905260c0810191909152600060068381548110620003945762000394620010db565b60009182526020909120015460055460405163095ea7b360e01b81526001600160a01b039182166004820152600019602482015291169150819063095ea7b390604401602060405180830381600087803b158015620003f257600080fd5b505af115801562000407573d6000803e3d6000fd5b505050506040513d601f19601f820116820180604052508101906200042d919062000d15565b50806001600160a01b031663313ce5676040518163ffffffff1660e01b815260040160206040518083038186803b1580156200046857600080fd5b505afa1580156200047d573d6000803e3d6000fd5b505050506040513d601f19601f82011682018060405250810190620004a3919062000ed7565b898481518110620004b857620004b8620010db565b60200260200101516001600160a01b031663313ce5676040518163ffffffff1660e01b815260040160206040518083038186803b158015620004f957600080fd5b505afa1580156200050e573d6000803e3d6000fd5b505050506040513d601f19601f8201168201806040525081019062000534919062000ed7565b62000540919062000f7a565b620005509060ff16600a62000feb565b60a083015288518990849081106200056c576200056c620010db565b60209081029190910101516001600160a01b031682528551869084908110620005995762000599620010db565b6020908102919091018101511515908301528751889084908110620005c257620005c2620010db565b60209081029190910181015180519101206001600160e01b03191660808301528651879084908110620005f957620005f9620010db565b602090810291909101015162ffffff16604083015284516103e890869085908110620006295762000629620010db565b602002602001015160ff161115620006845760405162461bcd60e51b815260206004820152601360248201527f736c6970706167652061626f766520313030250000000000000000000000000060448201526064016200020e565b848381518110620006995762000699620010db565b60209081029190910181015160ff9081166060850190815260c085018781526001600160a01b03948516600090815260048552604090819020875181549689015192890151945160808a015160e01c600160c81b0263ffffffff60c81b1991909716600160c01b0260ff60c01b1962ffffff909716600160a81b029690961663ffffffff60a81b19941515600160a01b026001600160a81b03199099169290991691909117969096179190911695909517919091179290921617825560a09092015160018201559051600290910155806200077481620010a7565b91505062000338565b5050505050505050565b60006200079483620007b1565b8015620007a85750620007a88383620007e9565b90505b92915050565b6000620007c6826301ffc9a760e01b620007e9565b8015620007ab5750620007e2826001600160e01b0319620007e9565b1592915050565b604080516001600160e01b03198316602480830191909152825180830390910181526044909101909152602080820180516001600160e01b03166301ffc9a760e01b178152825160009392849283928392918391908a617530fa92503d915060005190508280156200085c575060208210155b8015620008695750600081115b979650505050505050565b828054828255906000526020600020908101928215620008cc579160200282015b82811115620008cc57825182546001600160a01b0319166001600160a01b0390911617825560209092019160019091019062000895565b50620008da929150620008de565b5090565b5b80821115620008da5760008155600101620008df565b8051620009028162001107565b919050565b600082601f8301126200091957600080fd5b81516020620009326200092c8362000f54565b62000f21565b80838252828201915082860187848660051b89010111156200095357600080fd5b60005b858110156200097d576200096a8262000c7f565b8452928401929084019060010162000956565b5090979650505050505050565b600082601f8301126200099c57600080fd5b81516020620009af6200092c8362000f54565b80838252828201915082860187848660051b8901011115620009d057600080fd5b60005b858110156200097d578151620009e98162001107565b84529284019290840190600101620009d3565b600082601f83011262000a0e57600080fd5b8151602062000a216200092c8362000f54565b80838252828201915082860187848660051b890101111562000a4257600080fd5b60005b858110156200097d57815162000a5b8162001107565b8452928401929084019060010162000a45565b6000601f838184011262000a8157600080fd5b8251602062000a946200092c8362000f54565b80838252828201915082870188848660051b8a0101111562000ab557600080fd5b60005b8581101562000b7a5781516001600160401b038082111562000ad957600080fd5b818b0191508b603f83011262000aee57600080fd5b868201518181111562000b055762000b05620010f1565b62000b18818b01601f1916890162000f21565b915080825260408d8183860101111562000b3157600080fd5b60005b8281101562000b51578481018201518482018b0152890162000b34565b8281111562000b635760008a84860101525b505050855250928401929084019060010162000ab8565b509098975050505050505050565b600082601f83011262000b9a57600080fd5b8151602062000bad6200092c8362000f54565b80838252828201915082860187848660051b890101111562000bce57600080fd5b6000805b8681101562000c0157825162ffffff8116811462000bee578283fd5b8552938501939185019160010162000bd2565b509198975050505050505050565b600082601f83011262000c2157600080fd5b8151602062000c346200092c8362000f54565b80838252828201915082860187848660051b890101111562000c5557600080fd5b60005b858110156200097d5762000c6c8262000d03565b8452928401929084019060010162000c58565b805180151581146200090257600080fd5b600060a0828403121562000ca357600080fd5b60405160a081016001600160401b038111828210171562000cc85762000cc8620010f1565b806040525080915082518152602083015160208201526040830151604082015260608301516060820152608083015160808201525092915050565b805160ff811681146200090257600080fd5b60006020828403121562000d2857600080fd5b620007a88262000c7f565b60008060008061010080868803121562000d4c57600080fd5b85516001600160401b038082111562000d6457600080fd5b90870190610120828a03121562000d7a57600080fd5b62000d8462000ef5565b62000d8f83620008f5565b815262000d9f60208401620008f5565b60208201526040830151604082015260608301518281111562000dc157600080fd5b62000dcf8b828601620009fc565b60608301525060808301518281111562000de857600080fd5b62000df68b8286016200098a565b60808301525060a08301518281111562000e0f57600080fd5b62000e1d8b82860162000b88565b60a08301525060c08301518281111562000e3657600080fd5b62000e448b82860162000a6e565b60c08301525060e08301518281111562000e5d57600080fd5b62000e6b8b82860162000c0f565b60e083015250838301518281111562000e8357600080fd5b62000e918b82860162000907565b85830152508097505050505062000eac866020870162000c90565b925062000ebc60c08601620008f5565b915062000ecc60e08601620008f5565b905092959194509250565b60006020828403121562000eea57600080fd5b620007a88262000d03565b60405161012081016001600160401b038111828210171562000f1b5762000f1b620010f1565b60405290565b604051601f8201601f191681016001600160401b038111828210171562000f4c5762000f4c620010f1565b604052919050565b60006001600160401b0382111562000f705762000f70620010f1565b5060051b60200190565b600060ff821660ff84168060ff0382111562000f9a5762000f9a620010c5565b019392505050565b600181815b8085111562000fe357816000190482111562000fc75762000fc7620010c5565b8085161562000fd557918102915b93841c939080029062000fa7565b509250929050565b6000620007a883836000826200100457506001620007ab565b816200101357506000620007ab565b81600181146200102c5760028114620010375762001057565b6001915050620007ab565b60ff8411156200104b576200104b620010c5565b50506001821b620007ab565b5060208310610133831016604e8410600b84101617156200107c575081810a620007ab565b62001088838362000fa2565b80600019048211156200109f576200109f620010c5565b029392505050565b6000600019821415620010be57620010be620010c5565b5060010190565b634e487b7160e01b600052601160045260246000fd5b634e487b7160e01b600052603260045260246000fd5b634e487b7160e01b600052604160045260246000fd5b6001600160a01b03811681146200015e57600080fd5b61390f806200112d6000396000f3fe60806040526004361061025f5760003560e01c80638312f14911610144578063ce1b815f116100b6578063d9fe81f21161007a578063d9fe81f21461094b578063da74222814610961578063df463a6614610981578063f2fde38b14610996578063f5537ede146109b6578063f9c002f7146109d657600080fd5b8063ce1b815f146108ca578063d7607303146108df578063d763465f146108ff578063d88d798d14610915578063d8c5146c1461092b57600080fd5b8063aa6ca80811610108578063aa6ca808146107fd578063ad12e50e1461081f578063b039a88f14610835578063b90b41cf1461087d578063bbdaa3c914610893578063c465611e146108aa57600080fd5b80638312f149146107715780638da5cb5b146107875780638ea43833146107a5578063921276ea146107c55780639fc82fa9146107e757600080fd5b8063572b6c05116101dd578063715018a6116101a1578063715018a61461069f5780637388c920146106b457806375151b63146106d457806376fa01c3146107135780637bb05264146107335780637bdf2ec71461075357600080fd5b8063572b6c05146104ce57806359759060146104fd5780635aeca121146105105780635c5e3db11461066957806360f7f3a71461067f57600080fd5b80632681f7e4116102245780632681f7e4146104125780632d14c4b71461044a578063338246e21461046a5780633fc8cef31461048e5780634f64b2be146104ae57600080fd5b8062be5dd4146102a057806301ffc9a7146102d7578063186af7a9146103075780631d51f5ff146103d057806321605fa0146103f257600080fd5b3661029b5760405134815233907f88a5966d370b9919b20f3e2c13ff65706f196a4e32cc2c12bf57088f885258749060200160405180910390a2005b600080fd5b3480156102ac57600080fd5b506102c06102bb366004612fe2565b6109ed565b6040516102ce9291906133c8565b60405180910390f35b3480156102e357600080fd5b506102f76102f2366004612e0f565b610a32565b60405190151581526020016102ce565b34801561031357600080fd5b5061037b610322366004612d51565b6004602052600090815260409020805460018201546002909201546001600160a01b0382169260ff600160a01b840481169362ffffff600160a81b82041693600160c01b820490921692600160c81b90910460e01b9187565b604080516001600160a01b039098168852951515602088015262ffffff9094169486019490945260ff90911660608501526001600160e01b031916608084015260a083019190915260c082015260e0016102ce565b3480156103dc57600080fd5b506103f06103eb366004613086565b610a84565b005b3480156103fe57600080fd5b506103f061040d366004612f73565b610af7565b34801561041e57600080fd5b50600554610432906001600160a01b031681565b6040516001600160a01b0390911681526020016102ce565b34801561045657600080fd5b506103f06104653660046131f0565b610b25565b34801561047657600080fd5b50610480600d5481565b6040519081526020016102ce565b34801561049a57600080fd5b50600754610432906001600160a01b031681565b3480156104ba57600080fd5b506104326104c93660046131d7565b610b98565b3480156104da57600080fd5b506102f76104e9366004612d51565b6003546001600160a01b0391821691161490565b6103f061050b3660046131d7565b610bc2565b34801561051c57600080fd5b506105fb61052b366004612d51565b6040805160e081018252600080825260208201819052918101829052606081018290526080810182905260a0810182905260c0810191909152506001600160a01b03908116600090815260046020908152604091829020825160e080820185528254958616825260ff600160a01b8704811615159483019490945262ffffff600160a81b87041694820194909452600160c01b850490921660608301526001600160e01b0319600160c81b90940490921b929092166080830152600181015460a08301526002015460c082015290565b6040516102ce919081516001600160a01b0316815260208083015115159082015260408083015162ffffff169082015260608083015160ff16908201526080808301516001600160e01b0319169082015260a0828101519082015260c0918201519181019190915260e00190565b34801561067557600080fd5b5061048061290481565b34801561068b57600080fd5b506103f061069a366004612d6e565b610bd3565b3480156106ab57600080fd5b506103f0610c4c565b3480156106c057600080fd5b506104806106cf366004613220565b610c60565b3480156106e057600080fd5b506102f76106ef366004612d51565b6008546001600160a01b039091166000908152600460205260409020600201541490565b34801561071f57600080fd5b506103f061072e366004612e39565b610c95565b34801561073f57600080fd5b506103f061074e366004612d51565b610cb1565b34801561075f57600080fd5b506001546001600160a01b0316610432565b34801561077d57600080fd5b50610480600c5481565b34801561079357600080fd5b506000546001600160a01b0316610432565b3480156107b157600080fd5b506104806107c0366004613242565b610d46565b3480156107d157600080fd5b506107da610d8d565b6040516102ce91906133ec565b3480156107f357600080fd5b50610480600e5481565b34801561080957600080fd5b50610812610dad565b6040516102ce919061337b565b34801561082b57600080fd5b5061048060095481565b34801561084157600080fd5b5061084a610e0f565b6040516102ce91908151815260208083015190820152604080830151908201526060918201519181019190915260800190565b34801561088957600080fd5b5061048061c35081565b34801561089f57600080fd5b506104806201adb081565b3480156108b657600080fd5b506104806108c5366004613242565b610e6b565b3480156108d657600080fd5b50610432610e99565b3480156108eb57600080fd5b506104806108fa36600461327b565b610eb2565b34801561090b57600080fd5b5061048060085481565b34801561092157600080fd5b50610480600a5481565b34801561093757600080fd5b506104806109463660046131d7565b610ed2565b34801561095757600080fd5b50610480600b5481565b34801561096d57600080fd5b506103f061097c366004612d51565b610ef9565b34801561098d57600080fd5b50610480610f1f565b3480156109a257600080fd5b506103f06109b1366004612d51565b610f31565b3480156109c257600080fd5b506103f06109d1366004612f19565b610fa7565b3480156109e257600080fd5b50610480620186a081565b606060006109f9611075565b610a02886110cf565b610a0b8861115d565b610a1585856111b8565b610a2388888888888861120a565b91509150965096945050505050565b60006001600160e01b031982166370d596f560e11b1480610a6357506001600160e01b03198216630704183b60e11b145b80610a7e57506301ffc9a760e01b6001600160e01b03198316145b92915050565b610a8c61167a565b6020810151600780546001600160a01b039283166001600160a01b0319918216179091558251600580549190931691161790556040810151600d556060810151608082015160c083015160a084015161010085015160e0860151610af49594939291906116f3565b50565b610aff61167a565b6060810151600c5580516009556040810151600b556020810151600a5560800151600e55565b610b2d61167a565b60015460405163f3fef3a360e01b81526001600160a01b038381166004830152602482018590529091169063f3fef3a3906044015b600060405180830381600087803b158015610b7c57600080fd5b505af1158015610b90573d6000803e3d6000fd5b505050505050565b60068181548110610ba857600080fd5b6000918252602090912001546001600160a01b0316905081565b610bca61167a565b610af481611b27565b610bdb61167a565b60005b84811015610b9057610c3a84848484818110610bfc57610bfc613844565b90506020020135888885818110610c1557610c15613844565b9050602002016020810190610c2a9190612d51565b6001600160a01b03169190611c35565b80610c4481613813565b915050610bde565b610c5461167a565b610c5e6000611c98565b565b600081610c8484760a70c3c40a64e6c51999090b65f67d9240000000000000613759565b610c8e919061364c565b9392505050565b610c9d611075565b610caa8585858585611ce8565b5050505050565b610cb961167a565b610cd36001600160a01b03821663e9fb30f760e01b611059565b610d245760405162461bcd60e51b815260206004820152601f60248201527f746172676574206973206e6f7420612076616c6964204952656c61794875620060448201526064015b60405180910390fd5b600180546001600160a01b0319166001600160a01b0392909216919091179055565b60008115610d6157610d5a84846000610e6b565b9050610c8e565b82610d7b856ec097ce7bc90715b34b9f1000000000613759565b610d85919061364c565b949350505050565b60606040518060600160405280603781526020016138a360379139905090565b60606006805480602002602001604051908101604052809291908181526020018280548015610e0557602002820191906000526020600020905b81546001600160a01b03168152600190910190602001808311610de7575b5050505050905090565b610e3a6040518060800160405280600081526020016000815260200160008152602001600081525090565b604051806080016040528062030d40815260200162030d40815260200162061a808152602001612904815250905090565b60008115610e7f57610d5a84846000610d46565b6ec097ce7bc90715b34b9f1000000000610d7b8486613759565b6000610ead6003546001600160a01b031690565b905090565b60006103e8610ec460ff841682613778565b610c849061ffff1685613759565b60006064600e546064610ee5919061360f565b610eef9084613759565b610a7e919061364c565b610f0161167a565b600380546001600160a01b0319166001600160a01b03831617905550565b610f2e61c350620186a061360f565b81565b610f3961167a565b6001600160a01b038116610f9e5760405162461bcd60e51b815260206004820152602660248201527f4f776e61626c653a206e6577206f776e657220697320746865207a65726f206160448201526564647265737360d01b6064820152608401610d1b565b610af481611c98565b610faf610e99565b6001600160a01b0316336001600160a01b0316146110035760405162461bcd60e51b81526020600482015260116024820152700daeae6e840c4ca40c240dacae8c25ae8f607b1b6044820152606401610d1b565b61102061100e611df4565b6001600160a01b038516908484611dfe565b505050565b60006014361080159061104257506003546001600160a01b031633145b15611054575060131936013560601c90565b503390565b600061106483611e3c565b8015610c8e5750610c8e8383611e6f565b6001546001600160a01b03163314610c5e5760405162461bcd60e51b815260206004820152601e60248201527f63616e206f6e6c792062652063616c6c65642062792052656c617948756200006044820152606401610d1b565b6110dc602082018261350e565b6110ed9060c081019060a001612d51565b6001600160a01b03166110fe610e99565b6001600160a01b0316146111545760405162461bcd60e51b815260206004820152601860248201527f466f72776172646572206973206e6f74207472757374656400000000000000006044820152606401610d1b565b610af481611ef8565b61116781806134f8565b6040013515610af45760405162461bcd60e51b815260206004820152601c60248201527f76616c7565207472616e73666572206e6f7420737570706f72746564000000006044820152606401610d1b565b80156112065760405162461bcd60e51b815260206004820152601b60248201527f73686f756c642068617665206e6f20617070726f76616c4461746100000000006044820152606401610d1b565b5050565b60606000368161121d60208b018b61350e565b61122b9060c08101906134b2565b909250905060148110156112815760405162461bcd60e51b815260206004820152601a60248201527f6d75737420636f6e7461696e20746f6b656e20616464726573730000000000006044820152606401610d1b565b600061128d83836120dc565b6008546001600160a01b038216600090815260046020526040902060020154919250146112f05760405162461bcd60e51b81526020600482015260116024820152703ab739bab83837b93a32b2103a37b5b2b760791b6044820152606401610d1b565b6001600160a01b03808216600090815260046020908152604091829020825160e080820185528254958616825260ff600160a01b8704811615159483019490945262ffffff600160a81b87041694820194909452600160c01b850490921660608301526001600160e01b0319600160c81b90940490921b929092166080830152600181015460a08301526002015460c08201526014831461153e5760188310156113dc5760405162461bcd60e51b815260206004820152601f60248201527f6d75737420636f6e7461696e20227065726d69742220616e6420746f6b656e006044820152606401610d1b565b6114266113ec84601481886135e5565b8080601f0160208091040260200160405190810160405280939291908181526020018383808284376000920191909152506120fe92505050565b6001600160e01b03191681608001516001600160e01b0319161461148c5760405162461bcd60e51b815260206004820152601960248201527f77726f6e6720227065726d697422206d6574686f6420736967000000000000006044820152606401610d1b565b6000806001600160a01b0384166114a6866014818a6135e5565b6040516114b4929190613312565b6000604051808303816000865af19150503d80600081146114f1576040519150601f19603f3d011682016040523d82523d6000602084013e6114f6565b606091505b5091509150818160405160200161150d919061333e565b6040516020818303038152906040529061153a5760405162461bcd60e51b8152600401610d1b91906133ec565b5050505b60006115c282600001516001600160a01b03166350d25bcd6040518163ffffffff1660e01b815260040160206040518083038186803b15801561158057600080fd5b505afa158015611594573d6000803e3d6000fd5b505050506040513d601f19601f820116820180604052508101906115b89190612f5a565b8360a00151610c60565b905060006115e58e80602001906115d9919061350e565b8a84866020015161210b565b50905060006115f48f806134f8565b611602906020810190612d51565b90506116196001600160a01b038616823085611dfe565b602080850151604080516001600160a01b03808a1694820194909452928416908301526060820185905260808201849052151560a082015260c00160408051601f198184030181529190529f60009f509d5050505050505050505050505050565b611682611df4565b6001600160a01b031661169d6000546001600160a01b031690565b6001600160a01b031614610c5e5760405162461bcd60e51b815260206004820181905260248201527f4f776e61626c653a2063616c6c6572206973206e6f7420746865206f776e65726044820152606401610d1b565b855161170690600690602089019061291f565b5043600881905560005b600654811015611b1d576040805160e081018252600080825260208201819052918101829052606081018290526080810182905260a0810182905260c081019190915260006006838154811061176857611768613844565b60009182526020909120015460055460405163095ea7b360e01b81526001600160a01b039182166004820152600019602482015291169150819063095ea7b390604401602060405180830381600087803b1580156117c557600080fd5b505af11580156117d9573d6000803e3d6000fd5b505050506040513d601f19601f820116820180604052508101906117fd9190612df2565b50806001600160a01b031663313ce5676040518163ffffffff1660e01b815260040160206040518083038186803b15801561183757600080fd5b505afa15801561184b573d6000803e3d6000fd5b505050506040513d601f19601f8201168201806040525081019061186f91906132a0565b89848151811061188157611881613844565b60200260200101516001600160a01b031663313ce5676040518163ffffffff1660e01b815260040160206040518083038186803b1580156118c157600080fd5b505afa1580156118d5573d6000803e3d6000fd5b505050506040513d601f19601f820116820180604052508101906118f991906132a0565b6119039190613627565b6119119060ff16600a6136b1565b60a0830152885189908490811061192a5761192a613844565b60209081029190910101516001600160a01b03168252855186908490811061195457611954613844565b602090810291909101810151151590830152875188908490811061197a5761197a613844565b60209081029190910181015180519101206001600160e01b031916608083015286518790849081106119ae576119ae613844565b602090810291909101015162ffffff16604083015284516103e8908690859081106119db576119db613844565b602002602001015160ff161115611a2a5760405162461bcd60e51b8152602060048201526013602482015272736c6970706167652061626f7665203130302560681b6044820152606401610d1b565b848381518110611a3c57611a3c613844565b60209081029190910181015160ff9081166060850190815260c085018781526001600160a01b03948516600090815260048552604090819020875181549689015192890151945160808a015160e01c600160c81b0263ffffffff60c81b1991909716600160c01b0260ff60c01b1962ffffff909716600160a81b029690961663ffffffff60a81b19941515600160a01b026001600160a81b03199099169290991691909117969096179190911695909517919091179290921617825560a0909201516001820155905160029091015580611b1581613813565b915050611710565b5050505050505050565b47600082821015611bbe5760005b60065481108015611b4e575083611b4c838561360f565b105b15611ba157611b8360068281548110611b6957611b69613844565b6000918252602090912001546001600160a01b03166121ad565b611b8d908361360f565b915080611b9981613813565b915050611b35565b508015611bbe57600554611bbe906001600160a01b031682612365565b6000611bca828461360f565b1115611020576001546001600160a01b031663aa67c919611beb838561360f565b6040516001600160e01b031960e084901b1681523060048201526024016000604051808303818588803b158015611c2157600080fd5b505af1158015611b1d573d6000803e3d6000fd5b6040516001600160a01b03831660248201526044810182905261102090849063a9059cbb60e01b906064015b60408051601f198184030181529190526020810180516001600160e01b03166001600160e01b031990931692909217909152612398565b600080546001600160a01b038381166001600160a01b0319831681178455604051919092169283917f8be0079c531659141344cd1fd0a4f28419497f9722a3daafe3b4186f6b6457e09190a35050565b600080808080611cfa898b018b612ec8565b94509450945094509450600080611d20886009548b611d19919061360f565b878661210b565b9150915083821115611d6b5760405162461bcd60e51b815260206004820152601460248201527330b1ba3ab0b61031b430b933b2903434b3b432b960611b6044820152606401610d1b565b611d8a86611d79848761379b565b6001600160a01b038a169190611c35565b600954604080518b815260208101929092528101839052606081018290527fb3d69ff8981e297b4ab7fb9ba8e8a080ffebbee9f273bfa2d10116a8236830459060800160405180910390a1611dde8161246a565b611de6612526565b505050505050505050505050565b6000610ead611025565b6040516001600160a01b0380851660248301528316604482015260648101829052611e369085906323b872dd60e01b90608401611c61565b50505050565b6000611e4f826301ffc9a760e01b611e6f565b8015610a7e5750611e68826001600160e01b0319611e6f565b1592915050565b604080516001600160e01b03198316602480830191909152825180830390910181526044909101909152602080820180516001600160e01b03166301ffc9a760e01b178152825160009392849283928392918391908a617530fa92503d91506000519050828015611ee1575060208210155b8015611eed5750600081115b979650505050505050565b600080611f0583806134f8565b611f16906040810190602001612d51565b6001600160a01b031663572b6c0560e01b611f34602086018661350e565b611f459060c081019060a001612d51565b6040516001600160a01b03909116602482015260440160408051601f198184030181529181526020820180516001600160e01b03166001600160e01b0319909416939093179092529051611f999190613322565b600060405180830381855afa9150503d8060008114611fd4576040519150601f19603f3d011682016040523d82523d6000602084013e611fd9565b606091505b50915091508161202b5760405162461bcd60e51b815260206004820152601c60248201527f697354727573746564466f727761726465723a207265766572746564000000006044820152606401610d1b565b805160201461207c5760405162461bcd60e51b815260206004820181905260248201527f697354727573746564466f727761726465723a2062616420726573706f6e73656044820152606401610d1b565b808060200190518101906120909190612df2565b6110205760405162461bcd60e51b815260206004820152601f60248201527f696e76616c696420666f7277617264657220666f7220726563697069656e74006044820152606401610d1b565b60006120eb60148284866135e5565b6120f4916137b2565b60601c9392505050565b6000610a7e826000612644565b600154604051638e53548b60e01b815260009182916001600160a01b0390911690638e53548b906121429088908a906004016133ff565b60206040518083038186803b15801561215a57600080fd5b505afa15801561216e573d6000803e3d6000fd5b505050506040513d601f19601f820116820180604052508101906121929190612f5a565b90506121a2610946828686610d46565b915094509492505050565b6040516370a0823160e01b815230600482015260009081906001600160a01b038416906370a082319060240160206040518083038186803b1580156121f157600080fd5b505afa158015612205573d6000803e3d6000fd5b505050506040513d601f19601f820116820180604052508101906122299190612f5a565b9050801561235c576001600160a01b038381166000908152600460208181526040808420815160e080820184528254978816808352600160a01b890460ff908116151584880152600160a81b8a0462ffffff1684870152600160c01b8a04166060840152600160c81b909804901b6001600160e01b0319166080820152600182015460a082015260029091015460c082015281516350d25bcd60e01b8152915190956122f29490936350d25bcd9380830193919290829003018186803b15801561158057600080fd5b9050600061231261230885848660200151610e6b565b8460600151610eb2565b9050600d5481101561232a5750600095945050505050565b60075460408401516005546123529289926001600160a01b03918216928992879291166126b4565b9695505050505050565b50600092915050565b60405163125012df60e21b8152600481018290523060248201526001600160a01b038316906349404b7c90604401610b62565b60006123ed826040518060400160405280602081526020017f5361666545524332303a206c6f772d6c6576656c2063616c6c206661696c6564815250856001600160a01b031661281b9092919063ffffffff16565b805190915015611020578080602001905181019061240b9190612df2565b6110205760405162461bcd60e51b815260206004820152602a60248201527f5361666545524332303a204552433230206f7065726174696f6e20646964206e6044820152691bdd081cdd58d8d9595960b21b6064820152608401610d1b565b6001546040516370a0823160e01b81523060048201526000916001600160a01b0316906370a082319060240160206040518083038186803b1580156124ae57600080fd5b505afa1580156124c2573d6000803e3d6000fd5b505050506040513d601f19601f820116820180604052508101906124e69190612f5a565b905081600a546124f6919061360f565b8110612500575050565b60008282600b54612511919061379b565b61251b919061360f565b905061102081611b27565b6001546040516370a0823160e01b81523060048201526000916001600160a01b0316906370a082319060240160206040518083038186803b15801561256a57600080fd5b505afa15801561257e573d6000803e3d6000fd5b505050506040513d601f19601f820116820180604052508101906125a29190612f5a565b9050600b54600c546125b4919061360f565b8110610af4576001546001600160a01b031663f3fef3a36125dd6000546001600160a01b031690565b600b546125ea908561379b565b6040516001600160e01b031960e085901b1681526001600160a01b0390921660048301526024820152604401600060405180830381600087803b15801561263057600080fd5b505af1158015610caa573d6000803e3d6000fd5b600061265182600461360f565b835110156126a15760405162461bcd60e51b815260206004820152601a60248201527f726561644279746573343a206461746120746f6f2073686f72740000000000006044820152606401610d1b565b5001602001516001600160e01b03191690565b60408051610100810182526001600160a01b0388811682528781166020830190815262ffffff86811684860190815286841660608601818152426080880190815260a088018d815260c089018d8152600060e08b018181529b5163414bf38960e01b81528b518b16600482015298518a1660248a0152955190961660448801529151871660648701525160848601525160a4850152915160c4840152945190921660e482015263414bf3899061010401602060405180830381600087803b15801561277e57600080fd5b505af19250505080156127ae575060408051601f3d908101601f191682019092526127ab91810190612f5a565b60015b61280d57604080516001600160a01b03808b16825289166020820152908101879052606081018690527ff7edd4c6ec425decf715a8b8eaa3b65d3d86e31ad0ff750aa60fa834190f515f9060800160405180910390a160009150612810565b91505b509695505050505050565b6060610d858484600085856001600160a01b0385163b61287d5760405162461bcd60e51b815260206004820152601d60248201527f416464726573733a2063616c6c20746f206e6f6e2d636f6e74726163740000006044820152606401610d1b565b600080866001600160a01b031685876040516128999190613322565b60006040518083038185875af1925050503d80600081146128d6576040519150601f19603f3d011682016040523d82523d6000602084013e6128db565b606091505b5091509150611eed828286606083156128f5575081610c8e565b8251156129055782518084602001fd5b8160405162461bcd60e51b8152600401610d1b91906133ec565b828054828255906000526020600020908101928215612974579160200282015b8281111561297457825182546001600160a01b0319166001600160a01b0390911617825560209092019160019091019061293f565b50612980929150612984565b5090565b5b808211156129805760008155600101612985565b80356129a481613870565b919050565b600082601f8301126129ba57600080fd5b813560206129cf6129ca8361357d565b61354d565b80838252828201915082860187848660051b89010111156129ef57600080fd5b60005b85811015612a17578135612a0581613885565b845292840192908401906001016129f2565b5090979650505050505050565b600082601f830112612a3557600080fd5b81356020612a456129ca8361357d565b80838252828201915082860187848660051b8901011115612a6557600080fd5b60005b85811015612a17578135612a7b81613870565b84529284019290840190600101612a68565b60008083601f840112612a9f57600080fd5b5081356001600160401b03811115612ab657600080fd5b6020830191508360208260051b8501011115612ad157600080fd5b9250929050565b600082601f830112612ae957600080fd5b81356020612af96129ca8361357d565b80838252828201915082860187848660051b8901011115612b1957600080fd5b60005b85811015612a17578135612b2f81613870565b84529284019290840190600101612b1c565b6000601f8381840112612b5357600080fd5b82356020612b636129ca8361357d565b80838252828201915082870188848660051b8a01011115612b8357600080fd5b60005b85811015612c1a5781356001600160401b0380821115612ba557600080fd5b818b0191508b603f830112612bb957600080fd5b86820135604082821115612bcf57612bcf61385a565b612be0828c01601f19168a0161354d565b92508183528d81838601011115612bf657600080fd5b818185018a8501375060009082018801528552509284019290840190600101612b86565b509098975050505050505050565b600082601f830112612c3957600080fd5b81356020612c496129ca8361357d565b80838252828201915082860187848660051b8901011115612c6957600080fd5b6000805b86811015612c9957823562ffffff81168114612c87578283fd5b85529385019391850191600101612c6d565b509198975050505050505050565b600082601f830112612cb857600080fd5b81356020612cc86129ca8361357d565b80838252828201915082860187848660051b8901011115612ce857600080fd5b60005b85811015612a17578135612cfe81613893565b84529284019290840190600101612ceb565b60008083601f840112612d2257600080fd5b5081356001600160401b03811115612d3957600080fd5b602083019150836020828501011115612ad157600080fd5b600060208284031215612d6357600080fd5b8135610c8e81613870565b600080600080600060608688031215612d8657600080fd5b85356001600160401b0380821115612d9d57600080fd5b612da989838a01612a8d565b909750955060208801359150612dbe82613870565b90935060408701359080821115612dd457600080fd5b50612de188828901612a8d565b969995985093965092949392505050565b600060208284031215612e0457600080fd5b8151610c8e81613885565b600060208284031215612e2157600080fd5b81356001600160e01b031981168114610c8e57600080fd5b600080600080600060808688031215612e5157600080fd5b85356001600160401b0380821115612e6857600080fd5b612e7489838a01612d10565b909750955060208801359150612e8982613885565b9093506040870135925060608701359080821115612ea657600080fd5b5086016101008189031215612eba57600080fd5b809150509295509295909350565b600080600080600060a08688031215612ee057600080fd5b8535612eeb81613870565b94506020860135612efb81613870565b935060408601359250606086013591506080860135612eba81613885565b600080600060608486031215612f2e57600080fd5b8335612f3981613870565b92506020840135612f4981613870565b929592945050506040919091013590565b600060208284031215612f6c57600080fd5b5051919050565b600060a08284031215612f8557600080fd5b60405160a081018181106001600160401b0382111715612fa757612fa761385a565b806040525082358152602083013560208201526040830135604082015260608301356060820152608083013560808201528091505092915050565b60008060008060008060808789031215612ffb57600080fd5b86356001600160401b038082111561301257600080fd5b908801906040828b03121561302657600080fd5b9096506020880135908082111561303c57600080fd5b6130488a838b01612d10565b9097509550604089013591508082111561306157600080fd5b5061306e89828a01612d10565b979a9699509497949695606090950135949350505050565b60006020828403121561309857600080fd5b81356001600160401b03808211156130af57600080fd5b9083019061012082860312156130c457600080fd5b6130cc613524565b6130d583612999565b81526130e360208401612999565b60208201526040830135604082015260608301358281111561310457600080fd5b61311087828601612ad8565b60608301525060808301358281111561312857600080fd5b61313487828601612a24565b60808301525060a08301358281111561314c57600080fd5b61315887828601612c28565b60a08301525060c08301358281111561317057600080fd5b61317c87828601612b41565b60c08301525060e08301358281111561319457600080fd5b6131a087828601612ca7565b60e08301525061010080840135838111156131ba57600080fd5b6131c6888287016129a9565b918301919091525095945050505050565b6000602082840312156131e957600080fd5b5035919050565b6000806040838503121561320357600080fd5b82359150602083013561321581613870565b809150509250929050565b6000806040838503121561323357600080fd5b50508035926020909101359150565b60008060006060848603121561325757600080fd5b8335925060208401359150604084013561327081613885565b809150509250925092565b6000806040838503121561328e57600080fd5b82359150602083013561321581613893565b6000602082840312156132b257600080fd5b8151610c8e81613893565b81835281816020850137506000828201602090810191909152601f909101601f19169091010190565b600081518084526132fe8160208601602086016137e7565b601f01601f19169290920160200192915050565b8183823760009101908152919050565b600082516133348184602087016137e7565b9190910192915050565b743832b936b4ba1031b0b636103932bb32b93a32b21d60591b81526000825161336e8160158501602087016137e7565b9190910160150192915050565b6020808252825182820181905260009190848201906040850190845b818110156133bc5783516001600160a01b031683529284019291840191600101613397565b50909695505050505050565b6040815260006133db60408301856132e6565b905082151560208301529392505050565b602081526000610c8e60208301846132e6565b828152604060208201528135604082015260208201356060820152604082013560808201526000606083013561343481613870565b6001600160a01b031660a083015261344e60808401612999565b6001600160a01b031660c083015261346860a08401612999565b6001600160a01b031660e083015261348360c08401846135a0565b61010084810152613499610140850182846132bd565b91505060e0840135610120840152809150509392505050565b6000808335601e198436030181126134c957600080fd5b8301803591506001600160401b038211156134e357600080fd5b602001915036819003821315612ad157600080fd5b6000823560de1983360301811261333457600080fd5b6000823560fe1983360301811261333457600080fd5b60405161012081016001600160401b03811182821017156135475761354761385a565b60405290565b604051601f8201601f191681016001600160401b03811182821017156135755761357561385a565b604052919050565b60006001600160401b038211156135965761359661385a565b5060051b60200190565b6000808335601e198436030181126135b757600080fd5b83016020810192503590506001600160401b038111156135d657600080fd5b803603831315612ad157600080fd5b600080858511156135f557600080fd5b8386111561360257600080fd5b5050820193919092039150565b600082198211156136225761362261382e565b500190565b600060ff821660ff84168060ff038211156136445761364461382e565b019392505050565b60008261366957634e487b7160e01b600052601260045260246000fd5b500490565b600181815b808511156136a957816000190482111561368f5761368f61382e565b8085161561369c57918102915b93841c9390800290613673565b509250929050565b6000610c8e83836000826136c757506001610a7e565b816136d457506000610a7e565b81600181146136ea57600281146136f457613710565b6001915050610a7e565b60ff8411156137055761370561382e565b50506001821b610a7e565b5060208310610133831016604e8410600b8410161715613733575081810a610a7e565b61373d838361366e565b80600019048211156137515761375161382e565b029392505050565b60008160001904831182151516156137735761377361382e565b500290565b600061ffff838116908316818110156137935761379361382e565b039392505050565b6000828210156137ad576137ad61382e565b500390565b6bffffffffffffffffffffffff1981358181169160148510156137df5780818660140360031b1b83161692505b505092915050565b60005b838110156138025781810151838201526020016137ea565b83811115611e365750506000910152565b60006000198214156138275761382761382e565b5060010190565b634e487b7160e01b600052601160045260246000fd5b634e487b7160e01b600052603260045260246000fd5b634e487b7160e01b600052604160045260246000fd5b6001600160a01b0381168114610af457600080fd5b8015158114610af457600080fd5b60ff81168114610af457600080fdfe332e302e302d626574612e332b6f70656e67736e2e7065726d69742d65726332302d756e69737761702d76332e697061796d6173746572a26469706673582212200c9b3060e621320608442c9e9eb9d32c34988b8b2a691beb58bafc5be204f04c64736f6c63430008070033",
  "devdoc": {
    "kind": "dev",
    "methods": {
      "getGasAndDataLimits()": {
        "returns": {
          "limits": "An instance of the `GasAndDataLimits` struct ##### `acceptanceBudget` If the transactions consumes more than `acceptanceBudget` this Paymaster will be charged for gas no matter what. Transaction that gets rejected after consuming more than `acceptanceBudget` gas is on this Paymaster's expense. Should be set to an amount gas this Paymaster expects to spend deciding whether to accept or reject a request. This includes gas consumed by calculations in the `preRelayedCall`, `Forwarder` and the recipient contract. :warning: **Warning** :warning: As long this value is above `preRelayedCallGasLimit` (see defaults in `BasePaymaster`), the Paymaster is guaranteed it will never pay for rejected transactions. If this value is below `preRelayedCallGasLimit`, it might might make Paymaster open to a \"griefing\" attack. The relayers should prefer lower `acceptanceBudget`, as it improves their chances of being compensated. From a Relay's point of view, this is the highest gas value a bad Paymaster may cost the relay, since the paymaster will pay anything above that value regardless of whether the transaction succeeds or reverts. Specifying value too high might make the call rejected by relayers (see `maxAcceptanceBudget` in server config). ##### `preRelayedCallGasLimit` The max gas usage of preRelayedCall. Any revert of the `preRelayedCall` is a request rejection by the paymaster. As long as `acceptanceBudget` is above `preRelayedCallGasLimit`, any such revert is not payed by the paymaster. ##### `postRelayedCallGasLimit` The max gas usage of postRelayedCall. The Paymaster is not charged for the maximum, only for actually used gas. Note that an OOG will revert the inner transaction, but the paymaster will be charged for it anyway."
        }
      },
      "getRelayHub()": {
        "returns": {
          "_0": "The address of the `RelayHub` that is trusted by this Paymaster to execute the requests."
        }
      },
      "isTrustedForwarder(address)": {
        "params": {
          "forwarder": "The address of the Forwarder contract that is being used."
        },
        "returns": {
          "_0": "isTrustedForwarder `true` if the Forwarder is trusted to forward relayed transactions by this Recipient."
        }
      },
      "owner()": {
        "details": "Returns the address of the current owner."
      },
      "postRelayedCall(bytes,bool,uint256,(uint256,uint256,uint256,address,address,address,bytes,uint256))": {
        "params": {
          "context": "The call context, as returned by the preRelayedCall",
          "gasUseWithoutPost": "The actual amount of gas used by the entire transaction, EXCEPT        the gas used by the postRelayedCall itself.",
          "relayData": "The relay params of the request. can be used by relayHub.calculateCharge()",
          "success": "`true` if the relayed call succeeded, false if it reverted"
        }
      },
      "preRelayedCall(((address,address,uint256,uint256,uint256,bytes,uint256),(uint256,uint256,uint256,address,address,address,bytes,uint256)),bytes,bytes,uint256)": {
        "params": {
          "approvalData": "- extra dapp-specific data (e.g. signature from trusted party)",
          "maxPossibleGas": "- based on values returned from `getGasAndDataLimits` the RelayHub will calculate the maximum possible amount of gas the user may be charged for. In order to convert this value to wei, the Paymaster has to call \"relayHub.calculateCharge()\"",
          "relayRequest": "- the full relay request structure",
          "signature": "- user's EIP712-compatible signature of the `relayRequest`. Note that in most cases the paymaster shouldn't try use it at all. It is always checked by the forwarder immediately after preRelayedCall returns."
        },
        "returns": {
          "_0": "A byte array to be passed to postRelayedCall. Can contain any data needed by this Paymaster in any form or be empty if no extra data is needed.",
          "_1": "The flag that allows a Paymaster to \"delegate\" the rejection to the recipient code. It also means the Paymaster trust the recipient to reject fast: both preRelayedCall, forwarder check and recipient checks must fit into the GasLimits.acceptanceBudget, otherwise the TX is paid by the Paymaster. `true` if the Paymaster wants to reject the TX if the recipient reverts. `false` if the Paymaster wants rejects by the recipient to be completed on chain and paid by the Paymaster."
        }
      },
      "renounceOwnership()": {
        "details": "Leaves the contract without owner. It will not be possible to call `onlyOwner` functions anymore. Can only be called by the current owner. NOTE: Renouncing ownership will leave the contract without an owner, thereby removing any functionality that is only available to the owner."
      },
      "supportsInterface(bytes4)": {
        "details": "Returns true if this contract implements the interface defined by `interfaceId`. See the corresponding https://eips.ethereum.org/EIPS/eip-165#how-interfaces-are-identified[EIP section] to learn more about how these ids are created. This function call must use less than 30 000 gas."
      },
      "transferOwnership(address)": {
        "details": "Transfers ownership of the contract to a new account (`newOwner`). Can only be called by the current owner."
      },
      "versionPaymaster()": {
        "returns": {
          "_0": "version The SemVer string of this Paymaster's version."
        }
      },
      "withdrawRelayHubDepositTo(uint256,address)": {
        "params": {
          "amount": "The amount to be subtracted from the sender.",
          "target": "The target to which the amount will be transferred."
        }
      }
    },
    "version": 1
  },
  "userdoc": {
    "kind": "user",
    "methods": {
      "getGasAndDataLimits()": {
        "notice": "Return the Gas Limits for Paymaster's functions and maximum msg.data length values for this Paymaster. This function allows different paymasters to have different properties without changes to the RelayHub."
      },
      "isTrustedForwarder(address)": {
        "notice": ":warning: **Warning** :warning: The Forwarder can have a full control over your Recipient. Only trust verified Forwarder."
      },
      "postRelayedCall(bytes,bool,uint256,(uint256,uint256,uint256,address,address,address,bytes,uint256))": {
        "notice": "This method is called after the actual relayed function call. It may be used to record the transaction (e.g. charge the caller by some contract logic) for this call. Revert in this functions causes a revert of the client's relayed call (and preRelayedCall(), but the Paymaster is still committed to pay the relay for the entire transaction."
      },
      "preRelayedCall(((address,address,uint256,uint256,uint256,bytes,uint256),(uint256,uint256,uint256,address,address,address,bytes,uint256)),bytes,bytes,uint256)": {
        "notice": "Called by the Relay in view mode and later by the `RelayHub` on-chain to validate that the Paymaster agrees to pay for this call. The request is considered to be rejected by the Paymaster in one of the following conditions:  - `preRelayedCall()` method reverts  - the `Forwarder` reverts because of nonce or signature error  - the `Paymaster` returned `rejectOnRecipientRevert: true` and the recipient contract reverted    (and all that did not consume more than `acceptanceBudget` gas). In any of the above cases, all Paymaster calls and the recipient call are reverted. In any other case the Paymaster will pay for the gas cost of the transaction. Note that even if `postRelayedCall` is reverted the Paymaster will be charged."
      },
      "setRelayHub(address)": {
        "notice": "The owner of the Paymaster can change the instance of the RelayHub this Paymaster works with. :warning: **Warning** :warning: The deposit on the previous RelayHub must be withdrawn first."
      },
      "withdrawRelayHubDepositTo(uint256,address)": {
        "notice": "Withdraw deposit from the RelayHub."
      }
    },
    "notice": "A paymaster allowing addresses holding ERC20 tokens with 'permit' functionality to pay for a GSN transaction.",
    "version": 1
  },
  "storageLayout": {
    "storage": [
      {
        "astId": 7797,
        "contract": "contracts/PermitERC20UniswapV3Paymaster.sol:PermitERC20UniswapV3Paymaster",
        "label": "_owner",
        "offset": 0,
        "slot": "0",
        "type": "t_address"
      },
      {
        "astId": 23,
        "contract": "contracts/PermitERC20UniswapV3Paymaster.sol:PermitERC20UniswapV3Paymaster",
        "label": "relayHub",
        "offset": 0,
        "slot": "1",
        "type": "t_contract(IRelayHub)5506"
      },
      {
        "astId": 25,
        "contract": "contracts/PermitERC20UniswapV3Paymaster.sol:PermitERC20UniswapV3Paymaster",
        "label": "_trustedForwarder",
        "offset": 0,
        "slot": "2",
        "type": "t_address"
      },
      {
        "astId": 405,
        "contract": "contracts/PermitERC20UniswapV3Paymaster.sol:PermitERC20UniswapV3Paymaster",
        "label": "_trustedForwarder",
        "offset": 0,
        "slot": "3",
        "type": "t_address"
      },
      {
        "astId": 11173,
        "contract": "contracts/PermitERC20UniswapV3Paymaster.sol:PermitERC20UniswapV3Paymaster",
        "label": "tokensSwapData",
        "offset": 0,
        "slot": "4",
        "type": "t_mapping(t_contract(IERC20)8720,t_struct(TokenSwapData)11167_storage)"
      },
      {
        "astId": 11176,
        "contract": "contracts/PermitERC20UniswapV3Paymaster.sol:PermitERC20UniswapV3Paymaster",
        "label": "uniswap",
        "offset": 0,
        "slot": "5",
        "type": "t_contract(ISwapRouter)10924"
      },
      {
        "astId": 11180,
        "contract": "contracts/PermitERC20UniswapV3Paymaster.sol:PermitERC20UniswapV3Paymaster",
        "label": "tokens",
        "offset": 0,
        "slot": "6",
        "type": "t_array(t_contract(IERC20)8720)dyn_storage"
      },
      {
        "astId": 11183,
        "contract": "contracts/PermitERC20UniswapV3Paymaster.sol:PermitERC20UniswapV3Paymaster",
        "label": "weth",
        "offset": 0,
        "slot": "7",
        "type": "t_contract(IERC20)8720"
      },
      {
        "astId": 11185,
        "contract": "contracts/PermitERC20UniswapV3Paymaster.sol:PermitERC20UniswapV3Paymaster",
        "label": "tokensBlockNumber",
        "offset": 0,
        "slot": "8",
        "type": "t_uint256"
      },
      {
        "astId": 11187,
        "contract": "contracts/PermitERC20UniswapV3Paymaster.sol:PermitERC20UniswapV3Paymaster",
        "label": "gasUsedByPost",
        "offset": 0,
        "slot": "9",
        "type": "t_uint256"
      },
      {
        "astId": 11189,
        "contract": "contracts/PermitERC20UniswapV3Paymaster.sol:PermitERC20UniswapV3Paymaster",
        "label": "minHubBalance",
        "offset": 0,
        "slot": "10",
        "type": "t_uint256"
      },
      {
        "astId": 11191,
        "contract": "contracts/PermitERC20UniswapV3Paymaster.sol:PermitERC20UniswapV3Paymaster",
        "label": "targetHubBalance",
        "offset": 0,
        "slot": "11",
        "type": "t_uint256"
      },
      {
        "astId": 11193,
        "contract": "contracts/PermitERC20UniswapV3Paymaster.sol:PermitERC20UniswapV3Paymaster",
        "label": "minWithdrawalAmount",
        "offset": 0,
        "slot": "12",
        "type": "t_uint256"
      },
      {
        "astId": 11195,
        "contract": "contracts/PermitERC20UniswapV3Paymaster.sol:PermitERC20UniswapV3Paymaster",
        "label": "minSwapAmount",
        "offset": 0,
        "slot": "13",
        "type": "t_uint256"
      },
      {
        "astId": 11197,
        "contract": "contracts/PermitERC20UniswapV3Paymaster.sol:PermitERC20UniswapV3Paymaster",
        "label": "paymasterFee",
        "offset": 0,
        "slot": "14",
        "type": "t_uint256"
      }
    ],
    "types": {
      "t_address": {
        "encoding": "inplace",
        "label": "address",
        "numberOfBytes": "20"
      },
      "t_array(t_contract(IERC20)8720)dyn_storage": {
        "base": "t_contract(IERC20)8720",
        "encoding": "dynamic_array",
        "label": "contract IERC20[]",
        "numberOfBytes": "32"
      },
      "t_bool": {
        "encoding": "inplace",
        "label": "bool",
        "numberOfBytes": "1"
      },
      "t_bytes4": {
        "encoding": "inplace",
        "label": "bytes4",
        "numberOfBytes": "4"
      },
      "t_contract(IChainlinkOracle)14932": {
        "encoding": "inplace",
        "label": "contract IChainlinkOracle",
        "numberOfBytes": "20"
      },
      "t_contract(IERC20)8720": {
        "encoding": "inplace",
        "label": "contract IERC20",
        "numberOfBytes": "20"
      },
      "t_contract(IRelayHub)5506": {
        "encoding": "inplace",
        "label": "contract IRelayHub",
        "numberOfBytes": "20"
      },
      "t_contract(ISwapRouter)10924": {
        "encoding": "inplace",
        "label": "contract ISwapRouter",
        "numberOfBytes": "20"
      },
      "t_mapping(t_contract(IERC20)8720,t_struct(TokenSwapData)11167_storage)": {
        "encoding": "mapping",
        "key": "t_contract(IERC20)8720",
        "label": "mapping(contract IERC20 => struct PermitERC20UniswapV3Paymaster.TokenSwapData)",
        "numberOfBytes": "32",
        "value": "t_struct(TokenSwapData)11167_storage"
      },
      "t_struct(TokenSwapData)11167_storage": {
        "encoding": "inplace",
        "label": "struct PermitERC20UniswapV3Paymaster.TokenSwapData",
        "members": [
          {
            "astId": 11154,
            "contract": "contracts/PermitERC20UniswapV3Paymaster.sol:PermitERC20UniswapV3Paymaster",
            "label": "priceFeed",
            "offset": 0,
            "slot": "0",
            "type": "t_contract(IChainlinkOracle)14932"
          },
          {
            "astId": 11156,
            "contract": "contracts/PermitERC20UniswapV3Paymaster.sol:PermitERC20UniswapV3Paymaster",
            "label": "reverseQuote",
            "offset": 20,
            "slot": "0",
            "type": "t_bool"
          },
          {
            "astId": 11158,
            "contract": "contracts/PermitERC20UniswapV3Paymaster.sol:PermitERC20UniswapV3Paymaster",
            "label": "uniswapPoolFee",
            "offset": 21,
            "slot": "0",
            "type": "t_uint24"
          },
          {
            "astId": 11160,
            "contract": "contracts/PermitERC20UniswapV3Paymaster.sol:PermitERC20UniswapV3Paymaster",
            "label": "slippage",
            "offset": 24,
            "slot": "0",
            "type": "t_uint8"
          },
          {
            "astId": 11162,
            "contract": "contracts/PermitERC20UniswapV3Paymaster.sol:PermitERC20UniswapV3Paymaster",
            "label": "permitMethodSelector",
            "offset": 25,
            "slot": "0",
            "type": "t_bytes4"
          },
          {
            "astId": 11164,
            "contract": "contracts/PermitERC20UniswapV3Paymaster.sol:PermitERC20UniswapV3Paymaster",
            "label": "priceDivisor",
            "offset": 0,
            "slot": "1",
            "type": "t_uint256"
          },
          {
            "astId": 11166,
            "contract": "contracts/PermitERC20UniswapV3Paymaster.sol:PermitERC20UniswapV3Paymaster",
            "label": "validFromBlockNumber",
            "offset": 0,
            "slot": "2",
            "type": "t_uint256"
          }
        ],
        "numberOfBytes": "96"
      },
      "t_uint24": {
        "encoding": "inplace",
        "label": "uint24",
        "numberOfBytes": "3"
      },
      "t_uint256": {
        "encoding": "inplace",
        "label": "uint256",
        "numberOfBytes": "32"
      },
      "t_uint8": {
        "encoding": "inplace",
        "label": "uint8",
        "numberOfBytes": "1"
      }
    }
  }
}