{
  "address": "0x830c0c08953Ba8e9a189FC9f923f88e793F5a8dC",
  "abi": [
    {
      "inputs": [
        {
          "internalType": "uint256",
          "name": "_penalizeBlockDelay",
          "type": "uint256"
        },
        {
          "internalType": "uint256",
          "name": "_penalizeBlockExpiration",
          "type": "uint256"
        }
      ],
      "stateMutability": "nonpayable",
      "type": "constructor"
    },
    {
      "anonymous": false,
      "inputs": [
        {
          "indexed": true,
          "internalType": "address",
          "name": "sender",
          "type": "address"
        },
        {
          "indexed": true,
          "internalType": "bytes32",
          "name": "commitHash",
          "type": "bytes32"
        },
        {
          "indexed": false,
          "internalType": "uint256",
          "name": "readyBlockNumber",
          "type": "uint256"
        }
      ],
      "name": "CommitAdded",
      "type": "event"
    },
    {
      "inputs": [
        {
          "internalType": "bytes32",
          "name": "commitHash",
          "type": "bytes32"
        }
      ],
      "name": "commit",
      "outputs": [],
      "stateMutability": "nonpayable",
      "type": "function"
    },
    {
      "inputs": [
        {
          "internalType": "bytes32",
          "name": "",
          "type": "bytes32"
        }
      ],
      "name": "commits",
      "outputs": [
        {
          "internalType": "uint256",
          "name": "",
          "type": "uint256"
        }
      ],
      "stateMutability": "view",
      "type": "function"
    },
    {
      "inputs": [
        {
          "internalType": "bytes",
          "name": "rawTransaction",
          "type": "bytes"
        }
      ],
      "name": "decodeTransaction",
      "outputs": [
        {
          "components": [
            {
              "internalType": "uint256",
              "name": "nonce",
              "type": "uint256"
            },
            {
              "internalType": "uint256",
              "name": "gasLimit",
              "type": "uint256"
            },
            {
              "internalType": "address",
              "name": "to",
              "type": "address"
            },
            {
              "internalType": "uint256",
              "name": "value",
              "type": "uint256"
            },
            {
              "internalType": "bytes",
              "name": "data",
              "type": "bytes"
            }
          ],
          "internalType": "struct IPenalizer.Transaction",
          "name": "transaction",
          "type": "tuple"
        }
      ],
      "stateMutability": "pure",
      "type": "function"
    },
    {
      "inputs": [],
      "name": "getPenalizeBlockDelay",
      "outputs": [
        {
          "internalType": "uint256",
          "name": "",
          "type": "uint256"
        }
      ],
      "stateMutability": "view",
      "type": "function"
    },
    {
      "inputs": [],
      "name": "getPenalizeBlockExpiration",
      "outputs": [
        {
          "internalType": "uint256",
          "name": "",
          "type": "uint256"
        }
      ],
      "stateMutability": "view",
      "type": "function"
    },
    {
      "inputs": [
        {
          "internalType": "bytes",
          "name": "rawTransaction",
          "type": "bytes"
        }
      ],
      "name": "isTransactionTypeValid",
      "outputs": [
        {
          "internalType": "bool",
          "name": "",
          "type": "bool"
        }
      ],
      "stateMutability": "pure",
      "type": "function"
    },
    {
      "inputs": [
        {
          "internalType": "bytes",
          "name": "unsignedTx",
          "type": "bytes"
        },
        {
          "internalType": "bytes",
          "name": "signature",
          "type": "bytes"
        },
        {
          "internalType": "contract IRelayHub",
          "name": "hub",
          "type": "address"
        },
        {
          "internalType": "uint256",
          "name": "randomValue",
          "type": "uint256"
        }
      ],
      "name": "penalizeIllegalTransaction",
      "outputs": [],
      "stateMutability": "nonpayable",
      "type": "function"
    },
    {
      "inputs": [
        {
          "internalType": "bytes",
          "name": "unsignedTx1",
          "type": "bytes"
        },
        {
          "internalType": "bytes",
          "name": "signature1",
          "type": "bytes"
        },
        {
          "internalType": "bytes",
          "name": "unsignedTx2",
          "type": "bytes"
        },
        {
          "internalType": "bytes",
          "name": "signature2",
          "type": "bytes"
        },
        {
          "internalType": "contract IRelayHub",
          "name": "hub",
          "type": "address"
        },
        {
          "internalType": "uint256",
          "name": "randomValue",
          "type": "uint256"
        }
      ],
      "name": "penalizeRepeatedNonce",
      "outputs": [],
      "stateMutability": "nonpayable",
      "type": "function"
    },
    {
      "inputs": [],
      "name": "versionPenalizer",
      "outputs": [
        {
          "internalType": "string",
          "name": "",
          "type": "string"
        }
      ],
      "stateMutability": "view",
      "type": "function"
    }
  ],
  "transactionHash": "0x8d34841855afaee42a619cde7196a6495224460af65d58d627da95e821463494",
  "args": [
    5,
    5
  ],
  "numDeployments": 2,
  "solcInputHash": "ed54ecf1e58c2e0b82a21139c2bc4bdb",
  "bytecode": "0x610120604052602a60c08181529062001e5c60e03980516200002a916000916020909101906200006a565b503480156200003857600080fd5b5060405162001e8638038062001e868339810160408190526200005b9162000110565b60809190915260a05262000172565b828054620000789062000135565b90600052602060002090601f0160209004810192826200009c5760008555620000e7565b82601f10620000b757805160ff1916838001178555620000e7565b82800160010185558215620000e7579182015b82811115620000e7578251825591602001919060010190620000ca565b50620000f5929150620000f9565b5090565b5b80821115620000f55760008155600101620000fa565b600080604083850312156200012457600080fd5b505080516020909101519092909150565b600181811c908216806200014a57607f821691505b602082108114156200016c57634e487b7160e01b600052602260045260246000fd5b50919050565b60805160a051611cb0620001ac6000396000818161018a0152818161042e01526105ab01526000818160f1015261063e0152611cb06000f3fe608060405234801561001057600080fd5b50600436106100935760003560e01c8063a031365711610066578063a031365714610138578063a640bc741461014d578063ab456ccb14610162578063f14fcbc814610175578063fb5099351461018857600080fd5b8063258964461461009857806347885781146100c15780637f1a15bf146100ef5780638b29ee4714610115575b600080fd5b6100ab6100a63660046117bc565b6101ae565b6040516100b891906119f0565b60405180910390f35b6100e16100cf3660046117a3565b60016020526000908152604090205481565b6040519081526020016100b8565b7f00000000000000000000000000000000000000000000000000000000000000006100e1565b6101286101233660046117bc565b61026f565b60405190151581526020016100b8565b6101406102a2565b6040516100b891906119dd565b61016061015b3660046118dc565b610330565b005b6101606101703660046117fe565b6104b2565b6101606101833660046117a3565b610637565b7f00000000000000000000000000000000000000000000000000000000000000006100e1565b6101e96040518060a00160405280600081526020016000815260200160006001600160a01b0316815260200160008152602001606081525090565b6101f383836106b9565b156102265761020283836106e0565b608086015260608501526001600160a01b0316604084015260208301528152610269565b61023083836107eb565b1561023f576102028383610812565b61024983836108dc565b608086015260608501526001600160a01b03166040840152602083015281525b92915050565b600061027b83836109ac565b8061028b575061028b83836106b9565b8061029b575061029b83836107eb565b9392505050565b600080546102af90611bd2565b80601f01602080910402602001604051908101604052809291908181526020018280546102db90611bd2565b80156103285780601f106102fd57610100808354040283529160200191610328565b820191906000526020600020905b81548152906001019060200180831161030b57829003601f168201915b505050505081565b60008036604051610342929190611991565b6040805191829003822060208301526001600160601b03193360601b169082015260540160408051601f1981840301815291815281516020928301206000818152600190935290822080549290559150336001600160a01b031461049b57806103de5760405162461bcd60e51b81526020600482015260096024820152681b9bc818dbdb5b5a5d60ba1b60448201526064015b60405180910390fd5b4381106104285760405162461bcd60e51b81526020600482015260186024820152773932bb32b0b6103832b730b634bd32903a37b79039b7b7b760411b60448201526064016103d5565b436104537f000000000000000000000000000000000000000000000000000000000000000083611a65565b1161049b5760405162461bcd60e51b815260206004820152601860248201527772657665616c2070656e616c697a6520746f6f206c61746560401b60448201526064016103d5565b6104a888888888886109ea565b5050505050505050565b600080366040516104c4929190611991565b6040805191829003822060208301526001600160601b03193360601b169082015260540160408051601f1981840301815291815281516020928301206000818152600190935290822080549290559150336001600160a01b0314610618578061055b5760405162461bcd60e51b81526020600482015260096024820152681b9bc818dbdb5b5a5d60ba1b60448201526064016103d5565b4381106105a55760405162461bcd60e51b81526020600482015260186024820152773932bb32b0b6103832b730b634bd32903a37b79039b7b7b760411b60448201526064016103d5565b436105d07f000000000000000000000000000000000000000000000000000000000000000083611a65565b116106185760405162461bcd60e51b815260206004820152601860248201527772657665616c2070656e616c697a6520746f6f206c61746560401b60448201526064016103d5565b6106298c8c8c8c8c8c8c8c8c610b54565b505050505050505050505050565b60006106637f000000000000000000000000000000000000000000000000000000000000000043611a65565b6000838152600160205260409081902082905551909150829033907fe3e71aede44b4dc2b562f1f86045529b7aadddc51e28f63a503f3b8ee937e16f906106ad9085815260200190565b60405180910390a35050565b6000828260008181106106ce576106ce611c4e565b9091013560f81c600114949350505050565b60008080806060816106f5876001818b611a3b565b8080601f016020809104026020016040519081016040528093929190818152602001838380828437600092018290525093945061073f925061073a9150849050610dc6565b610e17565b90506107648160018151811061075757610757611c4e565b6020026020010151610f5c565b61077a8260038151811061075757610757611c4e565b61079d8360048151811061079057610790611c4e565b6020026020010151610faa565b6107b38460058151811061075757610757611c4e565b6107d6856006815181106107c9576107c9611c4e565b6020026020010151611030565b939d929c50909a509850909650945050505050565b60008282600081811061080057610800611c4e565b9091013560f81c600214949350505050565b6000808080606081610827876001818b611a3b565b8080601f016020809104026020016040519081016040528093929190818152602001838380828437600092018290525093945061086c925061073a9150849050610dc6565b90506108848160018151811061075757610757611c4e565b61089a8260048151811061075757610757611c4e565b6108b08360058151811061079057610790611c4e565b6108c68460068151811061075757610757611c4e565b6107d6856007815181106107c9576107c9611c4e565b6000806000806060600061092861073a89898080601f016020809104026020016040519081016040528093929190818152602001838380828437600092019190915250610dc692505050565b90506109408160008151811061075757610757611c4e565b6109568260028151811061075757610757611c4e565b61096c8360038151811061079057610790611c4e565b6109828460048151811061075757610757611c4e565b610998856005815181106107c9576107c9611c4e565b939c929b5090995097509095509350505050565b600080838360008181106109c2576109c2611c4e565b919091013560f81c91505060c081108015906109e2575060fe8160ff1611155b949350505050565b6109f4858561026f565b15610a9d576000610a0586866101ae565b9050816001600160a01b031681604001516001600160a01b03161415610a9b576000610a3482608001516110ca565b90506001600160e01b03198116631a2fb47d60e31b141580610a985760405162461bcd60e51b815260206004820152601760248201527f4c6567616c2072656c6179207472616e73616374696f6e00000000000000000060448201526064016103d5565b50505b505b6000610af784848080601f01602080910402602001604051908101604052809392919081815260200183838082843760009201919091525050604051610ae892508a91508990611991565b604051908190039020906110d7565b90506001600160a01b038116610b425760405162461bcd60e51b815260206004820152601060248201526f1958dc9958dbdd995c8819985a5b195960821b60448201526064016103d5565b610b4c81836110fb565b505050505050565b6000610b9f88888080601f01602080910402602001604051908101604052809392919081815260200183838082843760009201919091525050604051610ae892508e91508d90611991565b90506000610bec85858080601f01602080910402602001604051908101604052809392919081815260200183838082843760009201919091525050604051610ae892508b91508a90611991565b9050806001600160a01b0316826001600160a01b031614610c425760405162461bcd60e51b815260206004820152601060248201526f2234b33332b932b73a1039b4b3b732b960811b60448201526064016103d5565b6001600160a01b038216610c8b5760405162461bcd60e51b815260206004820152601060248201526f1958dc9958dbdd995c8819985a5b195960821b60448201526064016103d5565b6000610c978c8c6101ae565b90506000610ca589896101ae565b8051835191925014610ceb5760405162461bcd60e51b815260206004820152600f60248201526e446966666572656e74206e6f6e636560881b60448201526064016103d5565b60008260800151836020015184604001518560600151604051602001610d1494939291906119a1565b604051602081830303815290604052905060008260800151836020015184604001518560600151604051602001610d4e94939291906119a1565b6040516020818303038152906040529050808051906020012082805190602001201415610dab5760405162461bcd60e51b815260206004820152600b60248201526a1d1e081a5cc8195c5d585b60aa1b60448201526064016103d5565b610db586886110fb565b505050505050505050505050505050565b60408051808201909152600080825260208201528151610df9575050604080518082019091526000808252602082015290565b50604080518082019091528151815260209182019181019190915290565b6060610e2282611158565b610e5e5760405162461bcd60e51b815260206004820152600d60248201526c1a5cd31a5cdd0819985a5b1959609a1b60448201526064016103d5565b6000610e6983611183565b90508067ffffffffffffffff811115610e8457610e84611c64565b604051908082528060200260200182016040528015610ec957816020015b6040805180820190915260008082526020820152815260200190600190039081610ea25790505b5091506000610edb84602001516111fb565b8460200151610eea9190611a65565b90506000805b83811015610f5357610f018361127c565b9150604051806040016040528083815260200184815250858281518110610f2a57610f2a611c4e565b6020908102919091010152610f3f8284611a65565b925080610f4b81611c07565b915050610ef0565b50505050919050565b600080610f6c83602001516111fb565b90506000818460000151610f809190611b68565b90506000828560200151610f949190611a65565b516020929092036101000a909104949350505050565b60006015826000015111156110275760405162461bcd60e51b815260206004820152603a60248201527f496e76616c696420524c504974656d2e2041646472657373657320617265206560448201527f6e636f64656420696e203230206279746573206f72206c65737300000000000060648201526084016103d5565b61026982610f5c565b6060600061104183602001516111fb565b905060008184600001516110559190611b68565b905060008167ffffffffffffffff81111561107257611072611c64565b6040519080825280601f01601f19166020018201604052801561109c576020820181803683370190505b50905060008160200190506110c18487602001516110ba9190611a65565b828561130b565b50949350505050565b600061026982600061138b565b60008060006110e685856113fb565b915091506110f38161146b565b509392505050565b604051633af34c6b60e21b81526001600160a01b03838116600483015233602483015282169063ebcd31ac90604401600060405180830381600087803b15801561114457600080fd5b505af1158015610b4c573d6000803e3d6000fd5b6020810151805160009190821a9060c0821015611179575060009392505050565b5060019392505050565b60008060009050600061119984602001516111fb565b84602001516111a89190611a65565b90506000846000015185602001516111c09190611a65565b90505b808210156111f2576111d48261127c565b6111de9083611a65565b9150826111ea81611c07565b9350506111c3565b50909392505050565b8051600090811a60808110156112145750600092915050565b60b881108061122f575060c0811080159061122f575060f881105b1561123d5750600192915050565b60c081101561126a57611252600160b8611b7f565b61125f9060ff1682611b68565b61029b906001611a65565b611252600160f8611b7f565b50919050565b8051600090811a60808110156112955750600192915050565b60b88110156112a95761125f608082611b68565b60c08110156112d65760b78103600184019350806020036101000a84510460018201810193505050611276565b60f88110156112ea5761125f60c082611b68565b60019290920151602083900360f7016101000a900490910160f51901919050565b8061131557505050565b6020811061134d578251825261132c602084611a65565b9250611339602083611a65565b9150611346602082611b68565b9050611315565b80156113865760006001611362836020611b68565b61136e90610100611ac0565b6113789190611b68565b845184518216911916178352505b505050565b6000611398826004611a65565b835110156113e85760405162461bcd60e51b815260206004820152601a60248201527f726561644279746573343a206461746120746f6f2073686f727400000000000060448201526064016103d5565b5001602001516001600160e01b03191690565b6000808251604114156114325760208301516040840151606085015160001a61142687828585611629565b94509450505050611464565b82516040141561145c5760208301516040840151611451868383611716565b935093505050611464565b506000905060025b9250929050565b600081600481111561147f5761147f611c38565b14156114885750565b600181600481111561149c5761149c611c38565b14156114ea5760405162461bcd60e51b815260206004820152601860248201527f45434453413a20696e76616c6964207369676e6174757265000000000000000060448201526064016103d5565b60028160048111156114fe576114fe611c38565b141561154c5760405162461bcd60e51b815260206004820152601f60248201527f45434453413a20696e76616c6964207369676e6174757265206c656e6774680060448201526064016103d5565b600381600481111561156057611560611c38565b14156115b95760405162461bcd60e51b815260206004820152602260248201527f45434453413a20696e76616c6964207369676e6174757265202773272076616c604482015261756560f01b60648201526084016103d5565b60048160048111156115cd576115cd611c38565b14156116265760405162461bcd60e51b815260206004820152602260248201527f45434453413a20696e76616c6964207369676e6174757265202776272076616c604482015261756560f01b60648201526084016103d5565b50565b6000807f7fffffffffffffffffffffffffffffff5d576e7357a4501ddfe92f46681b20a0831115611660575060009050600361170d565b8460ff16601b1415801561167857508460ff16601c14155b15611689575060009050600461170d565b6040805160008082526020820180845289905260ff881692820192909252606081018690526080810185905260019060a0016020604051602081039080840390855afa1580156116dd573d6000803e3d6000fd5b5050604051601f1901519150506001600160a01b0381166117065760006001925092505061170d565b9150600090505b94509492505050565b6000806001600160ff1b03831660ff84901c601b0161173787828885611629565b935093505050935093915050565b60008083601f84011261175757600080fd5b50813567ffffffffffffffff81111561176f57600080fd5b60208301915083602082850101111561146457600080fd5b80356001600160a01b038116811461179e57600080fd5b919050565b6000602082840312156117b557600080fd5b5035919050565b600080602083850312156117cf57600080fd5b823567ffffffffffffffff8111156117e657600080fd5b6117f285828601611745565b90969095509350505050565b60008060008060008060008060008060c08b8d03121561181d57600080fd5b8a3567ffffffffffffffff8082111561183557600080fd5b6118418e838f01611745565b909c509a5060208d013591508082111561185a57600080fd5b6118668e838f01611745565b909a50985060408d013591508082111561187f57600080fd5b61188b8e838f01611745565b909850965060608d01359150808211156118a457600080fd5b506118b18d828e01611745565b90955093506118c4905060808c01611787565b915060a08b013590509295989b9194979a5092959850565b600080600080600080608087890312156118f557600080fd5b863567ffffffffffffffff8082111561190d57600080fd5b6119198a838b01611745565b9098509650602089013591508082111561193257600080fd5b5061193f89828a01611745565b9095509350611952905060408801611787565b9150606087013590509295509295509295565b6000815180845261197d816020860160208601611ba2565b601f01601f19169290920160200192915050565b8183823760009101908152919050565b600085516119b3818460208a01611ba2565b919091019384525060609190911b6001600160601b03191660208301526034820152605401919050565b60208152600061029b6020830184611965565b60208152815160208201526020820151604082015260018060a01b036040830151166060820152606082015160808201526000608083015160a0808401526109e260c0840182611965565b60008085851115611a4b57600080fd5b83861115611a5857600080fd5b5050820193919092039150565b60008219821115611a7857611a78611c22565b500190565b600181815b80851115611ab8578160001904821115611a9e57611a9e611c22565b80851615611aab57918102915b93841c9390800290611a82565b509250929050565b600061029b8383600082611ad657506001610269565b81611ae357506000610269565b8160018114611af95760028114611b0357611b1f565b6001915050610269565b60ff841115611b1457611b14611c22565b50506001821b610269565b5060208310610133831016604e8410600b8410161715611b42575081810a610269565b611b4c8383611a7d565b8060001904821115611b6057611b60611c22565b029392505050565b600082821015611b7a57611b7a611c22565b500390565b600060ff821660ff841680821015611b9957611b99611c22565b90039392505050565b60005b83811015611bbd578181015183820152602001611ba5565b83811115611bcc576000848401525b50505050565b600181811c90821680611be657607f821691505b6020821081141561127657634e487b7160e01b600052602260045260246000fd5b6000600019821415611c1b57611c1b611c22565b5060010190565b634e487b7160e01b600052601160045260246000fd5b634e487b7160e01b600052602160045260246000fd5b634e487b7160e01b600052603260045260246000fd5b634e487b7160e01b600052604160045260246000fdfea26469706673582212208381abe3ef329a641b6b08f4388586c8c936abb8ab4a644a9845a90490f3ef4464736f6c63430008070033332e302e302d616c7068612e332b6f70656e67736e2e70656e616c697a65722e6970656e616c697a6572",
  "devdoc": {
    "kind": "dev",
    "methods": {
      "commit(bytes32)": {
        "params": {
          "commitHash": "The hash of the report of a penalizable behaviour the reporter wants to reveal. Calculated as `commit(keccak(encodedPenalizeFunction))`."
        }
      },
      "decodeTransaction(bytes)": {
        "returns": {
          "transaction": "The details that the `Penalizer` needs to decide if the transaction is penalizable."
        }
      },
      "getPenalizeBlockDelay()": {
        "returns": {
          "_0": "The minimum delay between commit and reveal steps."
        }
      },
      "getPenalizeBlockExpiration()": {
        "returns": {
          "_0": "The maximum delay between commit and reveal steps."
        }
      },
      "isTransactionTypeValid(bytes)": {
        "returns": {
          "_0": "`true` if raw transaction is of types Legacy, 1 or 2. `false` otherwise."
        }
      }
    },
    "stateVariables": {
      "versionPenalizer": {
        "return": "a SemVer-compliant version of the `Penalizer` contract.",
        "returns": {
          "_0": "a SemVer-compliant version of the `Penalizer` contract."
        }
      }
    },
    "title": "The Penalizer Implementation",
    "version": 1
  },
  "userdoc": {
    "events": {
      "CommitAdded(address,bytes32,uint256)": {
        "notice": "Emitted once the reporter submits the first step in the commit-reveal process."
      }
    },
    "kind": "user",
    "methods": {
      "commit(bytes32)": {
        "notice": "Called by the reporter as the first step in the commit-reveal process. Any sender can call it to make sure no-one can front-run it to claim this penalization."
      },
      "penalizeIllegalTransaction(bytes,bytes,address,uint256)": {
        "notice": "Called by the reporter as the second step in the commit-reveal process. The Relay Workers are not allowed to make calls other than to the `relayCall` method."
      },
      "penalizeRepeatedNonce(bytes,bytes,bytes,bytes,address,uint256)": {
        "notice": "Called by the reporter as the second step in the commit-reveal process. If a Relay Worker attacked the system by signing multiple transactions with same nonce so only one is accepted, anyone can grab both transactions from the blockchain and submit them here. Check whether `unsignedTx1` != `unsignedTx2`, that both are signed by the same address, and that `unsignedTx1.nonce` == `unsignedTx2.nonce`. If all conditions are met, relay is considered an \"offending relay\". The offending relay will be unregistered immediately, its stake will be forfeited and given to the address who reported it (the `msg.sender`), thus incentivizing anyone to report offending relays."
      }
    },
    "notice": "This Penalizer supports parsing Legacy, Type 1 and Type 2 raw RLP Encoded transactions.",
    "version": 1
  },
  "storageLayout": {
    "storage": [
      {
        "astId": 2960,
        "contract": "contracts-link/Penalizer.sol:Penalizer",
        "label": "versionPenalizer",
        "offset": 0,
        "slot": "0",
        "type": "t_string_storage"
      },
      {
        "astId": 3164,
        "contract": "contracts-link/Penalizer.sol:Penalizer",
        "label": "commits",
        "offset": 0,
        "slot": "1",
        "type": "t_mapping(t_bytes32,t_uint256)"
      }
    ],
    "types": {
      "t_bytes32": {
        "encoding": "inplace",
        "label": "bytes32",
        "numberOfBytes": "32"
      },
      "t_mapping(t_bytes32,t_uint256)": {
        "encoding": "mapping",
        "key": "t_bytes32",
        "label": "mapping(bytes32 => uint256)",
        "numberOfBytes": "32",
        "value": "t_uint256"
      },
      "t_string_storage": {
        "encoding": "bytes",
        "label": "string",
        "numberOfBytes": "32"
      },
      "t_uint256": {
        "encoding": "inplace",
        "label": "uint256",
        "numberOfBytes": "32"
      }
    }
  }
}