{
  "address": "0x7b926EAdB8A83CeBE0D851b817e2B97fd01e0fD0",
  "abi": [
    {
      "inputs": [
        {
          "internalType": "uint256",
          "name": "_maxUnstakeDelay",
          "type": "uint256"
        },
        {
          "internalType": "address",
          "name": "_burnAddress",
          "type": "address"
        }
      ],
      "stateMutability": "nonpayable",
      "type": "constructor"
    },
    {
      "anonymous": false,
      "inputs": [
        {
          "indexed": true,
          "internalType": "address",
          "name": "burnAddress",
          "type": "address"
        }
      ],
      "name": "BurnAddressSet",
      "type": "event"
    },
    {
      "anonymous": false,
      "inputs": [
        {
          "indexed": true,
          "internalType": "address",
          "name": "relayManager",
          "type": "address"
        },
        {
          "indexed": true,
          "internalType": "address",
          "name": "relayHub",
          "type": "address"
        }
      ],
      "name": "HubAuthorized",
      "type": "event"
    },
    {
      "anonymous": false,
      "inputs": [
        {
          "indexed": true,
          "internalType": "address",
          "name": "relayManager",
          "type": "address"
        },
        {
          "indexed": true,
          "internalType": "address",
          "name": "relayHub",
          "type": "address"
        },
        {
          "indexed": false,
          "internalType": "uint256",
          "name": "removalTime",
          "type": "uint256"
        }
      ],
      "name": "HubUnauthorized",
      "type": "event"
    },
    {
      "anonymous": false,
      "inputs": [
        {
          "indexed": true,
          "internalType": "address",
          "name": "relayManager",
          "type": "address"
        },
        {
          "indexed": true,
          "internalType": "address",
          "name": "owner",
          "type": "address"
        }
      ],
      "name": "OwnerSet",
      "type": "event"
    },
    {
      "anonymous": false,
      "inputs": [
        {
          "indexed": true,
          "internalType": "address",
          "name": "previousOwner",
          "type": "address"
        },
        {
          "indexed": true,
          "internalType": "address",
          "name": "newOwner",
          "type": "address"
        }
      ],
      "name": "OwnershipTransferred",
      "type": "event"
    },
    {
      "anonymous": false,
      "inputs": [
        {
          "indexed": true,
          "internalType": "address",
          "name": "relayManager",
          "type": "address"
        },
        {
          "indexed": true,
          "internalType": "address",
          "name": "owner",
          "type": "address"
        },
        {
          "indexed": false,
          "internalType": "contract IERC20",
          "name": "token",
          "type": "address"
        },
        {
          "indexed": false,
          "internalType": "uint256",
          "name": "stake",
          "type": "uint256"
        },
        {
          "indexed": false,
          "internalType": "uint256",
          "name": "unstakeDelay",
          "type": "uint256"
        }
      ],
      "name": "StakeAdded",
      "type": "event"
    },
    {
      "anonymous": false,
      "inputs": [
        {
          "indexed": true,
          "internalType": "address",
          "name": "relayManager",
          "type": "address"
        },
        {
          "indexed": true,
          "internalType": "address",
          "name": "beneficiary",
          "type": "address"
        },
        {
          "indexed": false,
          "internalType": "contract IERC20",
          "name": "token",
          "type": "address"
        },
        {
          "indexed": false,
          "internalType": "uint256",
          "name": "reward",
          "type": "uint256"
        }
      ],
      "name": "StakePenalized",
      "type": "event"
    },
    {
      "anonymous": false,
      "inputs": [
        {
          "indexed": true,
          "internalType": "address",
          "name": "relayManager",
          "type": "address"
        },
        {
          "indexed": true,
          "internalType": "address",
          "name": "owner",
          "type": "address"
        },
        {
          "indexed": false,
          "internalType": "uint256",
          "name": "withdrawTime",
          "type": "uint256"
        }
      ],
      "name": "StakeUnlocked",
      "type": "event"
    },
    {
      "anonymous": false,
      "inputs": [
        {
          "indexed": true,
          "internalType": "address",
          "name": "relayManager",
          "type": "address"
        },
        {
          "indexed": true,
          "internalType": "address",
          "name": "owner",
          "type": "address"
        },
        {
          "indexed": false,
          "internalType": "contract IERC20",
          "name": "token",
          "type": "address"
        },
        {
          "indexed": false,
          "internalType": "uint256",
          "name": "amount",
          "type": "uint256"
        }
      ],
      "name": "StakeWithdrawn",
      "type": "event"
    },
    {
      "inputs": [
        {
          "internalType": "address",
          "name": "relayHub",
          "type": "address"
        }
      ],
      "name": "authorizeHubByManager",
      "outputs": [],
      "stateMutability": "nonpayable",
      "type": "function"
    },
    {
      "inputs": [
        {
          "internalType": "address",
          "name": "relayManager",
          "type": "address"
        },
        {
          "internalType": "address",
          "name": "relayHub",
          "type": "address"
        }
      ],
      "name": "authorizeHubByOwner",
      "outputs": [],
      "stateMutability": "nonpayable",
      "type": "function"
    },
    {
      "inputs": [
        {
          "internalType": "address",
          "name": "",
          "type": "address"
        },
        {
          "internalType": "address",
          "name": "",
          "type": "address"
        }
      ],
      "name": "authorizedHubs",
      "outputs": [
        {
          "internalType": "uint256",
          "name": "removalTime",
          "type": "uint256"
        }
      ],
      "stateMutability": "view",
      "type": "function"
    },
    {
      "inputs": [],
      "name": "getBurnAddress",
      "outputs": [
        {
          "internalType": "address",
          "name": "",
          "type": "address"
        }
      ],
      "stateMutability": "view",
      "type": "function"
    },
    {
      "inputs": [],
      "name": "getCreationBlock",
      "outputs": [
        {
          "internalType": "uint256",
          "name": "",
          "type": "uint256"
        }
      ],
      "stateMutability": "view",
      "type": "function"
    },
    {
      "inputs": [],
      "name": "getMaxUnstakeDelay",
      "outputs": [
        {
          "internalType": "uint256",
          "name": "",
          "type": "uint256"
        }
      ],
      "stateMutability": "view",
      "type": "function"
    },
    {
      "inputs": [
        {
          "internalType": "address",
          "name": "relayManager",
          "type": "address"
        }
      ],
      "name": "getStakeInfo",
      "outputs": [
        {
          "components": [
            {
              "internalType": "uint256",
              "name": "stake",
              "type": "uint256"
            },
            {
              "internalType": "uint256",
              "name": "unstakeDelay",
              "type": "uint256"
            },
            {
              "internalType": "uint256",
              "name": "withdrawTime",
              "type": "uint256"
            },
            {
              "internalType": "contract IERC20",
              "name": "token",
              "type": "address"
            },
            {
              "internalType": "address",
              "name": "owner",
              "type": "address"
            }
          ],
          "internalType": "struct IStakeManager.StakeInfo",
          "name": "stakeInfo",
          "type": "tuple"
        },
        {
          "internalType": "bool",
          "name": "isSenderAuthorizedHub",
          "type": "bool"
        }
      ],
      "stateMutability": "view",
      "type": "function"
    },
    {
      "inputs": [],
      "name": "owner",
      "outputs": [
        {
          "internalType": "address",
          "name": "",
          "type": "address"
        }
      ],
      "stateMutability": "view",
      "type": "function"
    },
    {
      "inputs": [
        {
          "internalType": "address",
          "name": "relayManager",
          "type": "address"
        },
        {
          "internalType": "address",
          "name": "beneficiary",
          "type": "address"
        },
        {
          "internalType": "uint256",
          "name": "amount",
          "type": "uint256"
        }
      ],
      "name": "penalizeRelayManager",
      "outputs": [],
      "stateMutability": "nonpayable",
      "type": "function"
    },
    {
      "inputs": [],
      "name": "renounceOwnership",
      "outputs": [],
      "stateMutability": "nonpayable",
      "type": "function"
    },
    {
      "inputs": [
        {
          "internalType": "address",
          "name": "_burnAddress",
          "type": "address"
        }
      ],
      "name": "setBurnAddress",
      "outputs": [],
      "stateMutability": "nonpayable",
      "type": "function"
    },
    {
      "inputs": [
        {
          "internalType": "address",
          "name": "owner",
          "type": "address"
        }
      ],
      "name": "setRelayManagerOwner",
      "outputs": [],
      "stateMutability": "nonpayable",
      "type": "function"
    },
    {
      "inputs": [
        {
          "internalType": "contract IERC20",
          "name": "token",
          "type": "address"
        },
        {
          "internalType": "address",
          "name": "relayManager",
          "type": "address"
        },
        {
          "internalType": "uint256",
          "name": "unstakeDelay",
          "type": "uint256"
        },
        {
          "internalType": "uint256",
          "name": "amount",
          "type": "uint256"
        }
      ],
      "name": "stakeForRelayManager",
      "outputs": [],
      "stateMutability": "nonpayable",
      "type": "function"
    },
    {
      "inputs": [
        {
          "internalType": "address",
          "name": "",
          "type": "address"
        }
      ],
      "name": "stakes",
      "outputs": [
        {
          "internalType": "uint256",
          "name": "stake",
          "type": "uint256"
        },
        {
          "internalType": "uint256",
          "name": "unstakeDelay",
          "type": "uint256"
        },
        {
          "internalType": "uint256",
          "name": "withdrawTime",
          "type": "uint256"
        },
        {
          "internalType": "contract IERC20",
          "name": "token",
          "type": "address"
        },
        {
          "internalType": "address",
          "name": "owner",
          "type": "address"
        }
      ],
      "stateMutability": "view",
      "type": "function"
    },
    {
      "inputs": [
        {
          "internalType": "address",
          "name": "newOwner",
          "type": "address"
        }
      ],
      "name": "transferOwnership",
      "outputs": [],
      "stateMutability": "nonpayable",
      "type": "function"
    },
    {
      "inputs": [
        {
          "internalType": "address",
          "name": "relayHub",
          "type": "address"
        }
      ],
      "name": "unauthorizeHubByManager",
      "outputs": [],
      "stateMutability": "nonpayable",
      "type": "function"
    },
    {
      "inputs": [
        {
          "internalType": "address",
          "name": "relayManager",
          "type": "address"
        },
        {
          "internalType": "address",
          "name": "relayHub",
          "type": "address"
        }
      ],
      "name": "unauthorizeHubByOwner",
      "outputs": [],
      "stateMutability": "nonpayable",
      "type": "function"
    },
    {
      "inputs": [
        {
          "internalType": "address",
          "name": "relayManager",
          "type": "address"
        }
      ],
      "name": "unlockStake",
      "outputs": [],
      "stateMutability": "nonpayable",
      "type": "function"
    },
    {
      "inputs": [],
      "name": "versionSM",
      "outputs": [
        {
          "internalType": "string",
          "name": "",
          "type": "string"
        }
      ],
      "stateMutability": "view",
      "type": "function"
    },
    {
      "inputs": [
        {
          "internalType": "address",
          "name": "relayManager",
          "type": "address"
        }
      ],
      "name": "withdrawStake",
      "outputs": [],
      "stateMutability": "nonpayable",
      "type": "function"
    }
  ],
  "transactionHash": "0x53b7c87ae387bcbb70106166451d37de7516ba1ad26ab71ece09f6a54dfa7201",
  "args": [
    100000000,
    "0xffffffffffffffffffffffffffffffffffffffff"
  ],
  "numDeployments": 2,
  "solcInputHash": "ed54ecf1e58c2e0b82a21139c2bc4bdb",
  "bytecode": "0x610120604052603060c08181529062001a8660e03980516200002a91600191602090910190620001d1565b503480156200003857600080fd5b5060405162001ab638038062001ab68339810160408190526200005b9162000277565b6200006633620000db565b6001600160a01b038116620000c25760405162461bcd60e51b815260206004820181905260248201527f7472616e736665727320746f2061646472657373283029206d6179206661696c60448201526064015b60405180910390fd5b620000cd816200012b565b504360a052608052620002f3565b600080546001600160a01b038381166001600160a01b0319831681178455604051919092169283917f8be0079c531659141344cd1fd0a4f28419497f9722a3daafe3b4186f6b6457e09190a35050565b6000546001600160a01b03163314620001875760405162461bcd60e51b815260206004820181905260248201527f4f776e61626c653a2063616c6c6572206973206e6f7420746865206f776e65726044820152606401620000b9565b600280546001600160a01b0319166001600160a01b0383169081179091556040517fb0d2ad16ddd4d3dd008ebff0b7e7699bbfa920003cb0764acb871951d1cd499990600090a250565b828054620001df90620002b6565b90600052602060002090601f0160209004810192826200020357600085556200024e565b82601f106200021e57805160ff19168380011785556200024e565b828001600101855582156200024e579182015b828111156200024e57825182559160200191906001019062000231565b506200025c92915062000260565b5090565b5b808211156200025c576000815560010162000261565b600080604083850312156200028b57600080fd5b825160208401519092506001600160a01b0381168114620002ab57600080fd5b809150509250929050565b600181811c90821680620002cb57607f821691505b60208210811415620002ed57634e487b7160e01b600052602260045260246000fd5b50919050565b60805160a0516117666200032060003960006101df0152600081816102c601526106a101526117666000f3fe608060405234801561001057600080fd5b506004361061012c5760003560e01c80637aeb642a116100ad578063d48a9d4311610071578063d48a9d4314610362578063f2fde38b14610375578063f48f8ac714610388578063f9bce3111461039b578063fece3dd4146103ae57600080fd5b80637aeb642a146102885780638da5cb5b146102b3578063afcb7752146102c4578063c23a5cea146102ea578063c3453153146102fd57600080fd5b806347116c6e116100f457806347116c6e146102325780634a1ce599146102475780634b0e72161461025a578063715018a61461026d5780637835d2961461027557600080fd5b806309a08af41461013157806314080fac1461014657806316934fc41461015957806320ffd56d146101dd57806338b39d291461020d575b600080fd5b61014461013f3660046114fd565b6103c1565b005b610144610154366004611560565b6105f5565b6101a46101673660046114a7565b6003602081905260009182526040909120805460018201546002830154938301546004909301549193909290916001600160a01b03918216911685565b604080519586526020860194909452928401919091526001600160a01b03908116606084015216608082015260a0015b60405180910390f35b7f00000000000000000000000000000000000000000000000000000000000000005b6040519081526020016101d4565b6002546001600160a01b03165b6040516001600160a01b0390911681526020016101d4565b61023a6108c3565b6040516101d491906115c2565b6101446102553660046114a7565b610951565b6101446102683660046114a7565b610a49565b610144610abd565b6101446102833660046114c4565b610af3565b6101ff6102963660046114c4565b600460209081526000928352604080842090915290825290205481565b6000546001600160a01b031661021a565b7f00000000000000000000000000000000000000000000000000000000000000006101ff565b6101446102f83660046114a7565b610b42565b61031061030b3660046114a7565b610caf565b60408051835181526020808501519082015283820151918101919091526060808401516001600160a01b03908116918301919091526080938401511692810192909252151560a082015260c0016101d4565b6101446103703660046114a7565b610d6a565b6101446103833660046114a7565b610dcf565b6101446103963660046114c4565b610e6a565b6101446103a93660046114a7565b610eb3565b6101446103bc3660046114a7565b610f14565b6001600160a01b03831660009081526004602090815260408083203384529091529020548061042c5760405162461bcd60e51b81526020600482015260126024820152711a1d58881b9bdd08185d5d1a1bdc9a5e995960721b60448201526064015b60405180910390fd5b42811161047b5760405162461bcd60e51b815260206004820152601960248201527f68756220617574686f72697a6174696f6e2065787069726564000000000000006044820152606401610423565b6001600160a01b0384166000908152600360205260409020548211156104db5760405162461bcd60e51b815260206004820152601560248201527470656e616c74792065786365656473207374616b6560581b6044820152606401610423565b6001600160a01b0384166000908152600360205260409020546104fe908361100d565b6001600160a01b038516600090815260036020526040812091909155610525836002611020565b90506000610533848361100d565b6002546001600160a01b038881166000908152600360208190526040909120015492935061056592811691168461102c565b6001600160a01b038087166000908152600360208190526040909120015461058f9116868361102c565b6001600160a01b038681166000818152600360208181526040928390209091015482519085168152908101859052928816927f2da6b6c9084d39eeb104d765e33a4e16c8762e01b37383b75202d17515d1b82b91015b60405180910390a3505050505050565b6001600160a01b038084166000908152600360205260409020600481015485921633146106345760405162461bcd60e51b81526004016104239061162a565b6001600160a01b03851660009081526003602052604090206001015484101561069f5760405162461bcd60e51b815260206004820181905260248201527f756e7374616b6544656c61792063616e6e6f74206265206465637265617365646044820152606401610423565b7f00000000000000000000000000000000000000000000000000000000000000008411156107065760405162461bcd60e51b8152602060048201526014602482015273756e7374616b6544656c617920746f6f2062696760601b6044820152606401610423565b6001600160a01b03861661075c5760405162461bcd60e51b815260206004820181905260248201527f6d7573742073706563696679207374616b6520746f6b656e20616464726573736044820152606401610423565b6001600160a01b03858116600090815260036020819052604090912001541615806107a757506001600160a01b03858116600090815260036020819052604090912001548116908716145b6107f35760405162461bcd60e51b815260206004820181905260248201527f7374616b6520746f6b656e206164647265737320697320696e636f72726563746044820152606401610423565b6108086001600160a01b038716333086611094565b6001600160a01b038581166000908152600360208190526040822090810180546001600160a01b031916938a169390931790925581548592919061084d90849061164d565b90915550506001600160a01b03858116600081815260036020818152604092839020600181018a905560048101549281015490548451918716825291810191909152918201889052909216917ff83af4359c42f5104d95351ec3dd5e88f5344bc7eaea8de052c9b0d5254808fc906060016105e5565b600180546108d0906116ca565b80601f01602080910402602001604051908101604052809291908181526020018280546108fc906116ca565b80156109495780601f1061091e57610100808354040283529160200191610949565b820191906000526020600020905b81548152906001019060200180831161092c57829003601f168201915b505050505081565b6001600160a01b038082166000908152600360205260409020600481015483921633146109905760405162461bcd60e51b81526004016104239061162a565b6001600160a01b03831660009081526003602052604090206002810154156109ec5760405162461bcd60e51b815260206004820152600f60248201526e616c72656164792070656e64696e6760881b6044820152606401610423565b60018101546109fc9042906110cc565b6002820181905560405190815233906001600160a01b038616907f9ffc6168de1eb7f1d16200f614753cd7edce5a2186aab1c612199dd7316cd7c49060200160405180910390a350505050565b6000546001600160a01b03163314610a735760405162461bcd60e51b8152600401610423906115f5565b600280546001600160a01b0319166001600160a01b0383169081179091556040517fb0d2ad16ddd4d3dd008ebff0b7e7699bbfa920003cb0764acb871951d1cd499990600090a250565b6000546001600160a01b03163314610ae75760405162461bcd60e51b8152600401610423906115f5565b610af160006110d8565b565b6001600160a01b03808316600090815260036020526040902060048101548492163314610b325760405162461bcd60e51b81526004016104239061162a565b610b3c8484611128565b50505050565b6001600160a01b03808216600090815260036020526040902060048101548392163314610b815760405162461bcd60e51b81526004016104239061162a565b6001600160a01b03831660009081526003602052604090206002810154610bea5760405162461bcd60e51b815260206004820152601b60248201527f5769746864726177616c206973206e6f74207363686564756c656400000000006044820152606401610423565b4281600201541115610c365760405162461bcd60e51b81526020600482015260156024820152745769746864726177616c206973206e6f742064756560581b6044820152606401610423565b8054600080835560028301556003820154610c5b906001600160a01b0316338361102c565b6003820154604080516001600160a01b0392831681526020810184905233928816917fddbbe0a4d722dc62b8a415c5e38b88260d0e7a4848cacc83f41fbee40f700168910160405180910390a35050505050565b610cf36040518060a0016040528060008152602001600081526020016000815260200160006001600160a01b0316815260200160006001600160a01b031681525090565b506001600160a01b039081166000818152600460208181526040808420338552825280842054948452600380835293819020815160a0810183528154815260018201549381019390935260028101549183019190915292830154851660608201529101549092166080830152909160001990911490565b33600090815260036020526040902060048101546001600160a01b0316610dc15760405162461bcd60e51b815260206004820152600b60248201526a3737ba1036b0b730b3b2b960a91b6044820152606401610423565b610dcb3383611128565b5050565b6000546001600160a01b03163314610df95760405162461bcd60e51b8152600401610423906115f5565b6001600160a01b038116610e5e5760405162461bcd60e51b815260206004820152602660248201527f4f776e61626c653a206e6577206f776e657220697320746865207a65726f206160448201526564647265737360d01b6064820152608401610423565b610e67816110d8565b50565b6001600160a01b03808316600090815260036020526040902060048101548492163314610ea95760405162461bcd60e51b81526004016104239061162a565b610b3c848461117f565b33600090815260036020526040902060048101546001600160a01b0316610f0a5760405162461bcd60e51b815260206004820152600b60248201526a3737ba1036b0b730b3b2b960a91b6044820152606401610423565b610dcb338361117f565b6001600160a01b038116610f5a5760405162461bcd60e51b815260206004820152600d60248201526c34b73b30b634b21037bbb732b960991b6044820152606401610423565b336000908152600360205260409020600401546001600160a01b031615610fb35760405162461bcd60e51b815260206004820152600d60248201526c185b1c9958591e481bdddb9959609a1b6044820152606401610423565b3360008181526003602052604080822060040180546001600160a01b0319166001600160a01b03861690811790915590519092917f342827c97908e5e2f71151c08502a66d44b6f758e3ac2f1de95f02eb95f0a73591a350565b60006110198284611687565b9392505050565b60006110198284611665565b6040516001600160a01b03831660248201526044810182905261108f90849063a9059cbb60e01b906064015b60408051601f198184030181529190526020810180516001600160e01b03166001600160e01b03199093169290921790915261125d565b505050565b6040516001600160a01b0380851660248301528316604482015260648101829052610b3c9085906323b872dd60e01b90608401611058565b6000611019828461164d565b600080546001600160a01b038381166001600160a01b0319831681178455604051919092169283917f8be0079c531659141344cd1fd0a4f28419497f9722a3daafe3b4186f6b6457e09190a35050565b6001600160a01b038083166000818152600460209081526040808320948616808452949091528082206000199055517fe292c4f6e9f34c975f4958cd5650a8111352feae914a67b064079571054210219190a35050565b6001600160a01b0380831660009081526004602090815260408083209385168352929052208054600019146111eb5760405162461bcd60e51b81526020600482015260126024820152711a1d58881b9bdd08185d5d1a1bdc9a5e995960721b6044820152606401610423565b6001600160a01b0383166000908152600360205260409020600101546112129042906110cc565b8082556040519081526001600160a01b0383811691908516907f8d941c9b73ba7e59671a59eed85054004624684182b0e4bdb56c35937bac65a69060200160405180910390a3505050565b60006112b2826040518060400160405280602081526020017f5361666545524332303a206c6f772d6c6576656c2063616c6c206661696c6564815250856001600160a01b031661132f9092919063ffffffff16565b80519091501561108f57808060200190518101906112d0919061153e565b61108f5760405162461bcd60e51b815260206004820152602a60248201527f5361666545524332303a204552433230206f7065726174696f6e20646964206e6044820152691bdd081cdd58d8d9595960b21b6064820152608401610423565b606061133e8484600085611346565b949350505050565b6060824710156113a75760405162461bcd60e51b815260206004820152602660248201527f416464726573733a20696e73756666696369656e742062616c616e636520666f6044820152651c8818d85b1b60d21b6064820152608401610423565b843b6113f55760405162461bcd60e51b815260206004820152601d60248201527f416464726573733a2063616c6c20746f206e6f6e2d636f6e74726163740000006044820152606401610423565b600080866001600160a01b0316858760405161141191906115a6565b60006040518083038185875af1925050503d806000811461144e576040519150601f19603f3d011682016040523d82523d6000602084013e611453565b606091505b509150915061146382828661146e565b979650505050505050565b6060831561147d575081611019565b82511561148d5782518084602001fd5b8160405162461bcd60e51b815260040161042391906115c2565b6000602082840312156114b957600080fd5b81356110198161171b565b600080604083850312156114d757600080fd5b82356114e28161171b565b915060208301356114f28161171b565b809150509250929050565b60008060006060848603121561151257600080fd5b833561151d8161171b565b9250602084013561152d8161171b565b929592945050506040919091013590565b60006020828403121561155057600080fd5b8151801515811461101957600080fd5b6000806000806080858703121561157657600080fd5b84356115818161171b565b935060208501356115918161171b565b93969395505050506040820135916060013590565b600082516115b881846020870161169e565b9190910192915050565b60208152600082518060208401526115e181604085016020870161169e565b601f01601f19169190910160400192915050565b6020808252818101527f4f776e61626c653a2063616c6c6572206973206e6f7420746865206f776e6572604082015260600190565b6020808252600990820152683737ba1037bbb732b960b91b604082015260600190565b6000821982111561166057611660611705565b500190565b60008261168257634e487b7160e01b600052601260045260246000fd5b500490565b60008282101561169957611699611705565b500390565b60005b838110156116b95781810151838201526020016116a1565b83811115610b3c5750506000910152565b600181811c908216806116de57607f821691505b602082108114156116ff57634e487b7160e01b600052602260045260246000fd5b50919050565b634e487b7160e01b600052601160045260246000fd5b6001600160a01b0381168114610e6757600080fdfea264697066735822122071e59ebe627c4b1103f81b0fb542dc3fcd710fee1cd2f234b020f951e015af6e64736f6c63430008070033332e302e302d616c7068612e332b6f70656e67736e2e7374616b656d616e616765722e697374616b656d616e61676572",
  "devdoc": {
    "kind": "dev",
    "methods": {
      "authorizeHubByOwner(address,address)": {
        "params": {
          "relayHub": "The address of a `RelayHub` to be authorized.",
          "relayManager": "The address of a Relay Manager whose stake is to be authorized for the new `RelayHub`."
        }
      },
      "getBurnAddress()": {
        "returns": {
          "_0": "The address that will receive the 'burned' part of the penalized stake."
        }
      },
      "getCreationBlock()": {
        "returns": {
          "_0": "the block number in which the contract has been deployed."
        }
      },
      "getMaxUnstakeDelay()": {
        "returns": {
          "_0": "The maximum unstake delay this `StakeManger` allows. This is to prevent locking money forever by mistake."
        }
      },
      "getStakeInfo(address)": {
        "params": {
          "relayManager": "The address of a Relay Manager."
        },
        "returns": {
          "isSenderAuthorizedHub": "`true` if the `msg.sender` for this call was a `RelayHub` that is authorized now. `false` if the `msg.sender` for this call is not authorized.",
          "stakeInfo": "The `StakeInfo` structure."
        }
      },
      "owner()": {
        "details": "Returns the address of the current owner."
      },
      "penalizeRelayManager(address,address,uint256)": {
        "params": {
          "amount": "A total amount of penalty to be withdrawn from stake.",
          "beneficiary": "The address that receives part of the penalty amount.",
          "relayManager": "The address of a Relay Manager to be penalized."
        }
      },
      "renounceOwnership()": {
        "details": "Leaves the contract without owner. It will not be possible to call `onlyOwner` functions anymore. Can only be called by the current owner. NOTE: Renouncing ownership will leave the contract without an owner, thereby removing any functionality that is only available to the owner."
      },
      "setRelayManagerOwner(address)": {
        "params": {
          "owner": "- owner of the relay (as configured off-chain)"
        }
      },
      "stakeForRelayManager(address,address,uint256,uint256)": {
        "params": {
          "amount": "The amount of tokens to be taken from the relayOwner and locked in the StakeManager as a stake",
          "relayManager": "The address that represents a stake entry and controls relay registrations on relay hubs",
          "token": "The address of an ERC-20 token that is used by the relayManager as a stake",
          "unstakeDelay": "The number of seconds to elapse before an owner can retrieve the stake after calling `unlock`"
        }
      },
      "transferOwnership(address)": {
        "details": "Transfers ownership of the contract to a new account (`newOwner`). Can only be called by the current owner."
      },
      "unauthorizeHubByOwner(address,address)": {
        "params": {
          "relayHub": "The address of a `RelayHub` to be unauthorized.",
          "relayManager": "The address of a Relay Manager."
        }
      },
      "unlockStake(address)": {
        "params": {
          "relayManager": "The address of a Relay Manager whose stake is to be unlocked."
        }
      },
      "withdrawStake(address)": {
        "params": {
          "relayManager": "The address of a Relay Manager whose stake is to be withdrawn."
        }
      }
    },
    "stateVariables": {
      "versionSM": {
        "return": "a SemVer-compliant version of the `StakeManager` contract.",
        "returns": {
          "_0": "a SemVer-compliant version of the `StakeManager` contract."
        }
      }
    },
    "title": "The StakeManager implementation",
    "version": 1
  },
  "userdoc": {
    "events": {
      "BurnAddressSet(address)": {
        "notice": "Emitted when a `burnAddress` is changed."
      },
      "HubAuthorized(address,address)": {
        "notice": "Emitted when a `relayManager` adds a new `RelayHub` to a list of authorized."
      },
      "HubUnauthorized(address,address,uint256)": {
        "notice": "Emitted when a `relayManager` removes a `RelayHub` from a list of authorized."
      },
      "OwnerSet(address,address)": {
        "notice": "Emitted when a `relayManager` sets its `owner`. This is necessary to prevent stake hijacking."
      },
      "StakeAdded(address,address,address,uint256,uint256)": {
        "notice": "Emitted when a `stake` or `unstakeDelay` are initialized or increased."
      },
      "StakePenalized(address,address,address,uint256)": {
        "notice": "Emitted when an authorized `RelayHub` penalizes a `relayManager`."
      },
      "StakeUnlocked(address,address,uint256)": {
        "notice": "Emitted once a stake is scheduled for withdrawal."
      },
      "StakeWithdrawn(address,address,address,uint256)": {
        "notice": "Emitted when owner withdraws `relayManager` funds."
      }
    },
    "kind": "user",
    "methods": {
      "authorizeHubByManager(address)": {
        "notice": "Same as `authorizeHubByOwner` but can be called by the RelayManager itself."
      },
      "authorizeHubByOwner(address,address)": {
        "notice": "Add the `RelayHub` to a list of authorized by this Relay Manager. This allows the RelayHub to penalize this Relay Manager. The `RelayHub` cannot trust a Relay it cannot penalize."
      },
      "authorizedHubs(address,address)": {
        "notice": "maps relay managers to a map of addressed of their authorized hubs to the information on that hub"
      },
      "getStakeInfo(address)": {
        "notice": "Get the stake details information for the given Relay Manager."
      },
      "penalizeRelayManager(address,address,uint256)": {
        "notice": "Slash the stake of the relay relayManager. In order to prevent stake kidnapping, burns part of stake on the way."
      },
      "setBurnAddress(address)": {
        "notice": "Change the address that will receive the 'burned' part of the penalized stake. This is done to prevent malicious Relay Server from penalizing itself and breaking even."
      },
      "setRelayManagerOwner(address)": {
        "notice": "Set the owner of a Relay Manager. Called only by the RelayManager itself. Note that owners cannot transfer ownership - if the entry already exists, reverts."
      },
      "stakeForRelayManager(address,address,uint256,uint256)": {
        "notice": "Put a stake for a relayManager and set its unstake delay. Only the owner can call this function. If the entry does not exist, reverts. The owner must give allowance of the ERC-20 token to the StakeManager before calling this method. It is the RelayHub who has a configurable list of minimum stakes per token. StakeManager accepts all tokens."
      },
      "stakes(address)": {
        "notice": "maps relay managers to their stakes"
      },
      "unauthorizeHubByManager(address)": {
        "notice": "Same as `unauthorizeHubByOwner` but can be called by the RelayManager itself."
      },
      "unauthorizeHubByOwner(address,address)": {
        "notice": "Remove the `RelayHub` from a list of authorized by this Relay Manager."
      },
      "unlockStake(address)": {
        "notice": "Schedule the unlocking of the stake. The `unstakeDelay` must pass before owner can call `withdrawStake`."
      },
      "withdrawStake(address)": {
        "notice": "Withdraw the unlocked stake."
      }
    },
    "notice": "An IStakeManager instance that accepts stakes in any ERC-20 token.Single StakeInfo of a single RelayManager can only have one token address assigned to it.It cannot be changed after the first time 'stakeForRelayManager' is called as it is equivalent to withdrawal.",
    "version": 1
  },
  "storageLayout": {
    "storage": [
      {
        "astId": 7,
        "contract": "contracts-link/StakeManager.sol:StakeManager",
        "label": "_owner",
        "offset": 0,
        "slot": "0",
        "type": "t_address"
      },
      {
        "astId": 5279,
        "contract": "contracts-link/StakeManager.sol:StakeManager",
        "label": "versionSM",
        "offset": 0,
        "slot": "1",
        "type": "t_string_storage"
      },
      {
        "astId": 5283,
        "contract": "contracts-link/StakeManager.sol:StakeManager",
        "label": "burnAddress",
        "offset": 0,
        "slot": "2",
        "type": "t_address"
      },
      {
        "astId": 5291,
        "contract": "contracts-link/StakeManager.sol:StakeManager",
        "label": "stakes",
        "offset": 0,
        "slot": "3",
        "type": "t_mapping(t_address,t_struct(StakeInfo)7655_storage)"
      },
      {
        "astId": 5372,
        "contract": "contracts-link/StakeManager.sol:StakeManager",
        "label": "authorizedHubs",
        "offset": 0,
        "slot": "4",
        "type": "t_mapping(t_address,t_mapping(t_address,t_struct(RelayHubInfo)7658_storage))"
      }
    ],
    "types": {
      "t_address": {
        "encoding": "inplace",
        "label": "address",
        "numberOfBytes": "20"
      },
      "t_contract(IERC20)731": {
        "encoding": "inplace",
        "label": "contract IERC20",
        "numberOfBytes": "20"
      },
      "t_mapping(t_address,t_mapping(t_address,t_struct(RelayHubInfo)7658_storage))": {
        "encoding": "mapping",
        "key": "t_address",
        "label": "mapping(address => mapping(address => struct IStakeManager.RelayHubInfo))",
        "numberOfBytes": "32",
        "value": "t_mapping(t_address,t_struct(RelayHubInfo)7658_storage)"
      },
      "t_mapping(t_address,t_struct(RelayHubInfo)7658_storage)": {
        "encoding": "mapping",
        "key": "t_address",
        "label": "mapping(address => struct IStakeManager.RelayHubInfo)",
        "numberOfBytes": "32",
        "value": "t_struct(RelayHubInfo)7658_storage"
      },
      "t_mapping(t_address,t_struct(StakeInfo)7655_storage)": {
        "encoding": "mapping",
        "key": "t_address",
        "label": "mapping(address => struct IStakeManager.StakeInfo)",
        "numberOfBytes": "32",
        "value": "t_struct(StakeInfo)7655_storage"
      },
      "t_string_storage": {
        "encoding": "bytes",
        "label": "string",
        "numberOfBytes": "32"
      },
      "t_struct(RelayHubInfo)7658_storage": {
        "encoding": "inplace",
        "label": "struct IStakeManager.RelayHubInfo",
        "members": [
          {
            "astId": 7657,
            "contract": "contracts-link/StakeManager.sol:StakeManager",
            "label": "removalTime",
            "offset": 0,
            "slot": "0",
            "type": "t_uint256"
          }
        ],
        "numberOfBytes": "32"
      },
      "t_struct(StakeInfo)7655_storage": {
        "encoding": "inplace",
        "label": "struct IStakeManager.StakeInfo",
        "members": [
          {
            "astId": 7645,
            "contract": "contracts-link/StakeManager.sol:StakeManager",
            "label": "stake",
            "offset": 0,
            "slot": "0",
            "type": "t_uint256"
          },
          {
            "astId": 7647,
            "contract": "contracts-link/StakeManager.sol:StakeManager",
            "label": "unstakeDelay",
            "offset": 0,
            "slot": "1",
            "type": "t_uint256"
          },
          {
            "astId": 7649,
            "contract": "contracts-link/StakeManager.sol:StakeManager",
            "label": "withdrawTime",
            "offset": 0,
            "slot": "2",
            "type": "t_uint256"
          },
          {
            "astId": 7652,
            "contract": "contracts-link/StakeManager.sol:StakeManager",
            "label": "token",
            "offset": 0,
            "slot": "3",
            "type": "t_contract(IERC20)731"
          },
          {
            "astId": 7654,
            "contract": "contracts-link/StakeManager.sol:StakeManager",
            "label": "owner",
            "offset": 0,
            "slot": "4",
            "type": "t_address"
          }
        ],
        "numberOfBytes": "160"
      },
      "t_uint256": {
        "encoding": "inplace",
        "label": "uint256",
        "numberOfBytes": "32"
      }
    }
  }
}