{
  "address": "0xBd34778D53B0C53797C744feC8aeA191f91e164F",
  "abi": [
    {
      "inputs": [
        {
          "internalType": "contract ArbSys",
          "name": "_arbsys",
          "type": "address"
        },
        {
          "internalType": "contract IStakeManager",
          "name": "_stakeManager",
          "type": "address"
        },
        {
          "internalType": "address",
          "name": "_penalizer",
          "type": "address"
        },
        {
          "internalType": "address",
          "name": "_batchGateway",
          "type": "address"
        },
        {
          "internalType": "address",
          "name": "_relayRegistrar",
          "type": "address"
        },
        {
          "components": [
            {
              "internalType": "uint256",
              "name": "maxWorkerCount",
              "type": "uint256"
            },
            {
              "internalType": "uint256",
              "name": "gasReserve",
              "type": "uint256"
            },
            {
              "internalType": "uint256",
              "name": "postOverhead",
              "type": "uint256"
            },
            {
              "internalType": "uint256",
              "name": "gasOverhead",
              "type": "uint256"
            },
            {
              "internalType": "uint256",
              "name": "minimumUnstakeDelay",
              "type": "uint256"
            },
            {
              "internalType": "address",
              "name": "devAddress",
              "type": "address"
            },
            {
              "internalType": "uint8",
              "name": "devFee",
              "type": "uint8"
            }
          ],
          "internalType": "struct IRelayHub.RelayHubConfig",
          "name": "_config",
          "type": "tuple"
        }
      ],
      "stateMutability": "nonpayable",
      "type": "constructor"
    },
    {
      "anonymous": false,
      "inputs": [
        {
          "indexed": true,
          "internalType": "address",
          "name": "paymaster",
          "type": "address"
        },
        {
          "indexed": true,
          "internalType": "address",
          "name": "from",
          "type": "address"
        },
        {
          "indexed": false,
          "internalType": "uint256",
          "name": "amount",
          "type": "uint256"
        }
      ],
      "name": "Deposited",
      "type": "event"
    },
    {
      "anonymous": false,
      "inputs": [
        {
          "indexed": false,
          "internalType": "uint256",
          "name": "deprecationTime",
          "type": "uint256"
        }
      ],
      "name": "HubDeprecated",
      "type": "event"
    },
    {
      "anonymous": false,
      "inputs": [
        {
          "indexed": true,
          "internalType": "address",
          "name": "previousOwner",
          "type": "address"
        },
        {
          "indexed": true,
          "internalType": "address",
          "name": "newOwner",
          "type": "address"
        }
      ],
      "name": "OwnershipTransferred",
      "type": "event"
    },
    {
      "anonymous": false,
      "inputs": [
        {
          "components": [
            {
              "internalType": "uint256",
              "name": "maxWorkerCount",
              "type": "uint256"
            },
            {
              "internalType": "uint256",
              "name": "gasReserve",
              "type": "uint256"
            },
            {
              "internalType": "uint256",
              "name": "postOverhead",
              "type": "uint256"
            },
            {
              "internalType": "uint256",
              "name": "gasOverhead",
              "type": "uint256"
            },
            {
              "internalType": "uint256",
              "name": "minimumUnstakeDelay",
              "type": "uint256"
            },
            {
              "internalType": "address",
              "name": "devAddress",
              "type": "address"
            },
            {
              "internalType": "uint8",
              "name": "devFee",
              "type": "uint8"
            }
          ],
          "indexed": false,
          "internalType": "struct IRelayHub.RelayHubConfig",
          "name": "config",
          "type": "tuple"
        }
      ],
      "name": "RelayHubConfigured",
      "type": "event"
    },
    {
      "anonymous": false,
      "inputs": [
        {
          "indexed": true,
          "internalType": "address",
          "name": "relayManager",
          "type": "address"
        },
        {
          "indexed": false,
          "internalType": "address[]",
          "name": "newRelayWorkers",
          "type": "address[]"
        },
        {
          "indexed": false,
          "internalType": "uint256",
          "name": "workersCount",
          "type": "uint256"
        }
      ],
      "name": "RelayWorkersAdded",
      "type": "event"
    },
    {
      "anonymous": false,
      "inputs": [
        {
          "indexed": false,
          "internalType": "address",
          "name": "token",
          "type": "address"
        },
        {
          "indexed": false,
          "internalType": "uint256",
          "name": "minimumStake",
          "type": "uint256"
        }
      ],
      "name": "StakingTokenDataChanged",
      "type": "event"
    },
    {
      "anonymous": false,
      "inputs": [
        {
          "indexed": true,
          "internalType": "address",
          "name": "relayManager",
          "type": "address"
        },
        {
          "indexed": true,
          "internalType": "address",
          "name": "paymaster",
          "type": "address"
        },
        {
          "indexed": true,
          "internalType": "bytes32",
          "name": "relayRequestID",
          "type": "bytes32"
        },
        {
          "indexed": false,
          "internalType": "address",
          "name": "from",
          "type": "address"
        },
        {
          "indexed": false,
          "internalType": "address",
          "name": "to",
          "type": "address"
        },
        {
          "indexed": false,
          "internalType": "address",
          "name": "relayWorker",
          "type": "address"
        },
        {
          "indexed": false,
          "internalType": "bytes4",
          "name": "selector",
          "type": "bytes4"
        },
        {
          "indexed": false,
          "internalType": "uint256",
          "name": "innerGasUsed",
          "type": "uint256"
        },
        {
          "indexed": false,
          "internalType": "bytes",
          "name": "reason",
          "type": "bytes"
        }
      ],
      "name": "TransactionRejectedByPaymaster",
      "type": "event"
    },
    {
      "anonymous": false,
      "inputs": [
        {
          "indexed": true,
          "internalType": "address",
          "name": "relayManager",
          "type": "address"
        },
        {
          "indexed": true,
          "internalType": "address",
          "name": "relayWorker",
          "type": "address"
        },
        {
          "indexed": true,
          "internalType": "bytes32",
          "name": "relayRequestID",
          "type": "bytes32"
        },
        {
          "indexed": false,
          "internalType": "address",
          "name": "from",
          "type": "address"
        },
        {
          "indexed": false,
          "internalType": "address",
          "name": "to",
          "type": "address"
        },
        {
          "indexed": false,
          "internalType": "address",
          "name": "paymaster",
          "type": "address"
        },
        {
          "indexed": false,
          "internalType": "bytes4",
          "name": "selector",
          "type": "bytes4"
        },
        {
          "indexed": false,
          "internalType": "enum IRelayHub.RelayCallStatus",
          "name": "status",
          "type": "uint8"
        },
        {
          "indexed": false,
          "internalType": "uint256",
          "name": "charge",
          "type": "uint256"
        }
      ],
      "name": "TransactionRelayed",
      "type": "event"
    },
    {
      "anonymous": false,
      "inputs": [
        {
          "indexed": false,
          "internalType": "enum IRelayHub.RelayCallStatus",
          "name": "status",
          "type": "uint8"
        },
        {
          "indexed": false,
          "internalType": "bytes",
          "name": "returnValue",
          "type": "bytes"
        }
      ],
      "name": "TransactionResult",
      "type": "event"
    },
    {
      "anonymous": false,
      "inputs": [
        {
          "indexed": true,
          "internalType": "address",
          "name": "account",
          "type": "address"
        },
        {
          "indexed": true,
          "internalType": "address",
          "name": "dest",
          "type": "address"
        },
        {
          "indexed": false,
          "internalType": "uint256",
          "name": "amount",
          "type": "uint256"
        }
      ],
      "name": "Withdrawn",
      "type": "event"
    },
    {
      "inputs": [
        {
          "internalType": "address[]",
          "name": "newRelayWorkers",
          "type": "address[]"
        }
      ],
      "name": "addRelayWorkers",
      "outputs": [],
      "stateMutability": "nonpayable",
      "type": "function"
    },
    {
      "inputs": [],
      "name": "aggregateGasleft",
      "outputs": [
        {
          "internalType": "uint256",
          "name": "",
          "type": "uint256"
        }
      ],
      "stateMutability": "view",
      "type": "function"
    },
    {
      "inputs": [],
      "name": "arbsys",
      "outputs": [
        {
          "internalType": "contract ArbSys",
          "name": "",
          "type": "address"
        }
      ],
      "stateMutability": "view",
      "type": "function"
    },
    {
      "inputs": [
        {
          "internalType": "address",
          "name": "target",
          "type": "address"
        }
      ],
      "name": "balanceOf",
      "outputs": [
        {
          "internalType": "uint256",
          "name": "",
          "type": "uint256"
        }
      ],
      "stateMutability": "view",
      "type": "function"
    },
    {
      "inputs": [
        {
          "internalType": "uint256",
          "name": "gasUsed",
          "type": "uint256"
        },
        {
          "components": [
            {
              "internalType": "uint256",
              "name": "maxFeePerGas",
              "type": "uint256"
            },
            {
              "internalType": "uint256",
              "name": "maxPriorityFeePerGas",
              "type": "uint256"
            },
            {
              "internalType": "uint256",
              "name": "pctRelayFee",
              "type": "uint256"
            },
            {
              "internalType": "uint256",
              "name": "baseRelayFee",
              "type": "uint256"
            },
            {
              "internalType": "uint256",
              "name": "transactionCalldataGasUsed",
              "type": "uint256"
            },
            {
              "internalType": "address",
              "name": "relayWorker",
              "type": "address"
            },
            {
              "internalType": "address",
              "name": "paymaster",
              "type": "address"
            },
            {
              "internalType": "address",
              "name": "forwarder",
              "type": "address"
            },
            {
              "internalType": "bytes",
              "name": "paymasterData",
              "type": "bytes"
            },
            {
              "internalType": "uint256",
              "name": "clientId",
              "type": "uint256"
            }
          ],
          "internalType": "struct GsnTypes.RelayData",
          "name": "relayData",
          "type": "tuple"
        }
      ],
      "name": "calculateCharge",
      "outputs": [
        {
          "internalType": "uint256",
          "name": "",
          "type": "uint256"
        }
      ],
      "stateMutability": "view",
      "type": "function"
    },
    {
      "inputs": [
        {
          "internalType": "uint256",
          "name": "charge",
          "type": "uint256"
        }
      ],
      "name": "calculateDevCharge",
      "outputs": [
        {
          "internalType": "uint256",
          "name": "",
          "type": "uint256"
        }
      ],
      "stateMutability": "view",
      "type": "function"
    },
    {
      "inputs": [
        {
          "internalType": "address",
          "name": "target",
          "type": "address"
        }
      ],
      "name": "depositFor",
      "outputs": [],
      "stateMutability": "payable",
      "type": "function"
    },
    {
      "inputs": [
        {
          "internalType": "uint256",
          "name": "_deprecationTime",
          "type": "uint256"
        }
      ],
      "name": "deprecateHub",
      "outputs": [],
      "stateMutability": "nonpayable",
      "type": "function"
    },
    {
      "inputs": [],
      "name": "getBatchGateway",
      "outputs": [
        {
          "internalType": "address",
          "name": "",
          "type": "address"
        }
      ],
      "stateMutability": "view",
      "type": "function"
    },
    {
      "inputs": [],
      "name": "getConfiguration",
      "outputs": [
        {
          "components": [
            {
              "internalType": "uint256",
              "name": "maxWorkerCount",
              "type": "uint256"
            },
            {
              "internalType": "uint256",
              "name": "gasReserve",
              "type": "uint256"
            },
            {
              "internalType": "uint256",
              "name": "postOverhead",
              "type": "uint256"
            },
            {
              "internalType": "uint256",
              "name": "gasOverhead",
              "type": "uint256"
            },
            {
              "internalType": "uint256",
              "name": "minimumUnstakeDelay",
              "type": "uint256"
            },
            {
              "internalType": "address",
              "name": "devAddress",
              "type": "address"
            },
            {
              "internalType": "uint8",
              "name": "devFee",
              "type": "uint8"
            }
          ],
          "internalType": "struct IRelayHub.RelayHubConfig",
          "name": "",
          "type": "tuple"
        }
      ],
      "stateMutability": "view",
      "type": "function"
    },
    {
      "inputs": [],
      "name": "getCreationBlock",
      "outputs": [
        {
          "internalType": "uint256",
          "name": "",
          "type": "uint256"
        }
      ],
      "stateMutability": "view",
      "type": "function"
    },
    {
      "inputs": [],
      "name": "getDeprecationTime",
      "outputs": [
        {
          "internalType": "uint256",
          "name": "",
          "type": "uint256"
        }
      ],
      "stateMutability": "view",
      "type": "function"
    },
    {
      "inputs": [],
      "name": "getL1CreationBlock",
      "outputs": [
        {
          "internalType": "uint256",
          "name": "",
          "type": "uint256"
        }
      ],
      "stateMutability": "view",
      "type": "function"
    },
    {
      "inputs": [
        {
          "internalType": "contract IERC20",
          "name": "token",
          "type": "address"
        }
      ],
      "name": "getMinimumStakePerToken",
      "outputs": [
        {
          "internalType": "uint256",
          "name": "",
          "type": "uint256"
        }
      ],
      "stateMutability": "view",
      "type": "function"
    },
    {
      "inputs": [],
      "name": "getPenalizer",
      "outputs": [
        {
          "internalType": "address",
          "name": "",
          "type": "address"
        }
      ],
      "stateMutability": "view",
      "type": "function"
    },
    {
      "inputs": [],
      "name": "getRelayRegistrar",
      "outputs": [
        {
          "internalType": "address",
          "name": "",
          "type": "address"
        }
      ],
      "stateMutability": "view",
      "type": "function"
    },
    {
      "inputs": [],
      "name": "getStakeManager",
      "outputs": [
        {
          "internalType": "contract IStakeManager",
          "name": "",
          "type": "address"
        }
      ],
      "stateMutability": "view",
      "type": "function"
    },
    {
      "inputs": [
        {
          "internalType": "address",
          "name": "manager",
          "type": "address"
        }
      ],
      "name": "getWorkerCount",
      "outputs": [
        {
          "internalType": "uint256",
          "name": "",
          "type": "uint256"
        }
      ],
      "stateMutability": "view",
      "type": "function"
    },
    {
      "inputs": [
        {
          "internalType": "address",
          "name": "worker",
          "type": "address"
        }
      ],
      "name": "getWorkerManager",
      "outputs": [
        {
          "internalType": "address",
          "name": "",
          "type": "address"
        }
      ],
      "stateMutability": "view",
      "type": "function"
    },
    {
      "inputs": [
        {
          "components": [
            {
              "components": [
                {
                  "internalType": "address",
                  "name": "from",
                  "type": "address"
                },
                {
                  "internalType": "address",
                  "name": "to",
                  "type": "address"
                },
                {
                  "internalType": "uint256",
                  "name": "value",
                  "type": "uint256"
                },
                {
                  "internalType": "uint256",
                  "name": "gas",
                  "type": "uint256"
                },
                {
                  "internalType": "uint256",
                  "name": "nonce",
                  "type": "uint256"
                },
                {
                  "internalType": "bytes",
                  "name": "data",
                  "type": "bytes"
                },
                {
                  "internalType": "uint256",
                  "name": "validUntilTime",
                  "type": "uint256"
                }
              ],
              "internalType": "struct IForwarder.ForwardRequest",
              "name": "request",
              "type": "tuple"
            },
            {
              "components": [
                {
                  "internalType": "uint256",
                  "name": "maxFeePerGas",
                  "type": "uint256"
                },
                {
                  "internalType": "uint256",
                  "name": "maxPriorityFeePerGas",
                  "type": "uint256"
                },
                {
                  "internalType": "uint256",
                  "name": "pctRelayFee",
                  "type": "uint256"
                },
                {
                  "internalType": "uint256",
                  "name": "baseRelayFee",
                  "type": "uint256"
                },
                {
                  "internalType": "uint256",
                  "name": "transactionCalldataGasUsed",
                  "type": "uint256"
                },
                {
                  "internalType": "address",
                  "name": "relayWorker",
                  "type": "address"
                },
                {
                  "internalType": "address",
                  "name": "paymaster",
                  "type": "address"
                },
                {
                  "internalType": "address",
                  "name": "forwarder",
                  "type": "address"
                },
                {
                  "internalType": "bytes",
                  "name": "paymasterData",
                  "type": "bytes"
                },
                {
                  "internalType": "uint256",
                  "name": "clientId",
                  "type": "uint256"
                }
              ],
              "internalType": "struct GsnTypes.RelayData",
              "name": "relayData",
              "type": "tuple"
            }
          ],
          "internalType": "struct GsnTypes.RelayRequest",
          "name": "relayRequest",
          "type": "tuple"
        },
        {
          "internalType": "bytes",
          "name": "signature",
          "type": "bytes"
        },
        {
          "internalType": "bytes",
          "name": "approvalData",
          "type": "bytes"
        },
        {
          "components": [
            {
              "internalType": "uint256",
              "name": "acceptanceBudget",
              "type": "uint256"
            },
            {
              "internalType": "uint256",
              "name": "preRelayedCallGasLimit",
              "type": "uint256"
            },
            {
              "internalType": "uint256",
              "name": "postRelayedCallGasLimit",
              "type": "uint256"
            },
            {
              "internalType": "uint256",
              "name": "calldataSizeLimit",
              "type": "uint256"
            }
          ],
          "internalType": "struct IPaymaster.GasAndDataLimits",
          "name": "gasAndDataLimits",
          "type": "tuple"
        },
        {
          "internalType": "uint256",
          "name": "totalInitialGas",
          "type": "uint256"
        },
        {
          "internalType": "uint256",
          "name": "maxPossibleGas",
          "type": "uint256"
        }
      ],
      "name": "innerRelayCall",
      "outputs": [
        {
          "internalType": "enum IRelayHub.RelayCallStatus",
          "name": "",
          "type": "uint8"
        },
        {
          "internalType": "bytes",
          "name": "",
          "type": "bytes"
        }
      ],
      "stateMutability": "nonpayable",
      "type": "function"
    },
    {
      "inputs": [],
      "name": "isDeprecated",
      "outputs": [
        {
          "internalType": "bool",
          "name": "",
          "type": "bool"
        }
      ],
      "stateMutability": "view",
      "type": "function"
    },
    {
      "inputs": [],
      "name": "owner",
      "outputs": [
        {
          "internalType": "address",
          "name": "",
          "type": "address"
        }
      ],
      "stateMutability": "view",
      "type": "function"
    },
    {
      "inputs": [
        {
          "internalType": "address",
          "name": "relayWorker",
          "type": "address"
        },
        {
          "internalType": "address payable",
          "name": "beneficiary",
          "type": "address"
        }
      ],
      "name": "penalize",
      "outputs": [],
      "stateMutability": "nonpayable",
      "type": "function"
    },
    {
      "inputs": [
        {
          "internalType": "uint256",
          "name": "maxAcceptanceBudget",
          "type": "uint256"
        },
        {
          "components": [
            {
              "components": [
                {
                  "internalType": "address",
                  "name": "from",
                  "type": "address"
                },
                {
                  "internalType": "address",
                  "name": "to",
                  "type": "address"
                },
                {
                  "internalType": "uint256",
                  "name": "value",
                  "type": "uint256"
                },
                {
                  "internalType": "uint256",
                  "name": "gas",
                  "type": "uint256"
                },
                {
                  "internalType": "uint256",
                  "name": "nonce",
                  "type": "uint256"
                },
                {
                  "internalType": "bytes",
                  "name": "data",
                  "type": "bytes"
                },
                {
                  "internalType": "uint256",
                  "name": "validUntilTime",
                  "type": "uint256"
                }
              ],
              "internalType": "struct IForwarder.ForwardRequest",
              "name": "request",
              "type": "tuple"
            },
            {
              "components": [
                {
                  "internalType": "uint256",
                  "name": "maxFeePerGas",
                  "type": "uint256"
                },
                {
                  "internalType": "uint256",
                  "name": "maxPriorityFeePerGas",
                  "type": "uint256"
                },
                {
                  "internalType": "uint256",
                  "name": "pctRelayFee",
                  "type": "uint256"
                },
                {
                  "internalType": "uint256",
                  "name": "baseRelayFee",
                  "type": "uint256"
                },
                {
                  "internalType": "uint256",
                  "name": "transactionCalldataGasUsed",
                  "type": "uint256"
                },
                {
                  "internalType": "address",
                  "name": "relayWorker",
                  "type": "address"
                },
                {
                  "internalType": "address",
                  "name": "paymaster",
                  "type": "address"
                },
                {
                  "internalType": "address",
                  "name": "forwarder",
                  "type": "address"
                },
                {
                  "internalType": "bytes",
                  "name": "paymasterData",
                  "type": "bytes"
                },
                {
                  "internalType": "uint256",
                  "name": "clientId",
                  "type": "uint256"
                }
              ],
              "internalType": "struct GsnTypes.RelayData",
              "name": "relayData",
              "type": "tuple"
            }
          ],
          "internalType": "struct GsnTypes.RelayRequest",
          "name": "relayRequest",
          "type": "tuple"
        },
        {
          "internalType": "bytes",
          "name": "signature",
          "type": "bytes"
        },
        {
          "internalType": "bytes",
          "name": "approvalData",
          "type": "bytes"
        }
      ],
      "name": "relayCall",
      "outputs": [
        {
          "internalType": "bool",
          "name": "paymasterAccepted",
          "type": "bool"
        },
        {
          "internalType": "bytes",
          "name": "returnValue",
          "type": "bytes"
        }
      ],
      "stateMutability": "nonpayable",
      "type": "function"
    },
    {
      "inputs": [],
      "name": "renounceOwnership",
      "outputs": [],
      "stateMutability": "nonpayable",
      "type": "function"
    },
    {
      "inputs": [
        {
          "components": [
            {
              "internalType": "uint256",
              "name": "maxWorkerCount",
              "type": "uint256"
            },
            {
              "internalType": "uint256",
              "name": "gasReserve",
              "type": "uint256"
            },
            {
              "internalType": "uint256",
              "name": "postOverhead",
              "type": "uint256"
            },
            {
              "internalType": "uint256",
              "name": "gasOverhead",
              "type": "uint256"
            },
            {
              "internalType": "uint256",
              "name": "minimumUnstakeDelay",
              "type": "uint256"
            },
            {
              "internalType": "address",
              "name": "devAddress",
              "type": "address"
            },
            {
              "internalType": "uint8",
              "name": "devFee",
              "type": "uint8"
            }
          ],
          "internalType": "struct IRelayHub.RelayHubConfig",
          "name": "_config",
          "type": "tuple"
        }
      ],
      "name": "setConfiguration",
      "outputs": [],
      "stateMutability": "nonpayable",
      "type": "function"
    },
    {
      "inputs": [
        {
          "internalType": "contract IERC20[]",
          "name": "token",
          "type": "address[]"
        },
        {
          "internalType": "uint256[]",
          "name": "minimumStake",
          "type": "uint256[]"
        }
      ],
      "name": "setMinimumStakes",
      "outputs": [],
      "stateMutability": "nonpayable",
      "type": "function"
    },
    {
      "inputs": [
        {
          "internalType": "bytes4",
          "name": "interfaceId",
          "type": "bytes4"
        }
      ],
      "name": "supportsInterface",
      "outputs": [
        {
          "internalType": "bool",
          "name": "",
          "type": "bool"
        }
      ],
      "stateMutability": "view",
      "type": "function"
    },
    {
      "inputs": [
        {
          "internalType": "address",
          "name": "newOwner",
          "type": "address"
        }
      ],
      "name": "transferOwnership",
      "outputs": [],
      "stateMutability": "nonpayable",
      "type": "function"
    },
    {
      "inputs": [
        {
          "internalType": "address",
          "name": "relayManager",
          "type": "address"
        }
      ],
      "name": "verifyCanRegister",
      "outputs": [],
      "stateMutability": "view",
      "type": "function"
    },
    {
      "inputs": [
        {
          "internalType": "address",
          "name": "relayManager",
          "type": "address"
        }
      ],
      "name": "verifyRelayManagerStaked",
      "outputs": [],
      "stateMutability": "view",
      "type": "function"
    },
    {
      "inputs": [],
      "name": "versionHub",
      "outputs": [
        {
          "internalType": "string",
          "name": "",
          "type": "string"
        }
      ],
      "stateMutability": "pure",
      "type": "function"
    },
    {
      "inputs": [
        {
          "internalType": "uint256",
          "name": "amount",
          "type": "uint256"
        },
        {
          "internalType": "address payable",
          "name": "dest",
          "type": "address"
        }
      ],
      "name": "withdraw",
      "outputs": [],
      "stateMutability": "nonpayable",
      "type": "function"
    }
  ],
  "transactionHash": "0x3d6d3ddcaa8a4e9cc4fbd08c8a4629f6817bdc5d952d7f78b1c172c6a458e2fd",
  "args": [
    "0x0000000000000000000000000000000000000064",
    "0xf4058b6b0c9cbF7Cf3AE5c6ABb9Da57Da3AdB7ab",
    "0x59FC283B190A1f8a960888FCA21323dC04AE288f",
    "0x0000000000000000000000000000000000000000",
    "0x098B6FE8d90C2178C0311fBA952c14f4Fa3031D6",
    {
      "gasOverhead": 1000000,
      "postOverhead": 0,
      "gasReserve": 100000,
      "maxWorkerCount": 10,
      "minimumUnstakeDelay": 15000,
      "devAddress": "0xeFEfeFEfeFeFEFEFEfefeFeFefEfEfEfeFEFEFEf",
      "devFee": 0
    }
  ],
  "numDeployments": 3,
  "solcInputHash": "ed54ecf1e58c2e0b82a21139c2bc4bdb",
  "bytecode": "0x610160604052600019600b553480156200001857600080fd5b50604051620045e2380380620045e28339810160408190526200003b9162000316565b84848484846200004b336200012e565b43610100526001600160601b0319606086811b821660805285811b821660a05284811b821660c05283901b1660e05262000085816200017e565b5050505050856001600160a01b0316610120816001600160a01b031660601b81525050856001600160a01b031663a3b1b31d6040518163ffffffff1660e01b815260040160206040518083038186803b158015620000e257600080fd5b505afa158015620000f7573d6000803e3d6000fd5b505050506040513d601f19601f820116820180604052508101906200011d91906200043e565b610140525062000471945050505050565b600080546001600160a01b038381166001600160a01b0319831681178455604051919092169283917f8be0079c531659141344cd1fd0a4f28419497f9722a3daafe3b4186f6b6457e09190a35050565b6000546001600160a01b03163314620001de5760405162461bcd60e51b815260206004820181905260248201527f4f776e61626c653a2063616c6c6572206973206e6f7420746865206f776e657260448201526064015b60405180910390fd5b60648160c0015160ff16106200022a5760405162461bcd60e51b815260206004820152601060248201526f0c8caec40cccaca40e8dede40d0d2ced60831b6044820152606401620001d5565b80516001819055602080830151600281905560408085015160038190556060808701516004819055608080890151600581905560a0808b01516006805460c0808f01516001600160a01b039485166001600160a81b031990931692909217600160a01b60ff9384160217928390558a519d8e529b8d019a909a52978b019690965293890192909252870152908216858201521c16908201527ffd0fe4fa2d954b682752f887632a7d7edc955bc7691dba63ff3fa867cf7895f59060e00160405180910390a150565b8051620002ff8162000458565b919050565b805160ff81168114620002ff57600080fd5b6000806000806000808688036101808112156200033257600080fd5b87516200033f8162000458565b6020890151909750620003528162000458565b6040890151909650620003658162000458565b6060890151909550620003788162000458565b60808901519094506200038b8162000458565b925060e0609f1982011215620003a057600080fd5b5060405160e081016001600160401b0381118282101715620003d257634e487b7160e01b600052604160045260246000fd5b806040525060a0880151815260c0880151602082015260e0880151604082015261010088015160608201526101208801516080820152620004176101408901620002f2565b60a08201526200042b610160890162000304565b60c0820152809150509295509295509295565b6000602082840312156200045157600080fd5b5051919050565b6001600160a01b03811681146200046e57600080fd5b50565b60805160601c60a05160601c60c05160601c60e05160601c610100516101205160601c610140516140dd6200050560003960006102580152600081816104db01526108d001526000610598015260006102bf01526000818161071c015261165701526000818161041901526120fd0152600081816105e301528181611e6e015281816121db01526122d501526140dd6000f3fe6080604052600436106101ed5760003560e01c8063a51c8cb91161010d578063ca76fe78116100a0578063e6e22e121161006f578063e6e22e12146106ad578063ebcd31ac146106cd578063f2fde38b146106ed578063f7908a741461070d578063f8ba1e981461074057600080fd5b8063ca76fe7814610607578063d17da3e814610627578063d904c73214610655578063ddf737891461067757600080fd5b8063c2da0786116100dc578063c2da078614610569578063c5c98a1a14610589578063c7178230146105bc578063ca64f9e7146105d457600080fd5b8063a51c8cb9146104c9578063aa67c919146104fd578063af595dfc14610510578063be7c76ad1461053057600080fd5b80636bd50cef116101855780638a09fb56116101545780638a09fb561461043d5780638ac3b8451461045d5780638da5cb5b1461047d5780639b199b861461049b57600080fd5b80636bd50cef1461034d57806370a08231146103bf578063715018a6146103f557806375dc7b4e1461040a57600080fd5b806345bdade7116101c157806345bdade71461029b57806351d85156146102b057806359c4afc0146102f757806368738b471461032d57600080fd5b8062f714ce146101f257806301ffc9a71461021457806320ffd56d146102495780633c16e59a14610286575b600080fd5b3480156101fe57600080fd5b5061021261020d366004613629565b610760565b005b34801561022057600080fd5b5061023461022f36600461330b565b610879565b60405190151581526020015b60405180910390f35b34801561025557600080fd5b507f00000000000000000000000000000000000000000000000000000000000000005b604051908152602001610240565b34801561029257600080fd5b50600b54610278565b3480156102a757600080fd5b506102786108cb565b3480156102bc57600080fd5b507f00000000000000000000000000000000000000000000000000000000000000005b6040516001600160a01b039091168152602001610240565b34801561030357600080fd5b5061027861031236600461311b565b6001600160a01b031660009081526009602052604090205490565b34801561033957600080fd5b5061027861034836600461364e565b61096e565b34801561035957600080fd5b506103626109ea565b6040516102409190815181526020808301519082015260408083015190820152606080830151908201526080808301519082015260a0808301516001600160a01b03169082015260c09182015160ff169181019190915260e00190565b3480156103cb57600080fd5b506102786103da36600461311b565b6001600160a01b03166000908152600a602052604090205490565b34801561040157600080fd5b50610212610a8c565b34801561041657600080fd5b507f00000000000000000000000000000000000000000000000000000000000000006102df565b34801561044957600080fd5b506102126104583660046131e5565b610ac2565b34801561046957600080fd5b506102786104783660046135f7565b610c3b565b34801561048957600080fd5b506000546001600160a01b03166102df565b3480156104a757600080fd5b506104bb6104b636600461349e565b610c70565b604051610240929190613b7d565b3480156104d557600080fd5b506102df7f000000000000000000000000000000000000000000000000000000000000000081565b61021261050b36600461311b565b6110ae565b34801561051c57600080fd5b5061021261052b3660046135f7565b61118e565b34801561053c57600080fd5b506102df61054b36600461311b565b6001600160a01b039081166000908152600860205260409020541690565b34801561057557600080fd5b50610212610584366004613171565b61123a565b34801561059557600080fd5b507f0000000000000000000000000000000000000000000000000000000000000000610278565b3480156105c857600080fd5b50600b54421015610234565b3480156105e057600080fd5b507f00000000000000000000000000000000000000000000000000000000000000006102df565b34801561061357600080fd5b50610212610622366004613425565b61141d565b34801561063357600080fd5b50610647610642366004613691565b611553565b604051610240929190613b24565b34801561066157600080fd5b5061066a611e2a565b6040516102409190613b9d565b34801561068357600080fd5b5061027861069236600461311b565b6001600160a01b031660009081526007602052604090205490565b3480156106b957600080fd5b506102126106c836600461311b565b611e4a565b3480156106d957600080fd5b506102126106e8366004613138565b6120f2565b3480156106f957600080fd5b5061021261070836600461311b565b612339565b34801561071957600080fd5b507f00000000000000000000000000000000000000000000000000000000000000006102df565b34801561074c57600080fd5b5061021261075b36600461311b565b6123d4565b336000818152600a60205260409020548311156107b95760405162461bcd60e51b8152602060048201526012602482015271696e73756666696369656e742066756e647360701b60448201526064015b60405180910390fd5b6001600160a01b0381166000908152600a60205260409020546107dc9084612435565b6001600160a01b038083166000908152600a60205260408082209390935591519084169185156108fc02918691818181858888f19350505050158015610826573d6000803e3d6000fd5b50816001600160a01b0316816001600160a01b03167fd1c19fbcd4551a5edfb66d43d2e337c04837afda3482b42bdf569a8fccdae5fb8560405161086c91815260200190565b60405180910390a3505050565b60006001600160e01b03198216630fae7cbb60e21b14806108aa57506001600160e01b03198216630704183b60e11b145b806108c557506301ffc9a760e01b6001600160e01b03198316145b92915050565b60005a7f00000000000000000000000000000000000000000000000000000000000000006001600160a01b031663a94597ff6040518163ffffffff1660e01b815260040160206040518083038186803b15801561092757600080fd5b505afa15801561093b573d6000803e3d6000fd5b505050506040513d601f19601f8201168201806040525081019061095f9190613610565b6109699190613e3a565b905090565b60008082356020840135141561098657506000610989565b50485b60006109a584356109a03a81602089013587613e3a565b612448565b90506109e16109d660646109d06109c060408901358361245e565b6109ca8a8761246a565b9061246a565b90612476565b60608601359061245e565b95945050505050565b610a366040518060e00160405280600081526020016000815260200160008152602001600081526020016000815260200160006001600160a01b03168152602001600060ff1681525090565b506040805160e0810182526001548152600254602082015260035491810191909152600454606082015260055460808201526006546001600160a01b03811660a0830152600160a01b900460ff1660c082015290565b6000546001600160a01b03163314610ab65760405162461bcd60e51b81526004016107b090613bb0565b610ac06000612482565b565b6000546001600160a01b03163314610aec5760405162461bcd60e51b81526004016107b090613bb0565b8051825114610b3d5760405162461bcd60e51b815260206004820152601e60248201527f7365744d696e696d756d5374616b65733a2077726f6e67206c656e677468000060448201526064016107b0565b60005b8251811015610c3657818181518110610b5b57610b5b613f1d565b602002602001015160076000858481518110610b7957610b79613f1d565b60200260200101516001600160a01b03166001600160a01b03168152602001908152602001600020819055507ffb7510fe755f485459ee8ed619d4a0addc092c230ff47e760a62aeba78ebb9e3838281518110610bd857610bd8613f1d565b6020026020010151838381518110610bf257610bf2613f1d565b6020026020010151604051610c1c9291906001600160a01b03929092168252602082015260400190565b60405180910390a180610c2e81613ed6565b915050610b40565b505050565b600654600090600160a01b900460ff16610c5757506000919050565b600654606490600160a01b900460ff1683020492915050565b60006060610cca604051806101200160405280600081526020016000815260200160008152602001600080191681526020016000151581526020016060815260200160608152602001606081526020016000151581525090565b610cd26108cb565b81525a610cdf9086613e93565b6020820152333014610d335760405162461bcd60e51b815260206004820152601a60248201527f4d7573742062652063616c6c65642062792052656c617948756200000000000060448201526064016107b0565b600a6000610d4460208e018e613d63565b610d559060e081019060c00161311b565b6001600160a01b03168152602081019190915260409081016000205482820152516386bf413f60e01b90610d97908d908d908d908d908d908b90602401613cb8565b60408051601f19818403018152919052602080820180516001600160e01b03166001600160e01b03199094169390931790925260e0830152600090606090610de1908e018e613d63565b610df29060e081019060c00161311b565b6001600160a01b031688602001358460e00151604051610e12919061394a565b60006040518083038160008787f1925050503d8060008114610e50576040519150601f19603f3d011682016040523d82523d6000602084013e610e55565b606091505b50909250905081610e7457610e69816124d2565b610e746002826124de565b80806020019051810190610e889190613335565b151561010085015260c08401525060009050610ea58c8c8c612517565b60a085015215156080840152905080610ec757610ec760038360a001516124de565b8161010001518015610edb57508160800151155b15610eef57610eef60048360a001516124de565b5063edb7bf1360e01b8160c001518260800151610f0a6108cb565b8451610f169190613e93565b8460200151610f259190613e3a565b8e8060200190610f359190613d63565b604051602401610f489493929190613b3f565b60408051601f19818403018152919052602080820180516001600160e01b03166001600160e01b03199094169390931790925260e08301526000908190610f91908e018e613d63565b610fa29060e081019060c00161311b565b6001600160a01b031688604001358460e00151604051610fc2919061394a565b60006040518083038160008787f1925050503d8060008114611000576040519150601f19603f3d011682016040523d82523d6000602084013e611005565b606091505b50915091508161101a5761101a6005826124de565b50506040810151600a600061103260208f018f613d63565b6110439060e081019060c00161311b565b6001600160a01b03166001600160a01b03168152602001908152602001600020541015611084576110846006604051806020016040528060008152506124de565b8060800151611094576001611097565b60005b8160a0015192509250509850989650505050505050565b6110c86001600160a01b03821663fce78fd160e01b6126fe565b6111145760405162461bcd60e51b815260206004820181905260248201527f746172676574206973206e6f7420612076616c696420495061796d617374657260448201526064016107b0565b6001600160a01b0381166000908152600a60205260409020543490611139908261245e565b6001600160a01b0383166000818152600a6020908152604091829020939093555183815233927f8752a472e571a816aea92eec8dae9baf628e840f4929fbcc2d155e6233ff68a7910160405180910390a35050565b6000546001600160a01b031633146111b85760405162461bcd60e51b81526004016107b090613bb0565b600b5442106111fe5760405162461bcd60e51b8152602060048201526012602482015271105b1c9958591e4819195c1c9958d85d195960721b60448201526064016107b0565b600b8190556040518181527f1c0aa0c666483fbf0cf795d9d646ea3552d1e3008162ba9ab1d6d6dfd8c6ec6b906020015b60405180910390a150565b33600081815260096020526040812054611255908490613e3a565b6001600160a01b03831660009081526009602052604090208190556001549091508111156112b85760405162461bcd60e51b815260206004820152601060248201526f746f6f206d616e7920776f726b65727360801b60448201526064016107b0565b6112c182611e4a565b60005b838110156113d15760006008818787858181106112e3576112e3613f1d565b90506020020160208101906112f8919061311b565b6001600160a01b03908116825260208201929092526040016000205416146113625760405162461bcd60e51b815260206004820152601960248201527f7468697320776f726b6572206861732061206d616e616765720000000000000060448201526064016107b0565b826008600087878581811061137957611379613f1d565b905060200201602081019061138e919061311b565b6001600160a01b039081168252602082019290925260400160002080546001600160a01b03191692909116919091179055806113c981613ed6565b9150506112c4565b50816001600160a01b03167febf4a9bffb39f7c5dbf3f65540183b9381ae226ac3d0a45b4cad484713bd4a2885858460405161140f93929190613ace565b60405180910390a250505050565b6000546001600160a01b031633146114475760405162461bcd60e51b81526004016107b090613bb0565b60648160c0015160ff16106114915760405162461bcd60e51b815260206004820152601060248201526f0c8caec40cccaca40e8dede40d0d2ced60831b60448201526064016107b0565b80516001819055602080830151600281905560408085015160038190556060808701516004819055608080890151600581905560a0808b01516006805460c0808f01516001600160a01b039485166001600160a81b031990931692909217600160a01b60ff9384160217928390558a519d8e529b8d019a909a52978b019690965293890192909252870152908216858201521c16908201527ffd0fe4fa2d954b682752f887632a7d7edc955bc7691dba63ff3fa867cf7895f59060e00161122f565b6000606061155f612f22565b6115676108cb565b604082015261157788888861271a565b610180820152600b5442106115bf5760405162461bcd60e51b815260206004820152600e60248201526d1a1d588819195c1c9958d85d195960921b60448201526064016107b0565b60046115cb8980613d4d565b6115d99060a0810190613d07565b905010156115e857600061163d565b61163d6115f58980613d4d565b6116039060a0810190613d07565b8080601f01602080910402602001604051908101604052809392919081815260200183838082843760009201829052509250612776915050565b6001600160e01b0319166020820152336001600160a01b037f0000000000000000000000000000000000000000000000000000000000000000161461178b57856116c95760405162461bcd60e51b815260206004820181905260248201527f6d697373696e67207369676e6174757265206f7220626164206761746577617960448201526064016107b0565b3332146117185760405162461bcd60e51b815260206004820152601860248201527f72656c617920776f726b6572206d75737420626520454f41000000000000000060448201526064016107b0565b6117256020890189613d63565b6117369060c081019060a00161311b565b6001600160a01b0316336001600160a01b03161461178b5760405162461bcd60e51b81526020600482015260126024820152712737ba1030903934b3b43a103bb7b935b2b960711b60448201526064016107b0565b6008600061179c60208b018b613d63565b6117ad9060c081019060a00161311b565b6001600160a01b0390811682526020820192909252604001600020541661016082018190526118155760405162461bcd60e51b81526020600482015260146024820152732ab735b737bbb7103932b630bc903bb7b935b2b960611b60448201526064016107b0565b611823816101600151611e4a565b611832898983604001516127e6565b61010083015260a082015261184a8888888888612a70565b60025460009060405a61185e90603f613e74565b6118689190613e52565b6118729190613e93565b905061187c6108cb565b6101208301526003546004546040840151600092919084906118a160208f018f613d63565b608001356118af9190613e3a565b6118b99190613e3a565b6118c39190613e3a565b6118cd9190613e3a565b9050600080306001600160a01b031684639b199b8660e01b8e8e8e8e8e8c60a001516118f76108cb565b611901908d613e93565b8e610100015160405160240161191e989796959493929190613c38565b60408051601f198184030181529181526020820180516001600160e01b03166001600160e01b031990941693909317909252905161195c919061394a565b60006040518083038160008787f1925050503d806000811461199a576040519150601f19603f3d011682016040523d82523d6000602084013e61199f565b606091505b50811515875290925090506119b26108cb565b8561012001516119c29190613e93565b60e086015280516119dc9082016020908101908301613382565b8660c001876080018290528260068111156119f9576119f9613f07565b6006811115611a0a57611a0a613f07565b9052505060808501515115611a5b577fa1478a4242848419db824250a0dddc645dca0d6a9b12ab1fd79b00145a0ba98e8560c001518660800151604051611a52929190613b7d565b60405180910390a15b505050508060000151611bbb5760028160c001516006811115611a8057611a80613f07565b1480611aee5750611aa7611a9760208a018a613d63565b60a083015151906080013561245e565b8160e0015111158015611aee575060038160c001516006811115611acd57611acd613f07565b1480611aee575060048160c001516006811115611aec57611aec613f07565b145b15611bbb5761018081015160009350611b0a60208a018a613d63565b611b1b9060e081019060c00161311b565b6101608301516001600160a01b0391821691167f0c47510cb900901afca7c9e926892582a36fd3bb7f908142ccf0fb4382a2b684611b598c80613d4d565b611b6790602081019061311b565b611b718d80613d4d565b611b8290604081019060200161311b565b3387602001518860e001518960800151604051611ba496959493929190613a4f565b60405180910390a460800151600092509050611e1f565b600454600090611bc96108cb565b8360400151611bd89190613e93565b611be560208c018c613d63565b60800135611bf39190613e3a565b611bfd9190613e3a565b90506000611c128261034860208d018d613d63565b90506000611c1f82610c3b565b9050611c6a82600a60008e8060200190611c399190613d63565b611c4a9060e081019060c00161311b565b6001600160a01b0316815260208101919091526040016000205490612435565b600a6000611c7b60208f018f613d63565b611c8c9060e081019060c00161311b565b6001600160a01b03168152602081019190915260400160002055611cd7611cb38383612435565b6101608601516001600160a01b03166000908152600a60205260409020549061245e565b6101608501516001600160a01b03166000908152600a60205260409020558015611d3c576006546001600160a01b03166000908152600a6020526040902054611d20908261245e565b6006546001600160a01b03166000908152600a60205260409020555b6000611d488c80613d4d565b611d5690602081019061311b565b90506000611d648d80613d4d565b611d7590604081019060200161311b565b90506000611d8660208f018f613d63565b611d979060e081019060c00161311b565b9050866101800151336001600160a01b03168861016001516001600160a01b03167fd51ac07012398c2059ec53c6005fa8639657917bd2dbd72bc489a3c0eaaa7f168686868d602001518e60c001518d604051611df996959493929190613a01565b60405180910390a450505060016040518060200160405280600081525095509550505050505b965096945050505050565b606060405180606001604052806026815260200161408260269139905090565b60405163c345315360e01b81526001600160a01b03828116600483015260009182917f0000000000000000000000000000000000000000000000000000000000000000169063c34531539060240160c06040518083038186803b158015611eb057600080fd5b505afa158015611ec4573d6000803e3d6000fd5b505050506040513d601f19601f82011682018060405250810190611ee89190613561565b6060820180516001600160a01b0390811660009081526007602052604090205491519395509193509116611f595760405162461bcd60e51b81526020600482015260186024820152771c995b185e481b585b9859d95c881b9bdd081cdd185ad95960421b60448201526064016107b0565b8251811115611faa5760405162461bcd60e51b815260206004820152601960248201527f7374616b6520616d6f756e7420697320746f6f20736d616c6c0000000000000060448201526064016107b0565b80611ff75760405162461bcd60e51b815260206004820152601f60248201527f7374616b696e67207468697320746f6b656e20697320666f7262696464656e0060448201526064016107b0565b6005546020840151101561204d5760405162461bcd60e51b815260206004820152601a60248201527f756e7374616b652064656c617920697320746f6f20736d616c6c00000000000060448201526064016107b0565b60408301511561209f5760405162461bcd60e51b815260206004820152601860248201527f7374616b6520686173206265656e2077697468647261776e000000000000000060448201526064016107b0565b816120ec5760405162461bcd60e51b815260206004820181905260248201527f7468697320687562206973206e6f7420617574686f72697a656420627920534d60448201526064016107b0565b50505050565b336001600160a01b037f0000000000000000000000000000000000000000000000000000000000000000161461215a5760405162461bcd60e51b815260206004820152600d60248201526c2737ba103832b730b634bd32b960991b60448201526064016107b0565b6001600160a01b0380831660009081526008602052604090205416806121b95760405162461bcd60e51b81526020600482015260146024820152732ab735b737bbb7103932b630bc903bb7b935b2b960611b60448201526064016107b0565b60405163c345315360e01b81526001600160a01b0382811660048301526000917f00000000000000000000000000000000000000000000000000000000000000009091169063c34531539060240160c06040518083038186803b15801561221f57600080fd5b505afa158015612233573d6000803e3d6000fd5b505050506040513d601f19601f820116820180604052508101906122579190613561565b5080519091506122a45760405162461bcd60e51b81526020600482015260186024820152771c995b185e481b585b9859d95c881b9bdd081cdd185ad95960421b60448201526064016107b0565b805160405163026822bd60e21b81526001600160a01b038481166004830152858116602483015260448201929092527f0000000000000000000000000000000000000000000000000000000000000000909116906309a08af490606401600060405180830381600087803b15801561231b57600080fd5b505af115801561232f573d6000803e3d6000fd5b5050505050505050565b6000546001600160a01b031633146123635760405162461bcd60e51b81526004016107b090613bb0565b6001600160a01b0381166123c85760405162461bcd60e51b815260206004820152602660248201527f4f776e61626c653a206e6577206f776e657220697320746865207a65726f206160448201526564647265737360d01b60648201526084016107b0565b6123d181612482565b50565b6123dd81611e4a565b6001600160a01b0381166000908152600960205260409020546123d15760405162461bcd60e51b815260206004820152601060248201526f6e6f2072656c617920776f726b65727360801b60448201526064016107b0565b60006124418284613e93565b9392505050565b60008183106124575781612441565b5090919050565b60006124418284613e3a565b60006124418284613e74565b60006124418284613e52565b600080546001600160a01b038381166001600160a01b0319831681178455604051919092169283917f8be0079c531659141344cd1fd0a4f28419497f9722a3daafe3b4186f6b6457e09190a35050565b6123d181610400612b90565b600082826040516020016124f3929190613b7d565b604051602081830303815290604052905061250d816124d2565b8051602082018181fd5b6000806060600061252787612ba1565b9050600061255261253b60208a018a613d63565b61254d9061010081019060e00161311b565b612be0565b90506125616020890189613d63565b6125739061010081019060e00161311b565b6001600160a01b031663e024dc7f60e01b61258e8a80613d4d565b836040518060400160405280600c81526020016b14995b185e54995c5d595cdd60a21b8152506040518060a0016040528060618152602001613f5f6061913960405180610100016040528060c28152602001613fc060c291396040516020016125f791906139c5565b60408051601f1981840301815290829052612616939291602001613966565b60405160208183030381529060405280519060200120868c8c60405160240161264496959493929190613be5565b60408051601f198184030181529181526020820180516001600160e01b03166001600160e01b0319909416939093179092529051612682919061394a565b6000604051808303816000865af19150503d80600081146126bf576040519150601f19603f3d011682016040523d82523d6000602084013e6126c4565b606091505b50909550925084156126ea57828060200190518101906126e491906132c8565b90945092505b6126f3836124d2565b505093509350939050565b600061270983612c59565b801561244157506124418383612c8c565b60006127268480613d4d565b61273490602081019061311b565b61273e8580613d4d565b6080013584846040516020016127579493929190613aa6565b6040516020818303038152906040528051906020012090509392505050565b6000612783826004613e3a565b835110156127d35760405162461bcd60e51b815260206004820152601a60248201527f726561644279746573343a206461746120746f6f2073686f727400000000000060448201526064016107b0565b5001602001516001600160e01b03191690565b6128116040518060800160405280600081526020016000815260200160008152602001600081525090565b60006128206020850185613d63565b6128319060e081019060c00161311b565b6001600160a01b031663b039a88f61c3506040518263ffffffff1660e01b815260040160806040518083038187803b15801561286c57600080fd5b5086fa158015612880573d6000803e3d6000fd5b50505050506040513d601f19601f820116820180604052508101906128a591906133c0565b60608101519092503611156128fc5760405162461bcd60e51b815260206004820152601760248201527f6d73672e64617461206578636565646564206c696d697400000000000000000060448201526064016107b0565b815185101561294d5760405162461bcd60e51b815260206004820152601a60248201527f616363657074616e63652062756467657420746f6f206869676800000000000060448201526064016107b0565b6020820151825110156129a25760405162461bcd60e51b815260206004820152601960248201527f616363657074616e63652062756467657420746f6f206c6f770000000000000060448201526064016107b0565b826129b06020860186613d63565b608001356129be9190613e3a565b905060006129d3826103486020880188613d63565b9050600a60006129e66020880188613d63565b6129f79060e081019060c00161311b565b6001600160a01b03166001600160a01b0316815260200190815260200160002054811115612a675760405162461bcd60e51b815260206004820152601960248201527f5061796d61737465722062616c616e636520746f6f206c6f770000000000000060448201526064016107b0565b50935093915050565b6000612a96612a826020880188613d63565b612a9190610100810190613d07565b612d75565b612ab1612aa38880613d4d565b612a919060a0810190613d07565b612abb8585612d75565b612ac58888612d75565b612ad1906102e4613e3a565b612adb9190613e3a565b612ae59190613e3a565b612aef9190613e3a565b90506041841115612b425760405162461bcd60e51b815260206004820152601860248201527f696e76616c6964207369676e6174757265206c656e677468000000000000000060448201526064016107b0565b368114612b885760405162461bcd60e51b81526020600482015260146024820152736578747261206d73672e6461746120627974657360601b60448201526064016107b0565b505050505050565b8082511115612b9d578082525b5050565b6060612bb8612bb36020840184613d63565b612d9b565b604051602001612bca91815260200190565b6040516020818303038152906040529050919050565b6040805160c0810182526017608082019081527f47534e2052656c61796564205472616e73616374696f6e00000000000000000060a083015281528151808301835260018152601960f91b6020808301919091528201526000916108c591908101468152602001846001600160a01b0316815250612ea2565b6000612c6c826301ffc9a760e01b612c8c565b80156108c55750612c85826001600160e01b0319612c8c565b1592915050565b604080516001600160e01b0319831660248083019190915282518083039091018152604490910182526020810180516001600160e01b03166301ffc9a760e01b179052905160009190829081906001600160a01b0387169061753090612cf390869061394a565b6000604051808303818686fa925050503d8060008114612d2f576040519150601f19603f3d011682016040523d82523d6000602084013e612d34565b606091505b5091509150602081511015612d4f57600093505050506108c5565b818015612d6b575080806020019051810190612d6b91906132ad565b9695505050505050565b6000612d84601f600019613e93565b612d8f83601f613e3a565b61244191166020613e3a565b600060405180610100016040528060c28152602001613fc060c2913980516020918201209083359084013560408501356060860135612de060c0880160a0890161311b565b612df060e0890160c08a0161311b565b612e016101008a0160e08b0161311b565b612e0f6101008b018b613d07565b604051612e1d92919061393a565b60408051918290038220602083019a909a528101979097526060870195909552608086019390935260a08501919091526001600160a01b0390811660c085015290811660e0840152166101008201526101208082019290925290830135610140820152610160015b604051602081830303815290604052805190602001209050919050565b60007f8b73c3c69bb8fe3d512ecc4cf759cc79239f7b179b0ffacaa9a75d522b39400f82600001518051906020012083602001518051906020012084604001518560600151604051602001612e859594939291909485526020850193909352604084019190915260608301526001600160a01b0316608082015260a00190565b604051806101a0016040528060001515815260200160006001600160e01b0319168152602001600081526020016060815260200160608152602001612f886040518060800160405280600081526020016000815260200160008152602001600081525090565b815260200160008152600060208201819052604082018190526060808301829052608083015260a0820181905260c09091015290565b8035612fc981613f49565b919050565b600082601f830112612fdf57600080fd5b81356020612ff4612fef83613dd2565b613da2565b80838252828201915082860187848660051b890101111561301457600080fd5b60005b8581101561303357813584529284019290840190600101613017565b5090979650505050505050565b80518015158114612fc957600080fd5b60008083601f84011261306257600080fd5b5081356001600160401b0381111561307957600080fd5b60208301915083602082850101111561309157600080fd5b9250929050565b600082601f8301126130a957600080fd5b81516001600160401b038111156130c2576130c2613f33565b6130d5601f8201601f1916602001613da2565b8181528460208386010111156130ea57600080fd5b6130fb826020830160208701613eaa565b949350505050565b60006040828403121561311557600080fd5b50919050565b60006020828403121561312d57600080fd5b813561244181613f49565b6000806040838503121561314b57600080fd5b823561315681613f49565b9150602083013561316681613f49565b809150509250929050565b6000806020838503121561318457600080fd5b82356001600160401b038082111561319b57600080fd5b818501915085601f8301126131af57600080fd5b8135818111156131be57600080fd5b8660208260051b85010111156131d357600080fd5b60209290920196919550909350505050565b600080604083850312156131f857600080fd5b82356001600160401b038082111561320f57600080fd5b818501915085601f83011261322357600080fd5b81356020613233612fef83613dd2565b8083825282820191508286018a848660051b890101111561325357600080fd5b600096505b8487101561327f57803561326b81613f49565b835260019690960195918301918301613258565b509650508601359250508082111561329657600080fd5b506132a385828601612fce565b9150509250929050565b6000602082840312156132bf57600080fd5b61244182613040565b600080604083850312156132db57600080fd5b6132e483613040565b915060208301516001600160401b038111156132ff57600080fd5b6132a385828601613098565b60006020828403121561331d57600080fd5b81356001600160e01b03198116811461244157600080fd5b6000806040838503121561334857600080fd5b82516001600160401b0381111561335e57600080fd5b61336a85828601613098565b92505061337960208401613040565b90509250929050565b6000806040838503121561339557600080fd5b8251600781106133a457600080fd5b60208401519092506001600160401b038111156132ff57600080fd5b6000608082840312156133d257600080fd5b604051608081018181106001600160401b03821117156133f4576133f4613f33565b8060405250825181526020830151602082015260408301516040820152606083015160608201528091505092915050565b600060e0828403121561343757600080fd5b61343f613d7a565b823581526020830135602082015260408301356040820152606083013560608201526080830135608082015260a083013561347981613f49565b60a082015260c083013560ff8116811461349257600080fd5b60c08201529392505050565b600080600080600080600080888a036101208112156134bc57600080fd5b89356001600160401b03808211156134d357600080fd5b6134df8d838e01613103565b9a5060208c01359150808211156134f557600080fd5b6135018d838e01613050565b909a50985060408c013591508082111561351a57600080fd5b506135278c828d01613050565b9097509550506080605f198201121561353f57600080fd5b5096999598509396929550909360608301935060e08301359261010001359150565b60008082840360c081121561357557600080fd5b60a081121561358357600080fd5b5060405160a081018181106001600160401b03821117156135a6576135a6613f33565b806040525083518152602084015160208201526040840151604082015260608401516135d181613f49565b606082015260808401516135e481613f49565b6080820152915061337960a08401613040565b60006020828403121561360957600080fd5b5035919050565b60006020828403121561362257600080fd5b5051919050565b6000806040838503121561363c57600080fd5b82359150602083013561316681613f49565b6000806040838503121561366157600080fd5b8235915060208301356001600160401b0381111561367e57600080fd5b8301610140818603121561316657600080fd5b600080600080600080608087890312156136aa57600080fd5b8635955060208701356001600160401b03808211156136c857600080fd5b6136d48a838b01613103565b965060408901359150808211156136ea57600080fd5b6136f68a838b01613050565b9096509450606089013591508082111561370f57600080fd5b5061371c89828a01613050565b979a9699509497509295939492505050565b81835281816020850137506000828201602090810191909152601f909101601f19169091010190565b6000815180845261376f816020860160208601613eaa565b601f01601f19169290920160200192915050565b600781106137a157634e487b7160e01b600052602160045260246000fd5b9052565b600081356137b281613f49565b6001600160a01b0390811684526020830135906137ce82613f49565b1660208401526040828101359084015260608083013590840152608080830135908401526137ff60a0830183613df5565b60e060a086015261381460e08601828461372e565b91505060c083013560c08501528091505092915050565b6000610140823584526020830135602085015260408301356040850152606083013560608501526080830135608085015261386860a08401612fbe565b6001600160a01b031660a085015261388260c08401612fbe565b6001600160a01b031660c085015261389c60e08401612fbe565b6001600160a01b031660e08501526101006138b984820185613df5565b83838801526138cb848801828461372e565b6101209687013597909601969096525092949350505050565b6000813582360360de19810182126138fb57600080fd5b6040855261390e604086018584016137a5565b9150602084013561013e198201811261392657600080fd5b8583036020870152612d6b8386830161382b565b8183823760009101908152919050565b6000825161395c818460208701613eaa565b9190910192915050565b60008451613978818460208901613eaa565b600560fb1b9083019081528451613996816001840160208901613eaa565b600b60fa1b6001929091019182015283516139b8816002840160208801613eaa565b0160020195945050505050565b7352656c6179446174612072656c6179446174612960601b8152600082516139f4816014850160208701613eaa565b9190910160140192915050565b6001600160a01b0387811682528681166020830152851660408201526001600160e01b03198416606082015260c08101613a3e6080830185613783565b8260a0830152979650505050505050565b6001600160a01b0387811682528681166020830152851660408201526001600160e01b0319841660608201526080810183905260c060a08201819052600090613a9a90830184613757565b98975050505050505050565b60018060a01b0385168152836020820152606060408201526000612d6b60608301848661372e565b6040808252810183905260008460608301825b86811015613b11578235613af481613f49565b6001600160a01b0316825260209283019290910190600101613ae1565b5060209390930193909352509392505050565b82151581526040602082015260006130fb6040830184613757565b608081526000613b526080830187613757565b85151560208401528460408401528281036060840152613b72818561382b565b979650505050505050565b613b878184613783565b6040602082015260006130fb6040830184613757565b6020815260006124416020830184613757565b6020808252818101527f4f776e61626c653a2063616c6c6572206973206e6f7420746865206f776e6572604082015260600190565b60a081526000613bf860a08301896137a5565b8760208401528660408401528281036060840152613c168187613757565b90508281036080840152613c2b81858761372e565b9998505050505050505050565b6000610120808352613c4c8184018c6138e4565b90508281036020840152613c61818a8c61372e565b90508281036040840152613c7681888a61372e565b9150508451606083015260208501516080830152604085015160a0830152606085015160c08301528360e0830152826101008301529998505050505050505050565b608081526000613ccb60808301896138e4565b8281036020840152613cde81888a61372e565b90508281036040840152613cf381868861372e565b915050826060830152979650505050505050565b6000808335601e19843603018112613d1e57600080fd5b8301803591506001600160401b03821115613d3857600080fd5b60200191503681900382131561309157600080fd5b6000823560de1983360301811261395c57600080fd5b6000823561013e1983360301811261395c57600080fd5b60405160e081016001600160401b0381118282101715613d9c57613d9c613f33565b60405290565b604051601f8201601f191681016001600160401b0381118282101715613dca57613dca613f33565b604052919050565b60006001600160401b03821115613deb57613deb613f33565b5060051b60200190565b6000808335601e19843603018112613e0c57600080fd5b83016020810192503590506001600160401b03811115613e2b57600080fd5b80360383131561309157600080fd5b60008219821115613e4d57613e4d613ef1565b500190565b600082613e6f57634e487b7160e01b600052601260045260246000fd5b500490565b6000816000190483118215151615613e8e57613e8e613ef1565b500290565b600082821015613ea557613ea5613ef1565b500390565b60005b83811015613ec5578181015183820152602001613ead565b838111156120ec5750506000910152565b6000600019821415613eea57613eea613ef1565b5060010190565b634e487b7160e01b600052601160045260246000fd5b634e487b7160e01b600052602160045260246000fd5b634e487b7160e01b600052603260045260246000fd5b634e487b7160e01b600052604160045260246000fd5b6001600160a01b03811681146123d157600080fdfe616464726573732066726f6d2c6164647265737320746f2c75696e743235362076616c75652c75696e74323536206761732c75696e74323536206e6f6e63652c627974657320646174612c75696e743235362076616c6964556e74696c54696d6552656c6179446174612875696e74323536206d61784665655065724761732c75696e74323536206d61785072696f726974794665655065724761732c75696e743235362070637452656c61794665652c75696e74323536206261736552656c61794665652c616464726573732072656c6179576f726b65722c61646472657373207061796d61737465722c6164647265737320666f727761726465722c6279746573207061796d6173746572446174612c75696e7432353620636c69656e74496429332e302e302d616c7068612e332b6f70656e67736e2e6172626875622e6972656c6179687562a2646970667358221220b45e54d125877b9840aee76a5bb1a52a558569746f05770dcb764e308c7d943964736f6c63430008070033",
  "devdoc": {
    "kind": "dev",
    "methods": {
      "aggregateGasleft()": {
        "returns": {
          "_0": "A total measurable amount of gas left to current execution. Same as 'gasleft()' for pure EVMs."
        }
      },
      "balanceOf(address)": {
        "returns": {
          "_0": "An account's balance. It can be either a deposit of a `Paymaster`, or a revenue of a Relay Manager."
        }
      },
      "calculateCharge(uint256,(uint256,uint256,uint256,uint256,uint256,address,address,address,bytes,uint256))": {
        "params": {
          "gasUsed": "An amount of gas used by the transaction.",
          "relayData": "The details of a transaction signed by the sender."
        },
        "returns": {
          "_0": "The calculated charge, in wei."
        }
      },
      "calculateDevCharge(uint256)": {
        "params": {
          "charge": "The amount of Ether in wei the Paymaster will be charged for this transaction."
        },
        "returns": {
          "_0": "The calculated devFee, in wei."
        }
      },
      "deprecateHub(uint256)": {
        "params": {
          "_deprecationTime": "The timestamp in seconds after which the `RelayHub` stops serving transactions."
        }
      },
      "getBatchGateway()": {
        "returns": {
          "_0": "The `BatchGateway` address for this `RelayHub`."
        }
      },
      "getConfiguration()": {
        "returns": {
          "_0": "The configuration of the `RelayHub`."
        }
      },
      "getCreationBlock()": {
        "returns": {
          "_0": "The block number in which the contract has been deployed."
        }
      },
      "getDeprecationTime()": {
        "returns": {
          "_0": "The timestamp from which the hub no longer allows relaying calls."
        }
      },
      "getL1CreationBlock()": {
        "returns": {
          "_0": "The block number in which the contract has been deployed."
        }
      },
      "getMinimumStakePerToken(address)": {
        "params": {
          "token": "An address of an ERC-20 compatible tokens."
        },
        "returns": {
          "_0": "The minimum amount of a given `token` that needs to be staked so that the Relay Manager is considered to be 'staked' by this `RelayHub`. Zero value means this token is not allowed for staking."
        }
      },
      "getPenalizer()": {
        "returns": {
          "_0": "The `Penalizer` address for this `RelayHub`."
        }
      },
      "getRelayRegistrar()": {
        "returns": {
          "_0": "The `RelayRegistrar` address for this `RelayHub`."
        }
      },
      "getStakeManager()": {
        "returns": {
          "_0": "The `StakeManager` address for this `RelayHub`."
        }
      },
      "getWorkerCount(address)": {
        "params": {
          "manager": "An address of the Relay Manager."
        },
        "returns": {
          "_0": "The count of Relay Workers associated with this Relay Manager."
        }
      },
      "getWorkerManager(address)": {
        "params": {
          "worker": "An address of the Relay Worker."
        },
        "returns": {
          "_0": "The address of its Relay Manager."
        }
      },
      "isDeprecated()": {
        "returns": {
          "_0": "`true` if the `RelayHub` is deprecated, `false` it it is not deprecated and can serve transactions."
        }
      },
      "owner()": {
        "details": "Returns the address of the current owner."
      },
      "penalize(address,address)": {
        "params": {
          "beneficiary": "The address that called the `Penalizer` and will receive a reward for it.",
          "relayWorker": "The address of the Relay Worker that committed a penalizable offense."
        }
      },
      "relayCall(uint256,((address,address,uint256,uint256,uint256,bytes,uint256),(uint256,uint256,uint256,uint256,uint256,address,address,address,bytes,uint256)),bytes,bytes)": {
        "params": {
          "approvalData": "The dapp-specific data forwarded to the `Paymaster`'s `preRelayedCall` method. This value is **not** verified by the `RelayHub` in any way. As an example, it can be used to pass some kind of a third-party signature to the `Paymaster` for verification. Emits a `TransactionRelayed` event regardless of whether the transaction succeeded or failed.",
          "maxAcceptanceBudget": "The maximum valid value for `paymaster.getGasLimits().acceptanceBudget` to return.",
          "relayRequest": "All details of the requested relayed call.",
          "signature": "The client's EIP-712 signature over the `relayRequest` struct."
        }
      },
      "renounceOwnership()": {
        "details": "Leaves the contract without owner. It will not be possible to call `onlyOwner` functions anymore. Can only be called by the current owner. NOTE: Renouncing ownership will leave the contract without an owner, thereby removing any functionality that is only available to the owner."
      },
      "setConfiguration((uint256,uint256,uint256,uint256,uint256,address,uint8))": {
        "params": {
          "_config": "The new configuration."
        }
      },
      "setMinimumStakes(address[],uint256[])": {
        "params": {
          "minimumStake": "An array of minimal amounts necessary for a corresponding token, in wei.",
          "token": "An array of addresses of ERC-20 compatible tokens."
        }
      },
      "supportsInterface(bytes4)": {
        "details": "Returns true if this contract implements the interface defined by `interfaceId`. See the corresponding https://eips.ethereum.org/EIPS/eip-165#how-interfaces-are-identified[EIP section] to learn more about how these ids are created. This function call must use less than 30 000 gas."
      },
      "transferOwnership(address)": {
        "details": "Transfers ownership of the contract to a new account (`newOwner`). Can only be called by the current owner."
      },
      "versionHub()": {
        "returns": {
          "_0": "a SemVer-compliant version of the `RelayHub` contract."
        }
      }
    },
    "title": "The RelayHub Implementation for Arbitrum",
    "version": 1
  },
  "userdoc": {
    "events": {
      "Deposited(address,address,uint256)": {
        "notice": "Emitted when `depositFor` is called, including the amount and account that was funded."
      },
      "HubDeprecated(uint256)": {
        "notice": "This event is emitted in case this `RelayHub` is deprecated and will stop serving transactions soon."
      },
      "RelayHubConfigured((uint256,uint256,uint256,uint256,uint256,address,uint8))": {
        "notice": "Emitted when a configuration of the `RelayHub` is changed"
      },
      "RelayWorkersAdded(address,address[],uint256)": {
        "notice": "Emitted when relays are added by a relayManager"
      },
      "StakingTokenDataChanged(address,uint256)": {
        "notice": "Emitted for each token configured for staking in setMinimumStakes"
      },
      "TransactionRejectedByPaymaster(address,address,bytes32,address,address,address,bytes4,uint256,bytes)": {
        "notice": "Emitted when an attempt to relay a call fails and the `Paymaster` does not accept the transaction. The actual relayed call was not executed, and the recipient not charged."
      },
      "TransactionRelayed(address,address,bytes32,address,address,address,bytes4,uint8,uint256)": {
        "notice": "Emitted when a transaction is relayed. Note that the actual internal function call might be reverted. The reason for a revert will be indicated in the `status` field of a corresponding `RelayCallStatus` value.`charge` is the Ether value deducted from the `Paymaster` balance. The amount added to the `relayManager` balance will be lower if there is an activated `devFee` in the `config`."
      },
      "TransactionResult(uint8,bytes)": {
        "notice": "This event is emitted in case the internal function returns a value or reverts with a revert string."
      },
      "Withdrawn(address,address,uint256)": {
        "notice": "Emitted when an account withdraws funds from the `RelayHub`."
      }
    },
    "kind": "user",
    "methods": {
      "addRelayWorkers(address[])": {
        "notice": "Add new worker addresses controlled by the sender who must be a staked Relay Manager address. Emits a `RelayWorkersAdded` event. This function can be called multiple times, emitting new events."
      },
      "aggregateGasleft()": {
        "notice": "Includes the 'storage gas' specific to the Arbitrum Rollup."
      },
      "calculateCharge(uint256,(uint256,uint256,uint256,uint256,uint256,address,address,address,bytes,uint256))": {
        "notice": "The fee is expressed as a base fee in wei plus percentage of the actual charge. For example, a value '40' stands for a 40% fee, so the recipient will be charged for 1.4 times the spent amount."
      },
      "calculateDevCharge(uint256)": {
        "notice": "The fee is expressed as a  percentage of the actual charge. For example, a value '40' stands for a 40% fee, so the Relay Manager will only get 60% of the `charge`."
      },
      "constructor": {
        "notice": "we accept the `ArbSys` address in the constructor to allow mocking it in tests."
      },
      "depositFor(address)": {
        "notice": "Deposits ether for a `Paymaster`, so that it can and pay for relayed transactions. :warning: **Warning** :warning: Unused balance can only be withdrawn by the holder itself, by calling `withdraw`. Emits a `Deposited` event."
      },
      "deprecateHub(uint256)": {
        "notice": "Deprecate hub by reverting all incoming `relayCall()` calls starting from a given timestamp"
      },
      "getCreationBlock()": {
        "notice": "Uses `ArbSys` L2 block number specific to the Arbitrum Rollup."
      },
      "getL1CreationBlock()": {
        "notice": "Uses original L1 block number."
      },
      "innerRelayCall(((address,address,uint256,uint256,uint256,bytes,uint256),(uint256,uint256,uint256,uint256,uint256,address,address,address,bytes,uint256)),bytes,bytes,(uint256,uint256,uint256,uint256),uint256,uint256)": {
        "notice": "This method can only by called by this `RelayHub`. It wraps the execution of the `RelayRequest` in a revertable frame context."
      },
      "penalize(address,address)": {
        "notice": "In case the Relay Worker has been found to be in violation of some rules by the `Penalizer` contract, the `Penalizer` will call this method to execute a penalization. The `RelayHub` will look up the Relay Manager of the given Relay Worker and will forward the call to the `StakeManager` contract. The `RelayHub` does not perform the actual penalization either."
      },
      "relayCall(uint256,((address,address,uint256,uint256,uint256,bytes,uint256),(uint256,uint256,uint256,uint256,uint256,address,address,address,bytes,uint256)),bytes,bytes)": {
        "notice": "Relays a transaction. For this to succeed, multiple conditions must be met:  - `Paymaster`'s `preRelayCall` method must succeed and not revert.  - the `msg.sender` must be a registered Relay Worker that the user signed to use.  - the transaction's gas fees must be equal or larger than the ones that were signed by the sender.  - the transaction must have enough gas to run all internal transactions if they use all gas available to them.  - the `Paymaster` must have enough balance to pay the Relay Worker if all gas is spent.If all conditions are met, the call will be relayed and the `Paymaster` charged."
      },
      "setConfiguration((uint256,uint256,uint256,uint256,uint256,address,uint8))": {
        "notice": "Sets or changes the configuration of this `RelayHub`."
      },
      "setMinimumStakes(address[],uint256[])": {
        "notice": "Sets or changes the minimum amount of a given `token` that needs to be staked so that the Relay Manager is considered to be 'staked' by this `RelayHub`. Zero value means this token is not allowed for staking."
      },
      "verifyRelayManagerStaked(address)": {
        "notice": "Uses `StakeManager` to decide if the Relay Manager can be considered staked or not. Returns if the stake's token, amount and delay satisfy all requirements, reverts otherwise."
      },
      "withdraw(uint256,address)": {
        "notice": "Withdraws from an account's balance, sending it back to the caller. Relay Managers call this to retrieve their revenue, and `Paymasters` can also use it to reduce their funding. Emits a `Withdrawn` event."
      }
    },
    "notice": "This contract implements the `IRelayHub` interface for the Arbitrum-compatible Rollups.This implementation relies on the `ArbSys` built-ins that do not exist outside of Arbitrum.",
    "version": 1
  },
  "storageLayout": {
    "storage": [
      {
        "astId": 7,
        "contract": "contracts-link/arbitrum/ArbRelayHub.sol:ArbRelayHub",
        "label": "_owner",
        "offset": 0,
        "slot": "0",
        "type": "t_address"
      },
      {
        "astId": 3589,
        "contract": "contracts-link/arbitrum/ArbRelayHub.sol:ArbRelayHub",
        "label": "config",
        "offset": 0,
        "slot": "1",
        "type": "t_struct(RelayHubConfig)7176_storage"
      },
      {
        "astId": 3632,
        "contract": "contracts-link/arbitrum/ArbRelayHub.sol:ArbRelayHub",
        "label": "minimumStakePerToken",
        "offset": 0,
        "slot": "7",
        "type": "t_mapping(t_contract(IERC20)731,t_uint256)"
      },
      {
        "astId": 3695,
        "contract": "contracts-link/arbitrum/ArbRelayHub.sol:ArbRelayHub",
        "label": "workerToManager",
        "offset": 0,
        "slot": "8",
        "type": "t_mapping(t_address,t_address)"
      },
      {
        "astId": 3699,
        "contract": "contracts-link/arbitrum/ArbRelayHub.sol:ArbRelayHub",
        "label": "workerCount",
        "offset": 0,
        "slot": "9",
        "type": "t_mapping(t_address,t_uint256)"
      },
      {
        "astId": 3703,
        "contract": "contracts-link/arbitrum/ArbRelayHub.sol:ArbRelayHub",
        "label": "balances",
        "offset": 0,
        "slot": "10",
        "type": "t_mapping(t_address,t_uint256)"
      },
      {
        "astId": 3712,
        "contract": "contracts-link/arbitrum/ArbRelayHub.sol:ArbRelayHub",
        "label": "deprecationTime",
        "offset": 0,
        "slot": "11",
        "type": "t_uint256"
      }
    ],
    "types": {
      "t_address": {
        "encoding": "inplace",
        "label": "address",
        "numberOfBytes": "20"
      },
      "t_contract(IERC20)731": {
        "encoding": "inplace",
        "label": "contract IERC20",
        "numberOfBytes": "20"
      },
      "t_mapping(t_address,t_address)": {
        "encoding": "mapping",
        "key": "t_address",
        "label": "mapping(address => address)",
        "numberOfBytes": "32",
        "value": "t_address"
      },
      "t_mapping(t_address,t_uint256)": {
        "encoding": "mapping",
        "key": "t_address",
        "label": "mapping(address => uint256)",
        "numberOfBytes": "32",
        "value": "t_uint256"
      },
      "t_mapping(t_contract(IERC20)731,t_uint256)": {
        "encoding": "mapping",
        "key": "t_contract(IERC20)731",
        "label": "mapping(contract IERC20 => uint256)",
        "numberOfBytes": "32",
        "value": "t_uint256"
      },
      "t_struct(RelayHubConfig)7176_storage": {
        "encoding": "inplace",
        "label": "struct IRelayHub.RelayHubConfig",
        "members": [
          {
            "astId": 7163,
            "contract": "contracts-link/arbitrum/ArbRelayHub.sol:ArbRelayHub",
            "label": "maxWorkerCount",
            "offset": 0,
            "slot": "0",
            "type": "t_uint256"
          },
          {
            "astId": 7165,
            "contract": "contracts-link/arbitrum/ArbRelayHub.sol:ArbRelayHub",
            "label": "gasReserve",
            "offset": 0,
            "slot": "1",
            "type": "t_uint256"
          },
          {
            "astId": 7167,
            "contract": "contracts-link/arbitrum/ArbRelayHub.sol:ArbRelayHub",
            "label": "postOverhead",
            "offset": 0,
            "slot": "2",
            "type": "t_uint256"
          },
          {
            "astId": 7169,
            "contract": "contracts-link/arbitrum/ArbRelayHub.sol:ArbRelayHub",
            "label": "gasOverhead",
            "offset": 0,
            "slot": "3",
            "type": "t_uint256"
          },
          {
            "astId": 7171,
            "contract": "contracts-link/arbitrum/ArbRelayHub.sol:ArbRelayHub",
            "label": "minimumUnstakeDelay",
            "offset": 0,
            "slot": "4",
            "type": "t_uint256"
          },
          {
            "astId": 7173,
            "contract": "contracts-link/arbitrum/ArbRelayHub.sol:ArbRelayHub",
            "label": "devAddress",
            "offset": 0,
            "slot": "5",
            "type": "t_address"
          },
          {
            "astId": 7175,
            "contract": "contracts-link/arbitrum/ArbRelayHub.sol:ArbRelayHub",
            "label": "devFee",
            "offset": 20,
            "slot": "5",
            "type": "t_uint8"
          }
        ],
        "numberOfBytes": "192"
      },
      "t_uint256": {
        "encoding": "inplace",
        "label": "uint256",
        "numberOfBytes": "32"
      },
      "t_uint8": {
        "encoding": "inplace",
        "label": "uint8",
        "numberOfBytes": "1"
      }
    }
  }
}