{
  "address": "0xaEEE59D02E121185cFFe9710608B4e0aEB9bE072",
  "abi": [
    {
      "inputs": [],
      "stateMutability": "nonpayable",
      "type": "constructor"
    },
    {
      "anonymous": false,
      "inputs": [
        {
          "indexed": true,
          "internalType": "bytes32",
          "name": "domainSeparator",
          "type": "bytes32"
        },
        {
          "indexed": false,
          "internalType": "bytes",
          "name": "domainValue",
          "type": "bytes"
        }
      ],
      "name": "DomainRegistered",
      "type": "event"
    },
    {
      "anonymous": false,
      "inputs": [
        {
          "indexed": true,
          "internalType": "bytes32",
          "name": "typeHash",
          "type": "bytes32"
        },
        {
          "indexed": false,
          "internalType": "string",
          "name": "typeStr",
          "type": "string"
        }
      ],
      "name": "RequestTypeRegistered",
      "type": "event"
    },
    {
      "inputs": [],
      "name": "EIP712_DOMAIN_TYPE",
      "outputs": [
        {
          "internalType": "string",
          "name": "",
          "type": "string"
        }
      ],
      "stateMutability": "view",
      "type": "function"
    },
    {
      "inputs": [],
      "name": "GENERIC_PARAMS",
      "outputs": [
        {
          "internalType": "string",
          "name": "",
          "type": "string"
        }
      ],
      "stateMutability": "view",
      "type": "function"
    },
    {
      "inputs": [
        {
          "components": [
            {
              "internalType": "address",
              "name": "from",
              "type": "address"
            },
            {
              "internalType": "address",
              "name": "to",
              "type": "address"
            },
            {
              "internalType": "uint256",
              "name": "value",
              "type": "uint256"
            },
            {
              "internalType": "uint256",
              "name": "gas",
              "type": "uint256"
            },
            {
              "internalType": "uint256",
              "name": "nonce",
              "type": "uint256"
            },
            {
              "internalType": "bytes",
              "name": "data",
              "type": "bytes"
            },
            {
              "internalType": "uint256",
              "name": "validUntilTime",
              "type": "uint256"
            }
          ],
          "internalType": "struct IForwarder.ForwardRequest",
          "name": "req",
          "type": "tuple"
        },
        {
          "internalType": "bytes32",
          "name": "requestTypeHash",
          "type": "bytes32"
        },
        {
          "internalType": "bytes",
          "name": "suffixData",
          "type": "bytes"
        }
      ],
      "name": "_getEncoded",
      "outputs": [
        {
          "internalType": "bytes",
          "name": "",
          "type": "bytes"
        }
      ],
      "stateMutability": "pure",
      "type": "function"
    },
    {
      "inputs": [
        {
          "internalType": "bytes32",
          "name": "",
          "type": "bytes32"
        }
      ],
      "name": "domains",
      "outputs": [
        {
          "internalType": "bool",
          "name": "",
          "type": "bool"
        }
      ],
      "stateMutability": "view",
      "type": "function"
    },
    {
      "inputs": [
        {
          "components": [
            {
              "internalType": "address",
              "name": "from",
              "type": "address"
            },
            {
              "internalType": "address",
              "name": "to",
              "type": "address"
            },
            {
              "internalType": "uint256",
              "name": "value",
              "type": "uint256"
            },
            {
              "internalType": "uint256",
              "name": "gas",
              "type": "uint256"
            },
            {
              "internalType": "uint256",
              "name": "nonce",
              "type": "uint256"
            },
            {
              "internalType": "bytes",
              "name": "data",
              "type": "bytes"
            },
            {
              "internalType": "uint256",
              "name": "validUntilTime",
              "type": "uint256"
            }
          ],
          "internalType": "struct IForwarder.ForwardRequest",
          "name": "req",
          "type": "tuple"
        },
        {
          "internalType": "bytes32",
          "name": "domainSeparator",
          "type": "bytes32"
        },
        {
          "internalType": "bytes32",
          "name": "requestTypeHash",
          "type": "bytes32"
        },
        {
          "internalType": "bytes",
          "name": "suffixData",
          "type": "bytes"
        },
        {
          "internalType": "bytes",
          "name": "sig",
          "type": "bytes"
        }
      ],
      "name": "execute",
      "outputs": [
        {
          "internalType": "bool",
          "name": "success",
          "type": "bool"
        },
        {
          "internalType": "bytes",
          "name": "ret",
          "type": "bytes"
        }
      ],
      "stateMutability": "payable",
      "type": "function"
    },
    {
      "inputs": [
        {
          "internalType": "address",
          "name": "from",
          "type": "address"
        }
      ],
      "name": "getNonce",
      "outputs": [
        {
          "internalType": "uint256",
          "name": "",
          "type": "uint256"
        }
      ],
      "stateMutability": "view",
      "type": "function"
    },
    {
      "inputs": [
        {
          "internalType": "string",
          "name": "name",
          "type": "string"
        },
        {
          "internalType": "string",
          "name": "version",
          "type": "string"
        }
      ],
      "name": "registerDomainSeparator",
      "outputs": [],
      "stateMutability": "nonpayable",
      "type": "function"
    },
    {
      "inputs": [
        {
          "internalType": "string",
          "name": "typeName",
          "type": "string"
        },
        {
          "internalType": "string",
          "name": "typeSuffix",
          "type": "string"
        }
      ],
      "name": "registerRequestType",
      "outputs": [],
      "stateMutability": "nonpayable",
      "type": "function"
    },
    {
      "inputs": [
        {
          "internalType": "bytes4",
          "name": "interfaceId",
          "type": "bytes4"
        }
      ],
      "name": "supportsInterface",
      "outputs": [
        {
          "internalType": "bool",
          "name": "",
          "type": "bool"
        }
      ],
      "stateMutability": "view",
      "type": "function"
    },
    {
      "inputs": [
        {
          "internalType": "bytes32",
          "name": "",
          "type": "bytes32"
        }
      ],
      "name": "typeHashes",
      "outputs": [
        {
          "internalType": "bool",
          "name": "",
          "type": "bool"
        }
      ],
      "stateMutability": "view",
      "type": "function"
    },
    {
      "inputs": [
        {
          "components": [
            {
              "internalType": "address",
              "name": "from",
              "type": "address"
            },
            {
              "internalType": "address",
              "name": "to",
              "type": "address"
            },
            {
              "internalType": "uint256",
              "name": "value",
              "type": "uint256"
            },
            {
              "internalType": "uint256",
              "name": "gas",
              "type": "uint256"
            },
            {
              "internalType": "uint256",
              "name": "nonce",
              "type": "uint256"
            },
            {
              "internalType": "bytes",
              "name": "data",
              "type": "bytes"
            },
            {
              "internalType": "uint256",
              "name": "validUntilTime",
              "type": "uint256"
            }
          ],
          "internalType": "struct IForwarder.ForwardRequest",
          "name": "req",
          "type": "tuple"
        },
        {
          "internalType": "bytes32",
          "name": "domainSeparator",
          "type": "bytes32"
        },
        {
          "internalType": "bytes32",
          "name": "requestTypeHash",
          "type": "bytes32"
        },
        {
          "internalType": "bytes",
          "name": "suffixData",
          "type": "bytes"
        },
        {
          "internalType": "bytes",
          "name": "sig",
          "type": "bytes"
        }
      ],
      "name": "verify",
      "outputs": [],
      "stateMutability": "view",
      "type": "function"
    },
    {
      "stateMutability": "payable",
      "type": "receive"
    }
  ],
  "transactionHash": "0x9216de4c7004f5bd7e9d4bafa7e75f78ea184b55234eb3c7fe9d4385f2af2b2c",
  "args": [],
  "numDeployments": 5,
  "solcInputHash": "d62024eb01c97f3dc725e36f7ade1c49",
  "bytecode": "0x60806040523480156200001157600080fd5b5060006040518060a00160405280606181526020016200155a60619139604051602001620000409190620000c8565b60408051601f1981840301815291905290506200005d8162000064565b5062000174565b8051602080830191909120600081815291829052604091829020805460ff19166001179055905181907f64d6bce64323458c44643c51fe45113efc882082f7b7fd5f09f0d69d2eedb20290620000bc9085906200010c565b60405180910390a25050565b6e08cdee4eec2e4c8a4cae2eacae6e85608b1b815260008251620000f481600f85016020870162000141565b602960f81b600f939091019283015250601001919050565b60208152600082518060208401526200012d81604085016020870162000141565b601f01601f19169190910160400192915050565b60005b838110156200015e57818101518382015260200162000144565b838111156200016e576000848401525b50505050565b6113d680620001846000396000f3fe6080604052600436106100a05760003560e01c8063ad9f99c711610064578063ad9f99c714610199578063c3f28abd146101b9578063c722f177146101ce578063d9210be5146101fe578063e024dc7f1461021e578063e2b62f2d1461023f57600080fd5b806301ffc9a7146100ac578063066a310c146100e157806321fe98df146101035780632d0335ab146101335780639c7b45921461017757600080fd5b366100a757005b600080fd5b3480156100b857600080fd5b506100cc6100c7366004610ed3565b61025f565b60405190151581526020015b60405180910390f35b3480156100ed57600080fd5b506100f6610296565b6040516100d891906111ad565b34801561010f57600080fd5b506100cc61011e366004610eba565b60006020819052908152604090205460ff1681565b34801561013f57600080fd5b5061016961014e366004610e8a565b6001600160a01b031660009081526002602052604090205490565b6040519081526020016100d8565b34801561018357600080fd5b50610197610192366004610efd565b6102b2565b005b3480156101a557600080fd5b506101976101b4366004610f69565b6103a9565b3480156101c557600080fd5b506100f66103ca565b3480156101da57600080fd5b506100cc6101e9366004610eba565b60016020526000908152604090205460ff1681565b34801561020a57600080fd5b50610197610219366004610efd565b6103e6565b61023161022c366004610f69565b6104e9565b6040516100d892919061118a565b34801561024b57600080fd5b506100f661025a366004611011565b610700565b60006001600160e01b031982166309788f9960e21b148061029057506301ffc9a760e01b6001600160e01b03198316145b92915050565b6040518060a00160405280606181526020016112ee6061913981565b6000469050600060405180608001604052806052815260200161134f605291398051906020012086866040516102e99291906110e6565b604051809103902085856040516103019291906110e6565b6040805191829003822060208301949094528101919091526060810191909152608081018390523060a082015260c00160408051601f198184030181528282528051602080830191909120600081815260019283905293909320805460ff1916909117905592509081907f4bc68689cbe89a4a6333a3ab0a70093874da3e5bfb71e93102027f3f073687d8906103989085906111ad565b60405180910390a250505050505050565b6103b28761079a565b6103c187878787878787610817565b50505050505050565b60405180608001604052806052815260200161134f6052913981565b60005b83811015610494576000858583818110610405576104056112d7565b909101356001600160f81b031916915050600560fb1b81148015906104385750602960f81b6001600160f81b0319821614155b6104815760405162461bcd60e51b81526020600482015260156024820152744657443a20696e76616c696420747970656e616d6560581b60448201526064015b60405180910390fd5b508061048c81611290565b9150506103e9565b50600084846040518060a00160405280606181526020016112ee6061913985856040516020016104c8959493929190611138565b60405160208183030381529060405290506104e2816109df565b5050505050565b600060606104fc89898989898989610817565b61050589610a41565b60c089013515806105195750428960c00135115b61055c5760405162461bcd60e51b81526020600482015260146024820152731195d10e881c995c5d595cdd08195e1c1a5c995960621b6044820152606401610478565b600060408a01351561056d5750619c405b600061057c60a08c018c6111c0565b61058960208e018e610e8a565b60405160200161059b939291906110f6565b60408051601f1981840301815291905290506105bb8260608d0135611207565b60405a6105c990603f611241565b6105d3919061121f565b10156106195760405162461bcd60e51b81526020600482015260156024820152744657443a20696e73756666696369656e742067617360581b6044820152606401610478565b61062960408c0160208d01610e8a565b6001600160a01b03168b606001358c604001358360405161064a919061111c565b600060405180830381858888f193505050503d8060008114610688576040519150601f19603f3d011682016040523d82523d6000602084013e61068d565b606091505b50909450925060408b0135158015906106a65750600047115b156106f2576106b860208c018c610e8a565b6001600160a01b03166108fc479081150290604051600060405180830381858888f193505050501580156106f0573d6000803e3d6000fd5b505b505097509795505050505050565b6060836107106020870187610e8a565b6001600160a01b03166107296040880160208901610e8a565b6001600160a01b03166040880135606089013560808a013561074e60a08c018c6111c0565b60405161075c9291906110e6565b6040519081900381206107819796959493929160c08e0135908c908c90602001611094565b6040516020818303038152906040529050949350505050565b6080810135600260006107b06020850185610e8a565b6001600160a01b03166001600160a01b0316815260200190815260200160002054146108145760405162461bcd60e51b815260206004820152601360248201527208cae887440dcdedcc6ca40dad2e6dac2e8c6d606b1b6044820152606401610478565b50565b60008681526001602052604090205460ff166108755760405162461bcd60e51b815260206004820152601d60248201527f4657443a20756e7265676973746572656420646f6d61696e207365702e0000006044820152606401610478565b60008581526020819052604090205460ff166108d35760405162461bcd60e51b815260206004820152601a60248201527f4657443a20756e726567697374657265642074797065686173680000000000006044820152606401610478565b6000866108e289888888610700565b805160209182012060405161090e93920161190160f01b81526002810192909252602282015260420190565b60408051601f198184030181529190528051602091820120915061093490890189610e8a565b6001600160a01b031661097f84848080601f0160208091040260200160405190810160405280939291908181526020018383808284376000920191909152508693925050610ac59050565b6001600160a01b0316146109d55760405162461bcd60e51b815260206004820152601760248201527f4657443a207369676e6174757265206d69736d617463680000000000000000006044820152606401610478565b5050505050505050565b8051602080830191909120600081815291829052604091829020805460ff19166001179055905181907f64d6bce64323458c44643c51fe45113efc882082f7b7fd5f09f0d69d2eedb20290610a359085906111ad565b60405180910390a25050565b608081013560026000610a576020850185610e8a565b6001600160a01b0316815260208101919091526040016000908120805491610a7e83611290565b91905055146108145760405162461bcd60e51b815260206004820152601360248201527208cae887440dcdedcc6ca40dad2e6dac2e8c6d606b1b6044820152606401610478565b6000806000610ad48585610ae9565b91509150610ae181610b59565b509392505050565b600080825160411415610b205760208301516040840151606085015160001a610b1487828585610d14565b94509450505050610b52565b825160401415610b4a5760208301516040840151610b3f868383610e01565b935093505050610b52565b506000905060025b9250929050565b6000816004811115610b6d57610b6d6112c1565b1415610b765750565b6001816004811115610b8a57610b8a6112c1565b1415610bd85760405162461bcd60e51b815260206004820152601860248201527f45434453413a20696e76616c6964207369676e617475726500000000000000006044820152606401610478565b6002816004811115610bec57610bec6112c1565b1415610c3a5760405162461bcd60e51b815260206004820152601f60248201527f45434453413a20696e76616c6964207369676e6174757265206c656e677468006044820152606401610478565b6003816004811115610c4e57610c4e6112c1565b1415610ca75760405162461bcd60e51b815260206004820152602260248201527f45434453413a20696e76616c6964207369676e6174757265202773272076616c604482015261756560f01b6064820152608401610478565b6004816004811115610cbb57610cbb6112c1565b14156108145760405162461bcd60e51b815260206004820152602260248201527f45434453413a20696e76616c6964207369676e6174757265202776272076616c604482015261756560f01b6064820152608401610478565b6000807f7fffffffffffffffffffffffffffffff5d576e7357a4501ddfe92f46681b20a0831115610d4b5750600090506003610df8565b8460ff16601b14158015610d6357508460ff16601c14155b15610d745750600090506004610df8565b6040805160008082526020820180845289905260ff881692820192909252606081018690526080810185905260019060a0016020604051602081039080840390855afa158015610dc8573d6000803e3d6000fd5b5050604051601f1901519150506001600160a01b038116610df157600060019250925050610df8565b9150600090505b94509492505050565b6000806001600160ff1b03831660ff84901c601b01610e2287828885610d14565b935093505050935093915050565b60008083601f840112610e4257600080fd5b50813567ffffffffffffffff811115610e5a57600080fd5b602083019150836020828501011115610b5257600080fd5b600060e08284031215610e8457600080fd5b50919050565b600060208284031215610e9c57600080fd5b81356001600160a01b0381168114610eb357600080fd5b9392505050565b600060208284031215610ecc57600080fd5b5035919050565b600060208284031215610ee557600080fd5b81356001600160e01b031981168114610eb357600080fd5b60008060008060408587031215610f1357600080fd5b843567ffffffffffffffff80821115610f2b57600080fd5b610f3788838901610e30565b90965094506020870135915080821115610f5057600080fd5b50610f5d87828801610e30565b95989497509550505050565b600080600080600080600060a0888a031215610f8457600080fd5b873567ffffffffffffffff80821115610f9c57600080fd5b610fa88b838c01610e72565b985060208a0135975060408a0135965060608a0135915080821115610fcc57600080fd5b610fd88b838c01610e30565b909650945060808a0135915080821115610ff157600080fd5b50610ffe8a828b01610e30565b989b979a50959850939692959293505050565b6000806000806060858703121561102757600080fd5b843567ffffffffffffffff8082111561103f57600080fd5b61104b88838901610e72565b9550602087013594506040870135915080821115610f5057600080fd5b60008151808452611080816020860160208601611260565b601f01601f19169290920160200192915050565b8a81528960208201528860408201528760608201528660808201528560a08201528460c08201528360e082015260006101008385828501376000929093019092019081529a9950505050505050505050565b8183823760009101908152919050565b8284823760609190911b6bffffffffffffffffffffffff19169101908152601401919050565b6000825161112e818460208701611260565b9190910192915050565b84868237600085820160008152600560fb1b8152855161115f816001840160208a01611260565b600b60fa1b600192909101918201528385600283013760009301600201928352509095945050505050565b82151581526040602082015260006111a56040830184611068565b949350505050565b602081526000610eb36020830184611068565b6000808335601e198436030181126111d757600080fd5b83018035915067ffffffffffffffff8211156111f257600080fd5b602001915036819003821315610b5257600080fd5b6000821982111561121a5761121a6112ab565b500190565b60008261123c57634e487b7160e01b600052601260045260246000fd5b500490565b600081600019048311821515161561125b5761125b6112ab565b500290565b60005b8381101561127b578181015183820152602001611263565b8381111561128a576000848401525b50505050565b60006000198214156112a4576112a46112ab565b5060010190565b634e487b7160e01b600052601160045260246000fd5b634e487b7160e01b600052602160045260246000fd5b634e487b7160e01b600052603260045260246000fdfe616464726573732066726f6d2c6164647265737320746f2c75696e743235362076616c75652c75696e74323536206761732c75696e74323536206e6f6e63652c627974657320646174612c75696e743235362076616c6964556e74696c54696d65454950373132446f6d61696e28737472696e67206e616d652c737472696e672076657273696f6e2c75696e7432353620636861696e49642c6164647265737320766572696679696e67436f6e747261637429a2646970667358221220a58f6ca2de94f3c585422c7a03008ae28cc2b11389c1e8000e6d13e324c8ee4464736f6c63430008070033616464726573732066726f6d2c6164647265737320746f2c75696e743235362076616c75652c75696e74323536206761732c75696e74323536206e6f6e63652c627974657320646174612c75696e743235362076616c6964556e74696c54696d65",
  "devdoc": {
    "kind": "dev",
    "methods": {
      "execute((address,address,uint256,uint256,uint256,bytes,uint256),bytes32,bytes32,bytes,bytes)": {
        "params": {
          "domainSeparator": "The domain used when signing this request.",
          "forwardRequest": "All requested transaction parameters.",
          "requestTypeHash": "The request type used when signing this request.",
          "signature": "The client signature to be validated.",
          "suffixData": "The ABI-encoded extension data for the current `RequestType` used when signing this request."
        },
        "returns": {
          "ret": "The byte array returned by the underlying `CALL` to the target address.",
          "success": "The success flag of the underlying `CALL` to the target address."
        }
      },
      "getNonce(address)": {
        "params": {
          "from": "The address of a sender."
        },
        "returns": {
          "_0": "The nonce for this address."
        }
      },
      "registerDomainSeparator(string,string)": {
        "params": {
          "name": "The domain's display name.",
          "version": "The domain/protocol version."
        }
      },
      "registerRequestType(string,string)": {
        "params": {
          "typeName": "The name of the request type.",
          "typeSuffix": "Any extra data after the generic params. Must contain add at least one param. The generic ForwardRequest type is always registered by the constructor."
        }
      },
      "supportsInterface(bytes4)": {
        "details": "Returns true if this contract implements the interface defined by `interfaceId`. See the corresponding https://eips.ethereum.org/EIPS/eip-165#how-interfaces-are-identified[EIP section] to learn more about how these ids are created. This function call must use less than 30 000 gas."
      }
    },
    "title": "The Forwarder Implementation",
    "version": 1
  },
  "userdoc": {
    "kind": "user",
    "methods": {
      "_getEncoded((address,address,uint256,uint256,uint256,bytes,uint256),bytes32,bytes)": {
        "notice": "Creates a byte array that is a valid ABI encoding of a request of a `RequestType` type. See `execute()`."
      },
      "execute((address,address,uint256,uint256,uint256,bytes,uint256),bytes32,bytes32,bytes,bytes)": {
        "notice": "Executes a transaction specified by the `ForwardRequest`. The transaction is first verified and then executed. The success flag and returned bytes array of the `CALL` are returned as-is. This method would revert only in case of a verification error. All the target errors are reported using the returned success flag and returned bytes array."
      },
      "registerDomainSeparator(string,string)": {
        "notice": "Register a new domain separator.This is necessary for the Forwarder to be able to verify the signatures conforming to the ERC-712.The domain separator must have the following fields: `name`, `version`, `chainId`, `verifyingContract`. The `chainId` is the current network's `chainId`, and the `verifyingContract` is this Forwarder's address. This method accepts the domain name and version to create and register the domain separator value."
      },
      "registerRequestType(string,string)": {
        "notice": "Register a new Request typehash.This is necessary for the Forwarder to be able to verify the signatures conforming to the ERC-712."
      },
      "verify((address,address,uint256,uint256,uint256,bytes,uint256),bytes32,bytes32,bytes,bytes)": {
        "notice": "Verify the transaction is valid and can be executed. Implementations must validate the signature and the nonce of the request are correct. Does not revert and returns successfully if the input is valid. Reverts if any validation has failed. For instance, if either signature or nonce are incorrect. Reverts if `domainSeparator` or `requestTypeHash` are not registered as well."
      }
    },
    "notice": "This implementation of the `IForwarder` interface uses ERC-712 signatures and stored nonces for verification.",
    "version": 1
  },
  "storageLayout": {
    "storage": [
      {
        "astId": 6209,
        "contract": "contracts-link/forwarder/Forwarder.sol:Forwarder",
        "label": "typeHashes",
        "offset": 0,
        "slot": "0",
        "type": "t_mapping(t_bytes32,t_bool)"
      },
      {
        "astId": 6213,
        "contract": "contracts-link/forwarder/Forwarder.sol:Forwarder",
        "label": "domains",
        "offset": 0,
        "slot": "1",
        "type": "t_mapping(t_bytes32,t_bool)"
      },
      {
        "astId": 6217,
        "contract": "contracts-link/forwarder/Forwarder.sol:Forwarder",
        "label": "nonces",
        "offset": 0,
        "slot": "2",
        "type": "t_mapping(t_address,t_uint256)"
      }
    ],
    "types": {
      "t_address": {
        "encoding": "inplace",
        "label": "address",
        "numberOfBytes": "20"
      },
      "t_bool": {
        "encoding": "inplace",
        "label": "bool",
        "numberOfBytes": "1"
      },
      "t_bytes32": {
        "encoding": "inplace",
        "label": "bytes32",
        "numberOfBytes": "32"
      },
      "t_mapping(t_address,t_uint256)": {
        "encoding": "mapping",
        "key": "t_address",
        "label": "mapping(address => uint256)",
        "numberOfBytes": "32",
        "value": "t_uint256"
      },
      "t_mapping(t_bytes32,t_bool)": {
        "encoding": "mapping",
        "key": "t_bytes32",
        "label": "mapping(bytes32 => bool)",
        "numberOfBytes": "32",
        "value": "t_bool"
      },
      "t_uint256": {
        "encoding": "inplace",
        "label": "uint256",
        "numberOfBytes": "32"
      }
    }
  }
}