{
  "address": "0x098B6FE8d90C2178C0311fBA952c14f4Fa3031D6",
  "abi": [
    {
      "inputs": [],
      "stateMutability": "nonpayable",
      "type": "constructor"
    },
    {
      "anonymous": false,
      "inputs": [
        {
          "indexed": true,
          "internalType": "address",
          "name": "relayManager",
          "type": "address"
        },
        {
          "indexed": false,
          "internalType": "uint256",
          "name": "baseRelayFee",
          "type": "uint256"
        },
        {
          "indexed": false,
          "internalType": "uint256",
          "name": "pctRelayFee",
          "type": "uint256"
        },
        {
          "indexed": false,
          "internalType": "bytes32[3]",
          "name": "relayUrl",
          "type": "bytes32[3]"
        }
      ],
      "name": "RelayServerRegistered",
      "type": "event"
    },
    {
      "inputs": [],
      "name": "getCreationBlock",
      "outputs": [
        {
          "internalType": "uint256",
          "name": "",
          "type": "uint256"
        }
      ],
      "stateMutability": "view",
      "type": "function"
    },
    {
      "inputs": [
        {
          "internalType": "address",
          "name": "relayHub",
          "type": "address"
        },
        {
          "internalType": "address",
          "name": "relayManager",
          "type": "address"
        }
      ],
      "name": "getRelayInfo",
      "outputs": [
        {
          "components": [
            {
              "internalType": "uint32",
              "name": "lastSeenBlockNumber",
              "type": "uint32"
            },
            {
              "internalType": "uint40",
              "name": "lastSeenTimestamp",
              "type": "uint40"
            },
            {
              "internalType": "uint32",
              "name": "firstSeenBlockNumber",
              "type": "uint32"
            },
            {
              "internalType": "uint40",
              "name": "firstSeenTimestamp",
              "type": "uint40"
            },
            {
              "internalType": "uint80",
              "name": "baseRelayFee",
              "type": "uint80"
            },
            {
              "internalType": "uint16",
              "name": "pctRelayFee",
              "type": "uint16"
            },
            {
              "internalType": "bytes32[3]",
              "name": "urlParts",
              "type": "bytes32[3]"
            },
            {
              "internalType": "address",
              "name": "relayManager",
              "type": "address"
            }
          ],
          "internalType": "struct IRelayRegistrar.RelayInfo",
          "name": "",
          "type": "tuple"
        }
      ],
      "stateMutability": "view",
      "type": "function"
    },
    {
      "inputs": [
        {
          "internalType": "address",
          "name": "relayHub",
          "type": "address"
        },
        {
          "internalType": "uint256",
          "name": "oldestBlockNumber",
          "type": "uint256"
        },
        {
          "internalType": "uint256",
          "name": "oldestBlockTimestamp",
          "type": "uint256"
        },
        {
          "internalType": "uint256",
          "name": "maxCount",
          "type": "uint256"
        }
      ],
      "name": "readRelayInfos",
      "outputs": [
        {
          "components": [
            {
              "internalType": "uint32",
              "name": "lastSeenBlockNumber",
              "type": "uint32"
            },
            {
              "internalType": "uint40",
              "name": "lastSeenTimestamp",
              "type": "uint40"
            },
            {
              "internalType": "uint32",
              "name": "firstSeenBlockNumber",
              "type": "uint32"
            },
            {
              "internalType": "uint40",
              "name": "firstSeenTimestamp",
              "type": "uint40"
            },
            {
              "internalType": "uint80",
              "name": "baseRelayFee",
              "type": "uint80"
            },
            {
              "internalType": "uint16",
              "name": "pctRelayFee",
              "type": "uint16"
            },
            {
              "internalType": "bytes32[3]",
              "name": "urlParts",
              "type": "bytes32[3]"
            },
            {
              "internalType": "address",
              "name": "relayManager",
              "type": "address"
            }
          ],
          "internalType": "struct IRelayRegistrar.RelayInfo[]",
          "name": "info",
          "type": "tuple[]"
        }
      ],
      "stateMutability": "view",
      "type": "function"
    },
    {
      "inputs": [
        {
          "internalType": "address",
          "name": "relayHub",
          "type": "address"
        },
        {
          "internalType": "uint80",
          "name": "baseRelayFee",
          "type": "uint80"
        },
        {
          "internalType": "uint16",
          "name": "pctRelayFee",
          "type": "uint16"
        },
        {
          "internalType": "bytes32[3]",
          "name": "url",
          "type": "bytes32[3]"
        }
      ],
      "name": "registerRelayServer",
      "outputs": [],
      "stateMutability": "nonpayable",
      "type": "function"
    },
    {
      "inputs": [
        {
          "internalType": "bytes4",
          "name": "interfaceId",
          "type": "bytes4"
        }
      ],
      "name": "supportsInterface",
      "outputs": [
        {
          "internalType": "bool",
          "name": "",
          "type": "bool"
        }
      ],
      "stateMutability": "view",
      "type": "function"
    }
  ],
  "transactionHash": "0xf93e2b928e05166ceff5434258c4a82883e9c5deb78ae4bae7a0b5fef8b39f50",
  "args": [],
  "numDeployments": 3,
  "solcInputHash": "ed54ecf1e58c2e0b82a21139c2bc4bdb",
  "bytecode": "0x60a060405234801561001057600080fd5b5043608052608051610a2d61002f600039600060890152610a2d6000f3fe608060405234801561001057600080fd5b50600436106100575760003560e01c806301ffc9a71461005c57806320ffd56d1461008457806378ae6b87146100b25780639ed1ad6e146100d2578063cb72cb04146100f2575b600080fd5b61006f61006a366004610837565b610107565b60405190151581526020015b60405180910390f35b6040517f0000000000000000000000000000000000000000000000000000000000000000815260200161007b565b6100c56100c0366004610759565b61013d565b60405161007b9190610965565b6100e56100e036600461078c565b610285565b60405161007b9190610916565b6101056101003660046107c5565b61045c565b005b60006001600160e01b03198216621be5b160e71b148061013757506301ffc9a760e01b6001600160e01b03198316145b92915050565b610145610680565b6001600160a01b038381166000908152602081815260408083209386168352928152828220835161010081018552815463ffffffff8082168352640100000000820464ffffffffff90811695840195909552600160481b82041682870152600160681b8104909316606080830191909152600160901b84046001600160501b03166080830152600160e01b90930461ffff1660a08201528451928301948590529293909160c0840191600184019060039082845b8154815260200190600101908083116101f9575050509183525050600491909101546001600160a01b0316602090910152805190915063ffffffff1661027e5760405162461bcd60e51b81526020600482015260166024820152751c995b185e53585b9859d95c881b9bdd08199bdd5b9960521b604482015260640160405180910390fd5b9392505050565b6001600160a01b038416600090815260016020526040812080546060929084116102af57836102b2565b81545b67ffffffffffffffff8111156102ca576102ca6109e1565b60405190808252806020026020018201604052801561030357816020015b6102f0610680565b8152602001906001900390816102e85790505b50925060005b8254811015610450576000838281548110610326576103266109cb565b60009182526020822001546001600160a01b031691506103468a8361013d565b905088816000015163ffffffff16108061036a575087816020015164ffffffffff16105b1561037657505061043e565b604051637371170960e11b81526001600160a01b0383811660048301528b169063e6e22e129060240160006040518083038186803b1580156103b757600080fd5b505afa9250505080156103c8575060015b610404573d8080156103f6576040519150601f19603f3d011682016040523d82523d6000602084013e6103fb565b606091505b5050505061043e565b808685610410816109a2565b965081518110610422576104226109cb565b602002602001018190525086841061043b575050610450565b50505b80610448816109a2565b915050610309565b50825250949350505050565b604051631f1743d360e31b81523360048201819052906001600160a01b0386169063f8ba1e9890602401600060405180830381600087803b1580156104a057600080fd5b505af11580156104b4573d6000803e3d6000fd5b50505050806001600160a01b03167f3745ddb13fe34498822a5f84713df4915362be13f585e80b62487ad744da0ab58585856040516104f593929190610974565b60405180910390a261050a8582868686610511565b5050505050565b600061051d868661060b565b8054909150600160481b900463ffffffff1661057557805471ffffffffffffffffff0000000000000000001916600160481b4363ffffffff160264ffffffffff60681b191617600160681b4264ffffffffff16021781555b80544363ffffffff1668ffffffffffffffffff19909116176401000000004264ffffffffff1602176bffffffffffffffffffffffff60901b1916600160901b6001600160501b0386160261ffff60e01b191617600160e01b61ffff8516021781556004810180546001600160a01b0319166001600160a01b038716179055610602600182018360036106cc565b50505050505050565b6001600160a01b038083166000908152602081815260408083209385168352929052908120805463ffffffff1661027e576001600160a01b03938416600090815260016020818152604083208054928301815583529091200180546001600160a01b0319169390941692909217909255919050565b6040805161010081018252600080825260208201819052918101829052606081018290526080810182905260a081019190915260c081016106bf61070a565b8152600060209091015290565b82600381019282156106fa579160200282015b828111156106fa5782358255916020019190600101906106df565b50610706929150610728565b5090565b60405180606001604052806003906020820280368337509192915050565b5b808211156107065760008155600101610729565b80356001600160a01b038116811461075457600080fd5b919050565b6000806040838503121561076c57600080fd5b6107758361073d565b91506107836020840161073d565b90509250929050565b600080600080608085870312156107a257600080fd5b6107ab8561073d565b966020860135965060408601359560600135945092505050565b60008060008060c085870312156107db57600080fd5b6107e48561073d565b935060208501356001600160501b038116811461080057600080fd5b9250604085013561ffff8116811461081757600080fd5b915060c0850186101561082957600080fd5b509194909350909160600190565b60006020828403121561084957600080fd5b81356001600160e01b03198116811461027e57600080fd5b8060005b6003811015610884578151845260209384019390910190600101610865565b50505050565b63ffffffff808251168352602082015164ffffffffff80821660208601528260408501511660408601528060608501511660608601525050506001600160501b03608082015116608083015260a08101516108eb60a084018261ffff169052565b5060c08101516108fe60c0840182610861565b5060e001516001600160a01b03166101209190910152565b6020808252825182820181905260009190848201906040850190845b818110156109595761094583855161088a565b928401926101409290920191600101610932565b50909695505050505050565b6101408101610137828461088a565b6001600160501b038416815261ffff8316602082015260a08101606083604084013760008152949350505050565b60006000198214156109c457634e487b7160e01b600052601160045260246000fd5b5060010190565b634e487b7160e01b600052603260045260246000fd5b634e487b7160e01b600052604160045260246000fdfea2646970667358221220ca58325705943d915b334c89e2e0e463d75c1ed6ba85f7fa10f50a87ebc0691764736f6c63430008070033",
  "devdoc": {
    "kind": "dev",
    "methods": {
      "getCreationBlock()": {
        "returns": {
          "_0": "The block number in which the contract has been deployed."
        }
      },
      "getRelayInfo(address,address)": {
        "params": {
          "relayHub": "The address of the `RelayHub` contract for which this action is performed.",
          "relayManager": "An address of a Relay Manager."
        },
        "returns": {
          "_0": "All the details of the given Relay Manager's registration. Throws if relay not found for `RelayHub`."
        }
      },
      "readRelayInfos(address,uint256,uint256,uint256)": {
        "params": {
          "maxCount": "The maximum amount of relays to be returned by this function.",
          "oldestBlockNumber": "The latest block number in which a Relay Server may be registered.",
          "oldestBlockTimestamp": "The latest block timestamp in which a Relay Server may be registered.",
          "relayHub": "The address of the `RelayHub` contract for which this action is performed."
        },
        "returns": {
          "info": "The list of `RelayInfo`s of registered Relay Servers"
        }
      },
      "registerRelayServer(address,uint80,uint16,bytes32[3])": {
        "params": {
          "baseRelayFee": "The base fee the Relay Server charges for a single transaction in Ether, in wei.",
          "pctRelayFee": "The percent of the total charge to add as a Relay Server fee to the total charge.",
          "relayHub": "The address of the `RelayHub` contract for which this action is performed.",
          "url": "The URL of the Relay Server that is listening to the clients' requests."
        }
      },
      "supportsInterface(bytes4)": {
        "details": "Returns true if this contract implements the interface defined by `interfaceId`. See the corresponding https://eips.ethereum.org/EIPS/eip-165#how-interfaces-are-identified[EIP section] to learn more about how these ids are created. This function call must use less than 30 000 gas."
      }
    },
    "title": "The RelayRegistrar Implementation",
    "version": 1
  },
  "userdoc": {
    "events": {
      "RelayServerRegistered(address,uint256,uint256,bytes32[3])": {
        "notice": "Emitted when a relay server registers or updates its details. Looking up these events allows a client to discover registered Relay Servers."
      }
    },
    "kind": "user",
    "methods": {
      "readRelayInfos(address,uint256,uint256,uint256)": {
        "notice": "Read relay info of registered Relay Server from an on-chain storage."
      },
      "registerRelayServer(address,uint80,uint16,bytes32[3])": {
        "notice": "This function is called by Relay Servers in order to register or to update their registration."
      }
    },
    "notice": "Keeps a list of registered relayers.Provides view functions to read the list of registered relayers and filters out invalid ones.Protects the list from spamming entries: only staked relayers are added.",
    "version": 1
  },
  "storageLayout": {
    "storage": [
      {
        "astId": 10836,
        "contract": "contracts-link/utils/RelayRegistrar.sol:RelayRegistrar",
        "label": "values",
        "offset": 0,
        "slot": "0",
        "type": "t_mapping(t_address,t_mapping(t_address,t_struct(RelayInfo)7502_storage))"
      },
      {
        "astId": 10842,
        "contract": "contracts-link/utils/RelayRegistrar.sol:RelayRegistrar",
        "label": "indexedValues",
        "offset": 0,
        "slot": "1",
        "type": "t_mapping(t_address,t_array(t_address)dyn_storage)"
      }
    ],
    "types": {
      "t_address": {
        "encoding": "inplace",
        "label": "address",
        "numberOfBytes": "20"
      },
      "t_array(t_address)dyn_storage": {
        "base": "t_address",
        "encoding": "dynamic_array",
        "label": "address[]",
        "numberOfBytes": "32"
      },
      "t_array(t_bytes32)3_storage": {
        "base": "t_bytes32",
        "encoding": "inplace",
        "label": "bytes32[3]",
        "numberOfBytes": "96"
      },
      "t_bytes32": {
        "encoding": "inplace",
        "label": "bytes32",
        "numberOfBytes": "32"
      },
      "t_mapping(t_address,t_array(t_address)dyn_storage)": {
        "encoding": "mapping",
        "key": "t_address",
        "label": "mapping(address => address[])",
        "numberOfBytes": "32",
        "value": "t_array(t_address)dyn_storage"
      },
      "t_mapping(t_address,t_mapping(t_address,t_struct(RelayInfo)7502_storage))": {
        "encoding": "mapping",
        "key": "t_address",
        "label": "mapping(address => mapping(address => struct IRelayRegistrar.RelayInfo))",
        "numberOfBytes": "32",
        "value": "t_mapping(t_address,t_struct(RelayInfo)7502_storage)"
      },
      "t_mapping(t_address,t_struct(RelayInfo)7502_storage)": {
        "encoding": "mapping",
        "key": "t_address",
        "label": "mapping(address => struct IRelayRegistrar.RelayInfo)",
        "numberOfBytes": "32",
        "value": "t_struct(RelayInfo)7502_storage"
      },
      "t_struct(RelayInfo)7502_storage": {
        "encoding": "inplace",
        "label": "struct IRelayRegistrar.RelayInfo",
        "members": [
          {
            "astId": 7485,
            "contract": "contracts-link/utils/RelayRegistrar.sol:RelayRegistrar",
            "label": "lastSeenBlockNumber",
            "offset": 0,
            "slot": "0",
            "type": "t_uint32"
          },
          {
            "astId": 7487,
            "contract": "contracts-link/utils/RelayRegistrar.sol:RelayRegistrar",
            "label": "lastSeenTimestamp",
            "offset": 4,
            "slot": "0",
            "type": "t_uint40"
          },
          {
            "astId": 7489,
            "contract": "contracts-link/utils/RelayRegistrar.sol:RelayRegistrar",
            "label": "firstSeenBlockNumber",
            "offset": 9,
            "slot": "0",
            "type": "t_uint32"
          },
          {
            "astId": 7491,
            "contract": "contracts-link/utils/RelayRegistrar.sol:RelayRegistrar",
            "label": "firstSeenTimestamp",
            "offset": 13,
            "slot": "0",
            "type": "t_uint40"
          },
          {
            "astId": 7493,
            "contract": "contracts-link/utils/RelayRegistrar.sol:RelayRegistrar",
            "label": "baseRelayFee",
            "offset": 18,
            "slot": "0",
            "type": "t_uint80"
          },
          {
            "astId": 7495,
            "contract": "contracts-link/utils/RelayRegistrar.sol:RelayRegistrar",
            "label": "pctRelayFee",
            "offset": 28,
            "slot": "0",
            "type": "t_uint16"
          },
          {
            "astId": 7499,
            "contract": "contracts-link/utils/RelayRegistrar.sol:RelayRegistrar",
            "label": "urlParts",
            "offset": 0,
            "slot": "1",
            "type": "t_array(t_bytes32)3_storage"
          },
          {
            "astId": 7501,
            "contract": "contracts-link/utils/RelayRegistrar.sol:RelayRegistrar",
            "label": "relayManager",
            "offset": 0,
            "slot": "4",
            "type": "t_address"
          }
        ],
        "numberOfBytes": "160"
      },
      "t_uint16": {
        "encoding": "inplace",
        "label": "uint16",
        "numberOfBytes": "2"
      },
      "t_uint32": {
        "encoding": "inplace",
        "label": "uint32",
        "numberOfBytes": "4"
      },
      "t_uint40": {
        "encoding": "inplace",
        "label": "uint40",
        "numberOfBytes": "5"
      },
      "t_uint80": {
        "encoding": "inplace",
        "label": "uint80",
        "numberOfBytes": "10"
      }
    }
  }
}