{
  "address": "0x18d3d16Aa5e3766F4cc942C7F743FD086f75E411",
  "abi": [
    {
      "inputs": [
        {
          "internalType": "contract IStakeManager",
          "name": "_stakeManager",
          "type": "address"
        },
        {
          "internalType": "address",
          "name": "_penalizer",
          "type": "address"
        },
        {
          "components": [
            {
              "internalType": "uint256",
              "name": "maxWorkerCount",
              "type": "uint256"
            },
            {
              "internalType": "uint256",
              "name": "gasReserve",
              "type": "uint256"
            },
            {
              "internalType": "uint256",
              "name": "postOverhead",
              "type": "uint256"
            },
            {
              "internalType": "uint256",
              "name": "gasOverhead",
              "type": "uint256"
            },
            {
              "internalType": "uint256",
              "name": "maximumRecipientDeposit",
              "type": "uint256"
            },
            {
              "internalType": "uint256",
              "name": "minimumUnstakeDelay",
              "type": "uint256"
            },
            {
              "internalType": "uint256",
              "name": "minimumStake",
              "type": "uint256"
            }
          ],
          "internalType": "struct IRelayHub.RelayHubConfig",
          "name": "_config",
          "type": "tuple"
        }
      ],
      "stateMutability": "nonpayable",
      "type": "constructor"
    },
    {
      "anonymous": false,
      "inputs": [
        {
          "indexed": true,
          "internalType": "address",
          "name": "paymaster",
          "type": "address"
        },
        {
          "indexed": true,
          "internalType": "address",
          "name": "from",
          "type": "address"
        },
        {
          "indexed": false,
          "internalType": "uint256",
          "name": "amount",
          "type": "uint256"
        }
      ],
      "name": "Deposited",
      "type": "event"
    },
    {
      "anonymous": false,
      "inputs": [
        {
          "indexed": false,
          "internalType": "uint256",
          "name": "fromBlock",
          "type": "uint256"
        }
      ],
      "name": "HubDeprecated",
      "type": "event"
    },
    {
      "anonymous": false,
      "inputs": [
        {
          "indexed": true,
          "internalType": "address",
          "name": "previousOwner",
          "type": "address"
        },
        {
          "indexed": true,
          "internalType": "address",
          "name": "newOwner",
          "type": "address"
        }
      ],
      "name": "OwnershipTransferred",
      "type": "event"
    },
    {
      "anonymous": false,
      "inputs": [
        {
          "components": [
            {
              "internalType": "uint256",
              "name": "maxWorkerCount",
              "type": "uint256"
            },
            {
              "internalType": "uint256",
              "name": "gasReserve",
              "type": "uint256"
            },
            {
              "internalType": "uint256",
              "name": "postOverhead",
              "type": "uint256"
            },
            {
              "internalType": "uint256",
              "name": "gasOverhead",
              "type": "uint256"
            },
            {
              "internalType": "uint256",
              "name": "maximumRecipientDeposit",
              "type": "uint256"
            },
            {
              "internalType": "uint256",
              "name": "minimumUnstakeDelay",
              "type": "uint256"
            },
            {
              "internalType": "uint256",
              "name": "minimumStake",
              "type": "uint256"
            }
          ],
          "indexed": false,
          "internalType": "struct IRelayHub.RelayHubConfig",
          "name": "config",
          "type": "tuple"
        }
      ],
      "name": "RelayHubConfigured",
      "type": "event"
    },
    {
      "anonymous": false,
      "inputs": [
        {
          "indexed": true,
          "internalType": "address",
          "name": "relayManager",
          "type": "address"
        },
        {
          "indexed": false,
          "internalType": "address[]",
          "name": "newRelayWorkers",
          "type": "address[]"
        },
        {
          "indexed": false,
          "internalType": "uint256",
          "name": "workersCount",
          "type": "uint256"
        }
      ],
      "name": "RelayWorkersAdded",
      "type": "event"
    },
    {
      "anonymous": false,
      "inputs": [
        {
          "indexed": true,
          "internalType": "address",
          "name": "relayManager",
          "type": "address"
        },
        {
          "indexed": true,
          "internalType": "address",
          "name": "paymaster",
          "type": "address"
        },
        {
          "indexed": true,
          "internalType": "address",
          "name": "from",
          "type": "address"
        },
        {
          "indexed": false,
          "internalType": "address",
          "name": "to",
          "type": "address"
        },
        {
          "indexed": false,
          "internalType": "address",
          "name": "relayWorker",
          "type": "address"
        },
        {
          "indexed": false,
          "internalType": "bytes4",
          "name": "selector",
          "type": "bytes4"
        },
        {
          "indexed": false,
          "internalType": "uint256",
          "name": "innerGasUsed",
          "type": "uint256"
        },
        {
          "indexed": false,
          "internalType": "bytes",
          "name": "reason",
          "type": "bytes"
        }
      ],
      "name": "TransactionRejectedByPaymaster",
      "type": "event"
    },
    {
      "anonymous": false,
      "inputs": [
        {
          "indexed": true,
          "internalType": "address",
          "name": "relayManager",
          "type": "address"
        },
        {
          "indexed": true,
          "internalType": "address",
          "name": "relayWorker",
          "type": "address"
        },
        {
          "indexed": true,
          "internalType": "address",
          "name": "from",
          "type": "address"
        },
        {
          "indexed": false,
          "internalType": "address",
          "name": "to",
          "type": "address"
        },
        {
          "indexed": false,
          "internalType": "address",
          "name": "paymaster",
          "type": "address"
        },
        {
          "indexed": false,
          "internalType": "bytes4",
          "name": "selector",
          "type": "bytes4"
        },
        {
          "indexed": false,
          "internalType": "enum IRelayHub.RelayCallStatus",
          "name": "status",
          "type": "uint8"
        },
        {
          "indexed": false,
          "internalType": "uint256",
          "name": "charge",
          "type": "uint256"
        }
      ],
      "name": "TransactionRelayed",
      "type": "event"
    },
    {
      "anonymous": false,
      "inputs": [
        {
          "indexed": false,
          "internalType": "enum IRelayHub.RelayCallStatus",
          "name": "status",
          "type": "uint8"
        },
        {
          "indexed": false,
          "internalType": "bytes",
          "name": "returnValue",
          "type": "bytes"
        }
      ],
      "name": "TransactionResult",
      "type": "event"
    },
    {
      "anonymous": false,
      "inputs": [
        {
          "indexed": true,
          "internalType": "address",
          "name": "account",
          "type": "address"
        },
        {
          "indexed": true,
          "internalType": "address",
          "name": "dest",
          "type": "address"
        },
        {
          "indexed": false,
          "internalType": "uint256",
          "name": "amount",
          "type": "uint256"
        }
      ],
      "name": "Withdrawn",
      "type": "event"
    },
    {
      "inputs": [
        {
          "internalType": "address[]",
          "name": "newRelayWorkers",
          "type": "address[]"
        }
      ],
      "name": "addRelayWorkers",
      "outputs": [],
      "stateMutability": "nonpayable",
      "type": "function"
    },
    {
      "inputs": [],
      "name": "aggregateGasleft",
      "outputs": [
        {
          "internalType": "uint256",
          "name": "",
          "type": "uint256"
        }
      ],
      "stateMutability": "view",
      "type": "function"
    },
    {
      "inputs": [
        {
          "internalType": "address",
          "name": "target",
          "type": "address"
        }
      ],
      "name": "balanceOf",
      "outputs": [
        {
          "internalType": "uint256",
          "name": "",
          "type": "uint256"
        }
      ],
      "stateMutability": "view",
      "type": "function"
    },
    {
      "inputs": [
        {
          "internalType": "uint256",
          "name": "gasUsed",
          "type": "uint256"
        },
        {
          "components": [
            {
              "internalType": "uint256",
              "name": "maxFeePerGas",
              "type": "uint256"
            },
            {
              "internalType": "uint256",
              "name": "maxPriorityFeePerGas",
              "type": "uint256"
            },
            {
              "internalType": "uint256",
              "name": "pctRelayFee",
              "type": "uint256"
            },
            {
              "internalType": "uint256",
              "name": "baseRelayFee",
              "type": "uint256"
            },
            {
              "internalType": "uint256",
              "name": "transactionCalldataGasUsed",
              "type": "uint256"
            },
            {
              "internalType": "address",
              "name": "relayWorker",
              "type": "address"
            },
            {
              "internalType": "address",
              "name": "paymaster",
              "type": "address"
            },
            {
              "internalType": "address",
              "name": "forwarder",
              "type": "address"
            },
            {
              "internalType": "bytes",
              "name": "paymasterData",
              "type": "bytes"
            },
            {
              "internalType": "uint256",
              "name": "clientId",
              "type": "uint256"
            }
          ],
          "internalType": "struct GsnTypes.RelayData",
          "name": "relayData",
          "type": "tuple"
        }
      ],
      "name": "calculateCharge",
      "outputs": [
        {
          "internalType": "uint256",
          "name": "",
          "type": "uint256"
        }
      ],
      "stateMutability": "view",
      "type": "function"
    },
    {
      "inputs": [
        {
          "internalType": "address",
          "name": "target",
          "type": "address"
        }
      ],
      "name": "depositFor",
      "outputs": [],
      "stateMutability": "payable",
      "type": "function"
    },
    {
      "inputs": [
        {
          "internalType": "uint256",
          "name": "fromBlock",
          "type": "uint256"
        }
      ],
      "name": "deprecateHub",
      "outputs": [],
      "stateMutability": "nonpayable",
      "type": "function"
    },
    {
      "inputs": [],
      "name": "deprecationBlock",
      "outputs": [
        {
          "internalType": "uint256",
          "name": "",
          "type": "uint256"
        }
      ],
      "stateMutability": "view",
      "type": "function"
    },
    {
      "inputs": [],
      "name": "getConfiguration",
      "outputs": [
        {
          "components": [
            {
              "internalType": "uint256",
              "name": "maxWorkerCount",
              "type": "uint256"
            },
            {
              "internalType": "uint256",
              "name": "gasReserve",
              "type": "uint256"
            },
            {
              "internalType": "uint256",
              "name": "postOverhead",
              "type": "uint256"
            },
            {
              "internalType": "uint256",
              "name": "gasOverhead",
              "type": "uint256"
            },
            {
              "internalType": "uint256",
              "name": "maximumRecipientDeposit",
              "type": "uint256"
            },
            {
              "internalType": "uint256",
              "name": "minimumUnstakeDelay",
              "type": "uint256"
            },
            {
              "internalType": "uint256",
              "name": "minimumStake",
              "type": "uint256"
            }
          ],
          "internalType": "struct IRelayHub.RelayHubConfig",
          "name": "",
          "type": "tuple"
        }
      ],
      "stateMutability": "view",
      "type": "function"
    },
    {
      "inputs": [
        {
          "components": [
            {
              "components": [
                {
                  "internalType": "address",
                  "name": "from",
                  "type": "address"
                },
                {
                  "internalType": "address",
                  "name": "to",
                  "type": "address"
                },
                {
                  "internalType": "uint256",
                  "name": "value",
                  "type": "uint256"
                },
                {
                  "internalType": "uint256",
                  "name": "gas",
                  "type": "uint256"
                },
                {
                  "internalType": "uint256",
                  "name": "nonce",
                  "type": "uint256"
                },
                {
                  "internalType": "bytes",
                  "name": "data",
                  "type": "bytes"
                },
                {
                  "internalType": "uint256",
                  "name": "validUntil",
                  "type": "uint256"
                }
              ],
              "internalType": "struct IForwarder.ForwardRequest",
              "name": "request",
              "type": "tuple"
            },
            {
              "components": [
                {
                  "internalType": "uint256",
                  "name": "maxFeePerGas",
                  "type": "uint256"
                },
                {
                  "internalType": "uint256",
                  "name": "maxPriorityFeePerGas",
                  "type": "uint256"
                },
                {
                  "internalType": "uint256",
                  "name": "pctRelayFee",
                  "type": "uint256"
                },
                {
                  "internalType": "uint256",
                  "name": "baseRelayFee",
                  "type": "uint256"
                },
                {
                  "internalType": "uint256",
                  "name": "transactionCalldataGasUsed",
                  "type": "uint256"
                },
                {
                  "internalType": "address",
                  "name": "relayWorker",
                  "type": "address"
                },
                {
                  "internalType": "address",
                  "name": "paymaster",
                  "type": "address"
                },
                {
                  "internalType": "address",
                  "name": "forwarder",
                  "type": "address"
                },
                {
                  "internalType": "bytes",
                  "name": "paymasterData",
                  "type": "bytes"
                },
                {
                  "internalType": "uint256",
                  "name": "clientId",
                  "type": "uint256"
                }
              ],
              "internalType": "struct GsnTypes.RelayData",
              "name": "relayData",
              "type": "tuple"
            }
          ],
          "internalType": "struct GsnTypes.RelayRequest",
          "name": "relayRequest",
          "type": "tuple"
        },
        {
          "internalType": "bytes",
          "name": "signature",
          "type": "bytes"
        },
        {
          "internalType": "bytes",
          "name": "approvalData",
          "type": "bytes"
        },
        {
          "components": [
            {
              "internalType": "uint256",
              "name": "acceptanceBudget",
              "type": "uint256"
            },
            {
              "internalType": "uint256",
              "name": "preRelayedCallGasLimit",
              "type": "uint256"
            },
            {
              "internalType": "uint256",
              "name": "postRelayedCallGasLimit",
              "type": "uint256"
            },
            {
              "internalType": "uint256",
              "name": "calldataSizeLimit",
              "type": "uint256"
            }
          ],
          "internalType": "struct IPaymaster.GasAndDataLimits",
          "name": "gasAndDataLimits",
          "type": "tuple"
        },
        {
          "internalType": "uint256",
          "name": "totalInitialGas",
          "type": "uint256"
        },
        {
          "internalType": "uint256",
          "name": "maxPossibleGas",
          "type": "uint256"
        }
      ],
      "name": "innerRelayCall",
      "outputs": [
        {
          "internalType": "enum IRelayHub.RelayCallStatus",
          "name": "",
          "type": "uint8"
        },
        {
          "internalType": "bytes",
          "name": "",
          "type": "bytes"
        }
      ],
      "stateMutability": "nonpayable",
      "type": "function"
    },
    {
      "inputs": [],
      "name": "isDeprecated",
      "outputs": [
        {
          "internalType": "bool",
          "name": "",
          "type": "bool"
        }
      ],
      "stateMutability": "view",
      "type": "function"
    },
    {
      "inputs": [
        {
          "internalType": "address",
          "name": "relayManager",
          "type": "address"
        }
      ],
      "name": "isRelayManagerStaked",
      "outputs": [
        {
          "internalType": "bool",
          "name": "",
          "type": "bool"
        }
      ],
      "stateMutability": "view",
      "type": "function"
    },
    {
      "inputs": [],
      "name": "owner",
      "outputs": [
        {
          "internalType": "address",
          "name": "",
          "type": "address"
        }
      ],
      "stateMutability": "view",
      "type": "function"
    },
    {
      "inputs": [
        {
          "internalType": "address",
          "name": "relayWorker",
          "type": "address"
        },
        {
          "internalType": "address payable",
          "name": "beneficiary",
          "type": "address"
        }
      ],
      "name": "penalize",
      "outputs": [],
      "stateMutability": "nonpayable",
      "type": "function"
    },
    {
      "inputs": [],
      "name": "penalizer",
      "outputs": [
        {
          "internalType": "address",
          "name": "",
          "type": "address"
        }
      ],
      "stateMutability": "view",
      "type": "function"
    },
    {
      "inputs": [
        {
          "internalType": "uint256",
          "name": "maxAcceptanceBudget",
          "type": "uint256"
        },
        {
          "components": [
            {
              "components": [
                {
                  "internalType": "address",
                  "name": "from",
                  "type": "address"
                },
                {
                  "internalType": "address",
                  "name": "to",
                  "type": "address"
                },
                {
                  "internalType": "uint256",
                  "name": "value",
                  "type": "uint256"
                },
                {
                  "internalType": "uint256",
                  "name": "gas",
                  "type": "uint256"
                },
                {
                  "internalType": "uint256",
                  "name": "nonce",
                  "type": "uint256"
                },
                {
                  "internalType": "bytes",
                  "name": "data",
                  "type": "bytes"
                },
                {
                  "internalType": "uint256",
                  "name": "validUntil",
                  "type": "uint256"
                }
              ],
              "internalType": "struct IForwarder.ForwardRequest",
              "name": "request",
              "type": "tuple"
            },
            {
              "components": [
                {
                  "internalType": "uint256",
                  "name": "maxFeePerGas",
                  "type": "uint256"
                },
                {
                  "internalType": "uint256",
                  "name": "maxPriorityFeePerGas",
                  "type": "uint256"
                },
                {
                  "internalType": "uint256",
                  "name": "pctRelayFee",
                  "type": "uint256"
                },
                {
                  "internalType": "uint256",
                  "name": "baseRelayFee",
                  "type": "uint256"
                },
                {
                  "internalType": "uint256",
                  "name": "transactionCalldataGasUsed",
                  "type": "uint256"
                },
                {
                  "internalType": "address",
                  "name": "relayWorker",
                  "type": "address"
                },
                {
                  "internalType": "address",
                  "name": "paymaster",
                  "type": "address"
                },
                {
                  "internalType": "address",
                  "name": "forwarder",
                  "type": "address"
                },
                {
                  "internalType": "bytes",
                  "name": "paymasterData",
                  "type": "bytes"
                },
                {
                  "internalType": "uint256",
                  "name": "clientId",
                  "type": "uint256"
                }
              ],
              "internalType": "struct GsnTypes.RelayData",
              "name": "relayData",
              "type": "tuple"
            }
          ],
          "internalType": "struct GsnTypes.RelayRequest",
          "name": "relayRequest",
          "type": "tuple"
        },
        {
          "internalType": "bytes",
          "name": "signature",
          "type": "bytes"
        },
        {
          "internalType": "bytes",
          "name": "approvalData",
          "type": "bytes"
        }
      ],
      "name": "relayCall",
      "outputs": [
        {
          "internalType": "bool",
          "name": "paymasterAccepted",
          "type": "bool"
        },
        {
          "internalType": "bytes",
          "name": "returnValue",
          "type": "bytes"
        }
      ],
      "stateMutability": "nonpayable",
      "type": "function"
    },
    {
      "inputs": [],
      "name": "relayRegistrar",
      "outputs": [
        {
          "internalType": "address",
          "name": "",
          "type": "address"
        }
      ],
      "stateMutability": "view",
      "type": "function"
    },
    {
      "inputs": [],
      "name": "renounceOwnership",
      "outputs": [],
      "stateMutability": "nonpayable",
      "type": "function"
    },
    {
      "inputs": [
        {
          "components": [
            {
              "internalType": "uint256",
              "name": "maxWorkerCount",
              "type": "uint256"
            },
            {
              "internalType": "uint256",
              "name": "gasReserve",
              "type": "uint256"
            },
            {
              "internalType": "uint256",
              "name": "postOverhead",
              "type": "uint256"
            },
            {
              "internalType": "uint256",
              "name": "gasOverhead",
              "type": "uint256"
            },
            {
              "internalType": "uint256",
              "name": "maximumRecipientDeposit",
              "type": "uint256"
            },
            {
              "internalType": "uint256",
              "name": "minimumUnstakeDelay",
              "type": "uint256"
            },
            {
              "internalType": "uint256",
              "name": "minimumStake",
              "type": "uint256"
            }
          ],
          "internalType": "struct IRelayHub.RelayHubConfig",
          "name": "_config",
          "type": "tuple"
        }
      ],
      "name": "setConfiguration",
      "outputs": [],
      "stateMutability": "nonpayable",
      "type": "function"
    },
    {
      "inputs": [
        {
          "internalType": "address",
          "name": "_relayRegistrar",
          "type": "address"
        }
      ],
      "name": "setRegistrar",
      "outputs": [],
      "stateMutability": "nonpayable",
      "type": "function"
    },
    {
      "inputs": [],
      "name": "stakeManager",
      "outputs": [
        {
          "internalType": "contract IStakeManager",
          "name": "",
          "type": "address"
        }
      ],
      "stateMutability": "view",
      "type": "function"
    },
    {
      "inputs": [
        {
          "internalType": "address",
          "name": "newOwner",
          "type": "address"
        }
      ],
      "name": "transferOwnership",
      "outputs": [],
      "stateMutability": "nonpayable",
      "type": "function"
    },
    {
      "inputs": [
        {
          "internalType": "address",
          "name": "relayManager",
          "type": "address"
        }
      ],
      "name": "verifyCanRegister",
      "outputs": [],
      "stateMutability": "view",
      "type": "function"
    },
    {
      "inputs": [],
      "name": "versionHub",
      "outputs": [
        {
          "internalType": "string",
          "name": "",
          "type": "string"
        }
      ],
      "stateMutability": "pure",
      "type": "function"
    },
    {
      "inputs": [
        {
          "internalType": "uint256",
          "name": "amount",
          "type": "uint256"
        },
        {
          "internalType": "address payable",
          "name": "dest",
          "type": "address"
        }
      ],
      "name": "withdraw",
      "outputs": [],
      "stateMutability": "nonpayable",
      "type": "function"
    },
    {
      "inputs": [
        {
          "internalType": "address",
          "name": "",
          "type": "address"
        }
      ],
      "name": "workerCount",
      "outputs": [
        {
          "internalType": "uint256",
          "name": "",
          "type": "uint256"
        }
      ],
      "stateMutability": "view",
      "type": "function"
    },
    {
      "inputs": [
        {
          "internalType": "address",
          "name": "",
          "type": "address"
        }
      ],
      "name": "workerToManager",
      "outputs": [
        {
          "internalType": "address",
          "name": "",
          "type": "address"
        }
      ],
      "stateMutability": "view",
      "type": "function"
    }
  ],
  "transactionHash": "0x480f308a2ed605352218a3e6ecda39d19834c6c503fb1247b8af13b954d266fc",
  "args": [
    "0xDFF48025A15644cB0785f9DF2fc410AaFe5298A0",
    "0xEB328Be95453887de1eb8941413A57dEbC4ee060",
    {
      "gasOverhead": 54771,
      "postOverhead": 19073,
      "gasReserve": 100000,
      "maxWorkerCount": 10,
      "minimumStake": "1000000000000000000",
      "minimumUnstakeDelay": 1000,
      "maximumRecipientDeposit": "2000000000000000000"
    }
  ],
  "solcInputHash": "2b74409e524faa93088ff07f1d3d6aa4",
  "bytecode": "0x60c06040527fffffffffffffffffffffffffffffffffffffffffffffffffffffffffffffffff600c553480156200003557600080fd5b50604051620066933803806200669383398181016040528101906200005b91906200041c565b6200007b6200006f6200010360201b60201c565b6200010b60201b60201c565b8273ffffffffffffffffffffffffffffffffffffffff1660808173ffffffffffffffffffffffffffffffffffffffff1660601b815250508173ffffffffffffffffffffffffffffffffffffffff1660a08173ffffffffffffffffffffffffffffffffffffffff1660601b81525050620000fa81620001cf60201b60201c565b505050620007a1565b600033905090565b60008060009054906101000a900473ffffffffffffffffffffffffffffffffffffffff169050816000806101000a81548173ffffffffffffffffffffffffffffffffffffffff021916908373ffffffffffffffffffffffffffffffffffffffff1602179055508173ffffffffffffffffffffffffffffffffffffffff168173ffffffffffffffffffffffffffffffffffffffff167f8be0079c531659141344cd1fd0a4f28419497f9722a3daafe3b4186f6b6457e060405160405180910390a35050565b620001df6200010360201b60201c565b73ffffffffffffffffffffffffffffffffffffffff1662000205620002e760201b60201c565b73ffffffffffffffffffffffffffffffffffffffff16146200025e576040517f08c379a00000000000000000000000000000000000000000000000000000000081526004016200025590620005aa565b60405180910390fd5b806002600082015181600001556020820151816001015560408201518160020155606082015181600301556080820151816004015560a0820151816005015560c082015181600601559050507f3b281b96c6a42b22e879f0c4e218ec8910831b08589a1476d18832061eb909476002604051620002dc9190620005cc565b60405180910390a150565b60008060009054906101000a900473ffffffffffffffffffffffffffffffffffffffff16905090565b600081519050620003218162000753565b92915050565b60008151905062000338816200076d565b92915050565b600060e0828403121562000357576200035662000702565b5b6200036360e0620005e9565b90506000620003758482850162000405565b60008301525060206200038b8482850162000405565b6020830152506040620003a18482850162000405565b6040830152506060620003b78482850162000405565b6060830152506080620003cd8482850162000405565b60808301525060a0620003e38482850162000405565b60a08301525060c0620003f98482850162000405565b60c08301525092915050565b600081519050620004168162000787565b92915050565b6000806000610120848603121562000439576200043862000707565b5b6000620004498682870162000327565b93505060206200045c8682870162000310565b92505060406200046f868287016200033e565b9150509250925092565b60006200048860208362000612565b915062000495826200072a565b602082019050919050565b60e082016000808301549050620004b7816200067f565b620004c6600086018262000599565b5060018301549050620004d9816200067f565b620004e8602086018262000599565b5060028301549050620004fb816200067f565b6200050a604086018262000599565b50600383015490506200051d816200067f565b6200052c606086018262000599565b50600483015490506200053f816200067f565b6200054e608086018262000599565b506005830154905062000561816200067f565b6200057060a086018262000599565b506006830154905062000583816200067f565b6200059260c086018262000599565b5050505050565b620005a48162000675565b82525050565b60006020820190508181036000830152620005c58162000479565b9050919050565b600060e082019050620005e36000830184620004a0565b92915050565b6000620005f562000608565b90506200060382826200069d565b919050565b6000604051905090565b600082825260208201905092915050565b6000819050919050565b60006200063a8262000655565b9050919050565b60006200064e826200062d565b9050919050565b600073ffffffffffffffffffffffffffffffffffffffff82169050919050565b6000819050919050565b60006200069662000690836200071d565b62000623565b9050919050565b620006a8826200070c565b810181811067ffffffffffffffff82111715620006ca57620006c9620006d3565b5b80604052505050565b7f4e487b7100000000000000000000000000000000000000000000000000000000600052604160045260246000fd5b600080fd5b600080fd5b6000601f19601f8301169050919050565b60008160001c9050919050565b7f4f776e61626c653a2063616c6c6572206973206e6f7420746865206f776e6572600082015250565b6200075e816200062d565b81146200076a57600080fd5b50565b620007788162000641565b81146200078457600080fd5b50565b620007928162000675565b81146200079e57600080fd5b50565b60805160601c60a05160601c615eaa620007e9600039600081816116c6015261227001526000818161081901528181610bce015281816123d401526124c60152615eaa6000f3fe6080604052600436106101805760003560e01c8063aa67c919116100d1578063d17da3e81161008a578063ebcd31ac11610064578063ebcd31ac1461058c578063f2fde38b146105b5578063f8ba1e98146105de578063faab9d391461060757610180565b8063d17da3e8146104f8578063d6a71c0d14610536578063d904c7321461056157610180565b8063aa67c919146103f7578063af595dfc14610413578063c2da07861461043c578063c4775a6814610465578063c717823014610490578063ca998f56146104bb57610180565b806370a082311161013e5780637542ff95116101185780637542ff95146103385780638da5cb5b1461036357806399d698061461038e5780639b199b86146103b957610180565b806370a08231146102bb578063715018a6146102f8578063753ed0551461030f57610180565b8062f714ce14610185578063194ac307146101ae5780632ad311b5146101eb57806345bdade71461022857806368738b47146102535780636bd50cef14610290575b600080fd5b34801561019157600080fd5b506101ac60048036038101906101a79190613bc4565b610630565b005b3480156101ba57600080fd5b506101d560048036038101906101d09190613828565b6107fd565b6040516101e291906151a5565b60405180910390f35b3480156101f757600080fd5b50610212600480360381019061020d9190613828565b610815565b60405161021f9190614b36565b60405180910390f35b34801561023457600080fd5b5061023d6108d7565b60405161024a91906151a5565b60405180910390f35b34801561025f57600080fd5b5061027a60048036038101906102759190613c04565b6108df565b60405161028791906151a5565b60405180910390f35b34801561029c57600080fd5b506102a5610998565b6040516102b29190615095565b60405180910390f35b3480156102c757600080fd5b506102e260048036038101906102dd9190613828565b6109f8565b6040516102ef91906151a5565b60405180910390f35b34801561030457600080fd5b5061030d610a41565b005b34801561031b57600080fd5b5061033660048036038101906103319190613a50565b610ac9565b005b34801561034457600080fd5b5061034d610bcc565b60405161035a9190614cde565b60405180910390f35b34801561036f57600080fd5b50610378610bf0565b60405161038591906149c0565b60405180910390f35b34801561039a57600080fd5b506103a3610c19565b6040516103b091906149c0565b60405180910390f35b3480156103c557600080fd5b506103e060048036038101906103db9190613a7d565b610c3f565b6040516103ee929190614cf9565b60405180910390f35b610411600480360381019061040c9190613828565b611139565b005b34801561041f57600080fd5b5061043a60048036038101906104359190613b97565b611284565b005b34801561044857600080fd5b50610463600480360381019061045e9190613895565b611385565b005b34801561047157600080fd5b5061047a6116c4565b60405161048791906149c0565b60405180910390f35b34801561049c57600080fd5b506104a56116e8565b6040516104b29190614b36565b60405180910390f35b3480156104c757600080fd5b506104e260048036038101906104dd9190613828565b6116f5565b6040516104ef91906149c0565b60405180910390f35b34801561050457600080fd5b5061051f600480360381019061051a9190613c60565b611728565b60405161052d929190614b51565b60405180910390f35b34801561054257600080fd5b5061054b612248565b60405161055891906151a5565b60405180910390f35b34801561056d57600080fd5b5061057661224e565b6040516105839190614d29565b60405180910390f35b34801561059857600080fd5b506105b360048036038101906105ae9190613855565b61226e565b005b3480156105c157600080fd5b506105dc60048036038101906105d79190613828565b61255d565b005b3480156105ea57600080fd5b5061060560048036038101906106009190613828565b612655565b005b34801561061357600080fd5b5061062e60048036038101906106299190613828565b612722565b005b600033905082600b60008373ffffffffffffffffffffffffffffffffffffffff1673ffffffffffffffffffffffffffffffffffffffff1681526020019081526020016000205410156106b7576040517f08c379a00000000000000000000000000000000000000000000000000000000081526004016106ae90614f4b565b60405180910390fd5b61070983600b60008473ffffffffffffffffffffffffffffffffffffffff1673ffffffffffffffffffffffffffffffffffffffff1681526020019081526020016000205461287390919063ffffffff16565b600b60008373ffffffffffffffffffffffffffffffffffffffff1673ffffffffffffffffffffffffffffffffffffffff168152602001908152602001600020819055508173ffffffffffffffffffffffffffffffffffffffff166108fc849081150290604051600060405180830381858888f19350505050158015610792573d6000803e3d6000fd5b508173ffffffffffffffffffffffffffffffffffffffff168173ffffffffffffffffffffffffffffffffffffffff167fd1c19fbcd4551a5edfb66d43d2e337c04837afda3482b42bdf569a8fccdae5fb856040516107f091906151a5565b60405180910390a3505050565b600a6020528060005260406000206000915090505481565b60007f000000000000000000000000000000000000000000000000000000000000000073ffffffffffffffffffffffffffffffffffffffff16636de8dd4183306002600601546002600501546040518563ffffffff1660e01b81526004016108809493929190614abf565b60206040518083038186803b15801561089857600080fd5b505afa1580156108ac573d6000803e3d6000fd5b505050506040513d601f19601f820116820180604052508101906108d091906138e2565b9050919050565b60005a905090565b6000808260200135836000013514156108fb57600090506108ff565b4890505b600061092784600001356109223a87602001358661091d9190615433565b612889565b612889565b905061098e61097b606461096d61094c606489604001356128a290919063ffffffff16565b61095f868b6128b890919063ffffffff16565b6128b890919063ffffffff16565b6128ce90919063ffffffff16565b85606001356128a290919063ffffffff16565b9250505092915050565b6109a061330f565b60026040518060e0016040529081600082015481526020016001820154815260200160028201548152602001600382015481526020016004820154815260200160058201548152602001600682015481525050905090565b6000600b60008373ffffffffffffffffffffffffffffffffffffffff1673ffffffffffffffffffffffffffffffffffffffff168152602001908152602001600020549050919050565b610a496128e4565b73ffffffffffffffffffffffffffffffffffffffff16610a67610bf0565b73ffffffffffffffffffffffffffffffffffffffff1614610abd576040517f08c379a0000000000000000000000000000000000000000000000000000000008152600401610ab490614eeb565b60405180910390fd5b610ac760006128ec565b565b610ad16128e4565b73ffffffffffffffffffffffffffffffffffffffff16610aef610bf0565b73ffffffffffffffffffffffffffffffffffffffff1614610b45576040517f08c379a0000000000000000000000000000000000000000000000000000000008152600401610b3c90614eeb565b60405180910390fd5b806002600082015181600001556020820151816001015560408201518160020155606082015181600301556080820151816004015560a0820151816005015560c082015181600601559050507f3b281b96c6a42b22e879f0c4e218ec8910831b08589a1476d18832061eb909476002604051610bc191906150b0565b60405180910390a150565b7f000000000000000000000000000000000000000000000000000000000000000081565b60008060009054906101000a900473ffffffffffffffffffffffffffffffffffffffff16905090565b600160009054906101000a900473ffffffffffffffffffffffffffffffffffffffff1681565b60006060610c4b61334c565b610c536108d7565b8160000181815250505a85610c689190615514565b8160200181815250503073ffffffffffffffffffffffffffffffffffffffff163373ffffffffffffffffffffffffffffffffffffffff1614610cdf576040517f08c379a0000000000000000000000000000000000000000000000000000000008152600401610cd690614e0b565b60405180910390fd5b600b60008c8060200190610cf3919061524b565b60c0016020810190610d059190613828565b73ffffffffffffffffffffffffffffffffffffffff1673ffffffffffffffffffffffffffffffffffffffff168152602001908152602001600020548160400181815250506386bf413f60e01b8b8b8b8b8b89604051602401610d6c96959493929190615147565b604051602081830303815290604052907bffffffffffffffffffffffffffffffffffffffffffffffffffffffff19166020820180517bffffffffffffffffffffffffffffffffffffffffffffffffffffffff83818316178352505050508160e00181905250600060608c8060200190610de5919061524b565b60c0016020810190610df79190613828565b73ffffffffffffffffffffffffffffffffffffffff1688602001358460e00151604051610e249190614940565b60006040518083038160008787f1925050503d8060008114610e62576040519150601f19603f3d011682016040523d82523d6000602084013e610e67565b606091505b50809250819350505081610e8a57610e7e816129b0565b610e896002826129bf565b5b80806020019051810190610e9e919061396b565b8460c00185610100018215151515815250829052505050506000610ec38c8c8c6129f8565b846080018560a001829052821515151581525082935050505080610ef157610ef060038360a001516129bf565b5b8161010001518015610f0557508160800151155b15610f1a57610f1960048360a001516129bf565b5b5063edb7bf1360e01b8160c001518260800151610f356108d7565b8460000151610f449190615514565b8460200151610f539190615433565b8e8060200190610f63919061524b565b604051602401610f769493929190614c8b565b604051602081830303815290604052907bffffffffffffffffffffffffffffffffffffffffffffffffffffffff19166020820180517bffffffffffffffffffffffffffffffffffffffffffffffffffffffff83818316178352505050508160e001819052506000808c8060200190610fee919061524b565b60c00160208101906110009190613828565b73ffffffffffffffffffffffffffffffffffffffff1688604001358460e0015160405161102d9190614940565b60006040518083038160008787f1925050503d806000811461106b576040519150601f19603f3d011682016040523d82523d6000602084013e611070565b606091505b509150915081611086576110856005826129bf565b5b50508060400151600b60008d80602001906110a1919061524b565b60c00160208101906110b39190613828565b73ffffffffffffffffffffffffffffffffffffffff1673ffffffffffffffffffffffffffffffffffffffff16815260200190815260200160002054101561110f5761110e6006604051806020016040528060008152506129bf565b5b806080015161111f576001611122565b60005b8160a0015192509250509850989650505050505050565b6000349050600260040154811115611186576040517f08c379a000000000000000000000000000000000000000000000000000000000815260040161117d90614e2b565b60405180910390fd5b6111d881600b60008573ffffffffffffffffffffffffffffffffffffffff1673ffffffffffffffffffffffffffffffffffffffff168152602001908152602001600020546128a290919063ffffffff16565b600b60008473ffffffffffffffffffffffffffffffffffffffff1673ffffffffffffffffffffffffffffffffffffffff168152602001908152602001600020819055503373ffffffffffffffffffffffffffffffffffffffff168273ffffffffffffffffffffffffffffffffffffffff167f8752a472e571a816aea92eec8dae9baf628e840f4929fbcc2d155e6233ff68a78360405161127891906151a5565b60405180910390a35050565b61128c6128e4565b73ffffffffffffffffffffffffffffffffffffffff166112aa610bf0565b73ffffffffffffffffffffffffffffffffffffffff1614611300576040517f08c379a00000000000000000000000000000000000000000000000000000000081526004016112f790614eeb565b60405180910390fd5b43600c5411611344576040517f08c379a000000000000000000000000000000000000000000000000000000000815260040161133b90614d8b565b60405180910390fd5b80600c819055507f1c0aa0c666483fbf0cf795d9d646ea3552d1e3008162ba9ab1d6d6dfd8c6ec6b8160405161137a91906151a5565b60405180910390a150565b6000339050600083839050600a60008473ffffffffffffffffffffffffffffffffffffffff1673ffffffffffffffffffffffffffffffffffffffff168152602001908152602001600020546113da9190615433565b905080600a60008473ffffffffffffffffffffffffffffffffffffffff1673ffffffffffffffffffffffffffffffffffffffff16815260200190815260200160002081905550600260000154811115611468576040517f08c379a000000000000000000000000000000000000000000000000000000000815260040161145f90614f0b565b60405180910390fd5b61147182610815565b6114b0576040517f08c379a00000000000000000000000000000000000000000000000000000000081526004016114a790614e4b565b60405180910390fd5b60005b8484905081101561166b57600073ffffffffffffffffffffffffffffffffffffffff16600960008787858181106114ed576114ec6157a0565b5b90506020020160208101906115029190613828565b73ffffffffffffffffffffffffffffffffffffffff1673ffffffffffffffffffffffffffffffffffffffff16815260200190815260200160002060009054906101000a900473ffffffffffffffffffffffffffffffffffffffff1673ffffffffffffffffffffffffffffffffffffffff16146115b3576040517f08c379a00000000000000000000000000000000000000000000000000000000081526004016115aa90614dab565b60405180910390fd5b82600960008787858181106115cb576115ca6157a0565b5b90506020020160208101906115e09190613828565b73ffffffffffffffffffffffffffffffffffffffff1673ffffffffffffffffffffffffffffffffffffffff16815260200190815260200160002060006101000a81548173ffffffffffffffffffffffffffffffffffffffff021916908373ffffffffffffffffffffffffffffffffffffffff1602179055508080611663906156ca565b9150506114b3565b508173ffffffffffffffffffffffffffffffffffffffff167febf4a9bffb39f7c5dbf3f65540183b9381ae226ac3d0a45b4cad484713bd4a288585846040516116b693929190614b04565b60405180910390a250505050565b7f000000000000000000000000000000000000000000000000000000000000000081565b6000600c54431015905090565b60096020528060005260406000206000915054906101000a900473ffffffffffffffffffffffffffffffffffffffff1681565b6000606061173461339f565b61173c6108d7565b81604001818152505061174d6116e8565b1561178d576040517f08c379a000000000000000000000000000000000000000000000000000000000815260040161178490614d4b565b60405180910390fd5b600488806000019061179f9190615223565b8060a001906117ae91906151c0565b905010156117c057600060e01b61182d565b61182c8880600001906117d39190615223565b8060a001906117e291906151c0565b8080601f016020809104026020016040519081016040528093929190818152602001838380828437600081840152601f19601f820116905080830192505050505050506000612c3d565b5b81602001907bffffffffffffffffffffffffffffffffffffffffffffffffffffffff191690817bffffffffffffffffffffffffffffffffffffffffffffffffffffffff1916815250503273ffffffffffffffffffffffffffffffffffffffff163373ffffffffffffffffffffffffffffffffffffffff16146118e4576040517f08c379a00000000000000000000000000000000000000000000000000000000081526004016118db90614e6b565b60405180910390fd5b600960003373ffffffffffffffffffffffffffffffffffffffff1673ffffffffffffffffffffffffffffffffffffffff16815260200190815260200160002060009054906101000a900473ffffffffffffffffffffffffffffffffffffffff1681610160019073ffffffffffffffffffffffffffffffffffffffff16908173ffffffffffffffffffffffffffffffffffffffff1681525050600073ffffffffffffffffffffffffffffffffffffffff1681610160015173ffffffffffffffffffffffffffffffffffffffff1614156119f1576040517f08c379a00000000000000000000000000000000000000000000000000000000081526004016119e89061500b565b60405180910390fd5b3373ffffffffffffffffffffffffffffffffffffffff16888060200190611a18919061524b565b60a0016020810190611a2a9190613828565b73ffffffffffffffffffffffffffffffffffffffff1614611a80576040517f08c379a0000000000000000000000000000000000000000000000000000000008152600401611a7790614f8b565b60405180910390fd5b611a8e816101600151610815565b611acd576040517f08c379a0000000000000000000000000000000000000000000000000000000008152600401611ac490614e4b565b60405180910390fd5b611adc89898360400151612cc3565b8260a0018361010001828152508290525050611afb8888888888612f39565b60006002600101546040603f5a611b1291906154ba565b611b1c9190615489565b611b269190615514565b9050611b306108d7565b82610120018181525050600060028001546002600301548385604001518d8060200190611b5d919061524b565b60800135611b6b9190615433565b611b759190615433565b611b7f9190615433565b611b899190615433565b90506000803073ffffffffffffffffffffffffffffffffffffffff1684639b199b8660e01b8e8e8e8e8e8c60a00151611bc06108d7565b8c611bcb9190615514565b8e6101000151604051602401611be89897969594939291906150cb565b604051602081830303815290604052907bffffffffffffffffffffffffffffffffffffffffffffffffffffffff19166020820180517bffffffffffffffffffffffffffffffffffffffffffffffffffffffff8381831617835250505050604051611c529190614940565b60006040518083038160008787f1925050503d8060008114611c90576040519150601f19603f3d011682016040523d82523d6000602084013e611c95565b606091505b509150915081856000019015159081151581525050611cb26108d7565b856101200151611cc29190615514565b8560e001818152505080806020019051810190611cdf91906139c7565b8660c00187608001829052826006811115611cfd57611cfc615771565b5b6006811115611d0f57611d0e615771565b5b815250505060008560800151511115611d64577fa1478a4242848419db824250a0dddc645dca0d6a9b12ab1fd79b00145a0ba98e8560c001518660800151604051611d5b929190614cf9565b60405180910390a15b505050508060000151611f535760026006811115611d8557611d84615771565b5b8160c001516006811115611d9c57611d9b615771565b5b1480611e405750611dd1888060200190611db6919061524b565b608001358260a00151600001516128a290919063ffffffff16565b8160e0015111158015611e3f575060036006811115611df357611df2615771565b5b8160c001516006811115611e0a57611e09615771565b5b1480611e3e575060046006811115611e2557611e24615771565b5b8160c001516006811115611e3c57611e3b615771565b5b145b5b5b15611f525760009250878060000190611e599190615223565b6000016020810190611e6b9190613828565b73ffffffffffffffffffffffffffffffffffffffff16888060200190611e91919061524b565b60c0016020810190611ea39190613828565b73ffffffffffffffffffffffffffffffffffffffff1682610160015173ffffffffffffffffffffffffffffffffffffffff167fddb88484d11f800b80fe63aa67488ec56ee001d85896d528912c5d850cbcd06a8b8060000190611f069190615223565b6020016020810190611f189190613828565b3386602001518760e001518860800151604051611f39959493929190614a65565b60405180910390a460008160800151925092505061223d565b5b6000600260030154611f636108d7565b8360400151611f729190615514565b8a8060200190611f82919061524b565b60800135611f909190615433565b611f9a9190615433565b90506000611fb7828b8060200190611fb2919061524b565b6108df565b905061202c81600b60008d8060200190611fd1919061524b565b60c0016020810190611fe39190613828565b73ffffffffffffffffffffffffffffffffffffffff1673ffffffffffffffffffffffffffffffffffffffff1681526020019081526020016000205461287390919063ffffffff16565b600b60008c8060200190612040919061524b565b60c00160208101906120529190613828565b73ffffffffffffffffffffffffffffffffffffffff1673ffffffffffffffffffffffffffffffffffffffff168152602001908152602001600020819055506120e781600b600086610160015173ffffffffffffffffffffffffffffffffffffffff1673ffffffffffffffffffffffffffffffffffffffff168152602001908152602001600020546128a290919063ffffffff16565b600b600085610160015173ffffffffffffffffffffffffffffffffffffffff1673ffffffffffffffffffffffffffffffffffffffff1681526020019081526020016000208190555089806000019061213f9190615223565b60000160208101906121519190613828565b73ffffffffffffffffffffffffffffffffffffffff163373ffffffffffffffffffffffffffffffffffffffff1684610160015173ffffffffffffffffffffffffffffffffffffffff167fc9aa709786a3d5fe2cc947abc1ba8cbb0f6decb57aa74b84eb7f558125fee4548d80600001906121cb9190615223565b60200160208101906121dd9190613828565b8e80602001906121ed919061524b565b60c00160208101906121ff9190613828565b88602001518960c001518860405161221b959493929190614a12565b60405180910390a4600160405180602001604052806000815250945094505050505b965096945050505050565b600c5481565b6060604051806060016040528060238152602001615d9060239139905090565b7f000000000000000000000000000000000000000000000000000000000000000073ffffffffffffffffffffffffffffffffffffffff163373ffffffffffffffffffffffffffffffffffffffff16146122fc576040517f08c379a00000000000000000000000000000000000000000000000000000000081526004016122f390614ecb565b60405180910390fd5b6000600960008473ffffffffffffffffffffffffffffffffffffffff1673ffffffffffffffffffffffffffffffffffffffff16815260200190815260200160002060009054906101000a900473ffffffffffffffffffffffffffffffffffffffff169050600073ffffffffffffffffffffffffffffffffffffffff168173ffffffffffffffffffffffffffffffffffffffff1614156123d0576040517f08c379a00000000000000000000000000000000000000000000000000000000081526004016123c79061500b565b60405180910390fd5b60007f000000000000000000000000000000000000000000000000000000000000000073ffffffffffffffffffffffffffffffffffffffff1663c3453153836040518263ffffffff1660e01b815260040161242b91906149c0565b60806040518083038186803b15801561244357600080fd5b505afa158015612457573d6000803e3d6000fd5b505050506040513d601f19601f8201168201806040525081019061247b9190613b6a565b905060008160000151116124c4576040517f08c379a00000000000000000000000000000000000000000000000000000000081526004016124bb90614e4b565b60405180910390fd5b7f000000000000000000000000000000000000000000000000000000000000000073ffffffffffffffffffffffffffffffffffffffff166309a08af4838584600001516040518463ffffffff1660e01b8152600401612525939291906149db565b600060405180830381600087803b15801561253f57600080fd5b505af1158015612553573d6000803e3d6000fd5b5050505050505050565b6125656128e4565b73ffffffffffffffffffffffffffffffffffffffff16612583610bf0565b73ffffffffffffffffffffffffffffffffffffffff16146125d9576040517f08c379a00000000000000000000000000000000000000000000000000000000081526004016125d090614eeb565b60405180910390fd5b600073ffffffffffffffffffffffffffffffffffffffff168173ffffffffffffffffffffffffffffffffffffffff161415612649576040517f08c379a000000000000000000000000000000000000000000000000000000000815260040161264090614dcb565b60405180910390fd5b612652816128ec565b50565b61265e81610815565b61269d576040517f08c379a000000000000000000000000000000000000000000000000000000000815260040161269490614e4b565b60405180910390fd5b6000600a60008373ffffffffffffffffffffffffffffffffffffffff1673ffffffffffffffffffffffffffffffffffffffff168152602001908152602001600020541161271f576040517f08c379a000000000000000000000000000000000000000000000000000000000815260040161271690614e8b565b60405180910390fd5b50565b61272a6128e4565b73ffffffffffffffffffffffffffffffffffffffff16612748610bf0565b73ffffffffffffffffffffffffffffffffffffffff161461279e576040517f08c379a000000000000000000000000000000000000000000000000000000000815260040161279590614eeb565b60405180910390fd5b600073ffffffffffffffffffffffffffffffffffffffff16600160009054906101000a900473ffffffffffffffffffffffffffffffffffffffff1673ffffffffffffffffffffffffffffffffffffffff161461282f576040517f08c379a000000000000000000000000000000000000000000000000000000000815260040161282690614d6b565b60405180910390fd5b80600160006101000a81548173ffffffffffffffffffffffffffffffffffffffff021916908373ffffffffffffffffffffffffffffffffffffffff16021790555050565b600081836128819190615514565b905092915050565b6000818310612898578161289a565b825b905092915050565b600081836128b09190615433565b905092915050565b600081836128c691906154ba565b905092915050565b600081836128dc9190615489565b905092915050565b600033905090565b60008060009054906101000a900473ffffffffffffffffffffffffffffffffffffffff169050816000806101000a81548173ffffffffffffffffffffffffffffffffffffffff021916908373ffffffffffffffffffffffffffffffffffffffff1602179055508173ffffffffffffffffffffffffffffffffffffffff168173ffffffffffffffffffffffffffffffffffffffff167f8be0079c531659141344cd1fd0a4f28419497f9722a3daafe3b4186f6b6457e060405160405180910390a35050565b6129bc81610400613060565b50565b600082826040516020016129d4929190614cf9565b60405160208183030381529060405290506129ee816129b0565b8051602082018181fd5b60008060606000612a0887613071565b90506000612a36888060200190612a1f919061524b565b60e0016020810190612a319190613828565b6130b1565b9050878060200190612a48919061524b565b60e0016020810190612a5a9190613828565b73ffffffffffffffffffffffffffffffffffffffff1663e024dc7f60e01b898060000190612a889190615223565b836040518060400160405280600c81526020017f52656c61795265717565737400000000000000000000000000000000000000008152506040518060800160405280605d8152602001615d33605d913960405180610100016040528060c28152602001615db360c29139604051602001612b02919061499e565b604051602081830303815290604052604051602001612b2393929190614957565b60405160208183030381529060405280519060200120868c8c604051602401612b519695949392919061502b565b604051602081830303815290604052907bffffffffffffffffffffffffffffffffffffffffffffffffffffffff19166020820180517bffffffffffffffffffffffffffffffffffffffffffffffffffffffff8381831617835250505050604051612bbb9190614940565b6000604051808303816000865af19150503d8060008114612bf8576040519150601f19603f3d011682016040523d82523d6000602084013e612bfd565b606091505b5080945081965050508415612c295782806020019051810190612c20919061390f565b80945081955050505b612c32836129b0565b505093509350939050565b6000600482612c4c9190615433565b83511015612c8f576040517f08c379a0000000000000000000000000000000000000000000000000000000008152600401612c8690614feb565b60405180910390fd5b6020820183015190507fffffffff000000000000000000000000000000000000000000000000000000008116905092915050565b612ccb61344f565b6000838060200190612cdd919061524b565b60c0016020810190612cef9190613828565b73ffffffffffffffffffffffffffffffffffffffff1663b039a88f61c3506040518263ffffffff1660e01b815260040160806040518083038187803b158015612d3757600080fd5b5086fa158015612d4b573d6000803e3d6000fd5b50505050506040513d601f19601f82011682018060405250810190612d709190613a23565b9150816060015160003690501115612dbd576040517f08c379a0000000000000000000000000000000000000000000000000000000008152600401612db490614eab565b60405180910390fd5b8160000151851015612e04576040517f08c379a0000000000000000000000000000000000000000000000000000000008152600401612dfb90614f2b565b60405180910390fd5b816020015182600001511015612e4f576040517f08c379a0000000000000000000000000000000000000000000000000000000008152600401612e4690614deb565b60405180910390fd5b82848060200190612e60919061524b565b60800135612e6e9190615433565b90506000612e8b82868060200190612e86919061524b565b6108df565b9050600b6000868060200190612ea1919061524b565b60c0016020810190612eb39190613828565b73ffffffffffffffffffffffffffffffffffffffff1673ffffffffffffffffffffffffffffffffffffffff16815260200190815260200160002054811115612f30576040517f08c379a0000000000000000000000000000000000000000000000000000000008152600401612f2790614fab565b60405180910390fd5b50935093915050565b6000612f63868060200190612f4e919061524b565b806101000190612f5e91906151c0565b61316a565b612f8a878060000190612f769190615223565b8060a00190612f8591906151c0565b61316a565b612f94858561316a565b612f9e888861316a565b6102e4612fab9190615433565b612fb59190615433565b612fbf9190615433565b612fc99190615433565b90506041858590501115613012576040517f08c379a000000000000000000000000000000000000000000000000000000000815260040161300990614fcb565b60405180910390fd5b60003690508114613058576040517f08c379a000000000000000000000000000000000000000000000000000000000815260040161304f90614f6b565b60405180910390fd5b505050505050565b808251111561306d578082525b5050565b606061308b828060200190613086919061524b565b6131be565b60405160200161309b9190614b81565b6040516020818303038152906040529050919050565b600061316360405180608001604052806040518060400160405280601781526020017f47534e2052656c61796564205472616e73616374696f6e00000000000000000081525081526020016040518060400160405280600181526020017f3200000000000000000000000000000000000000000000000000000000000000815250815260200161313f613291565b81526020018473ffffffffffffffffffffffffffffffffffffffff16815250613299565b9050919050565b6000601f7fffffffffffffffffffffffffffffffffffffffffffffffffffffffffffffffff6131999190615514565b601f848490506131a99190615433565b1660206131b69190615433565b905092915050565b600060405180610100016040528060c28152602001615db360c291398051906020012082600001358360200135846040013585606001358660a00160208101906132089190613828565b8760c001602081019061321b9190613828565b8860e001602081019061322e9190613828565b8980610100019061323f91906151c0565b60405161324d929190614927565b60405180910390208a61012001356040516020016132749a99989796959493929190614bef565b604051602081830303815290604052805190602001209050919050565b600046905090565b60007f8b73c3c69bb8fe3d512ecc4cf759cc79239f7b179b0ffacaa9a75d522b39400f826000015180519060200120836020015180519060200120846040015185606001516040516020016132f2959493929190614b9c565b604051602081830303815290604052805190602001209050919050565b6040518060e00160405280600081526020016000815260200160008152602001600081526020016000815260200160008152602001600081525090565b604051806101200160405280600081526020016000815260200160008152602001600080191681526020016000151581526020016060815260200160608152602001606081526020016000151581525090565b60405180610180016040528060001515815260200160007bffffffffffffffffffffffffffffffffffffffffffffffffffffffff191681526020016000815260200160608152602001606081526020016133f761344f565b8152602001600060068111156134105761340f615771565b5b815260200160008152602001600081526020016000815260200160608152602001600073ffffffffffffffffffffffffffffffffffffffff1681525090565b6040518060800160405280600081526020016000815260200160008152602001600081525090565b600061348a61348584615299565b615274565b9050828152602081018484840111156134a6576134a5615830565b5b6134b184828561564c565b509392505050565b6000813590506134c881615cc6565b92915050565b6000813590506134dd81615cdd565b92915050565b6000815190506134f281615cdd565b92915050565b60008083601f84011261350e5761350d615808565b5b8235905067ffffffffffffffff81111561352b5761352a615803565b5b60208301915083602082028301111561354757613546615826565b5b9250929050565b60008151905061355d81615cf4565b92915050565b60008083601f84011261357957613578615808565b5b8235905067ffffffffffffffff81111561359657613595615803565b5b6020830191508360018202830111156135b2576135b1615826565b5b9250929050565b600082601f8301126135ce576135cd615808565b5b81516135de848260208601613477565b91505092915050565b6000815190506135f681615d0b565b92915050565b60006080828403121561361257613611615812565b5b81905092915050565b60006080828403121561363157613630615817565b5b61363b6080615274565b9050600061364b84828501613813565b600083015250602061365f84828501613813565b602083015250604061367384828501613813565b604083015250606061368784828501613813565b60608301525092915050565b600061014082840312156136aa576136a9615812565b5b81905092915050565b600060e082840312156136c9576136c8615817565b5b6136d360e0615274565b905060006136e3848285016137fe565b60008301525060206136f7848285016137fe565b602083015250604061370b848285016137fe565b604083015250606061371f848285016137fe565b6060830152506080613733848285016137fe565b60808301525060a0613747848285016137fe565b60a08301525060c061375b848285016137fe565b60c08301525092915050565b60006040828403121561377d5761377c615812565b5b81905092915050565b60006080828403121561379c5761379b615817565b5b6137a66080615274565b905060006137b684828501613813565b60008301525060206137ca84828501613813565b60208301525060406137de84828501613813565b60408301525060606137f2848285016134e3565b60608301525092915050565b60008135905061380d81615d1b565b92915050565b60008151905061382281615d1b565b92915050565b60006020828403121561383e5761383d61583f565b5b600061384c848285016134b9565b91505092915050565b6000806040838503121561386c5761386b61583f565b5b600061387a858286016134b9565b925050602061388b858286016134ce565b9150509250929050565b600080602083850312156138ac576138ab61583f565b5b600083013567ffffffffffffffff8111156138ca576138c9615835565b5b6138d6858286016134f8565b92509250509250929050565b6000602082840312156138f8576138f761583f565b5b60006139068482850161354e565b91505092915050565b600080604083850312156139265761392561583f565b5b60006139348582860161354e565b925050602083015167ffffffffffffffff81111561395557613954615835565b5b613961858286016135b9565b9150509250929050565b600080604083850312156139825761398161583f565b5b600083015167ffffffffffffffff8111156139a05761399f615835565b5b6139ac858286016135b9565b92505060206139bd8582860161354e565b9150509250929050565b600080604083850312156139de576139dd61583f565b5b60006139ec858286016135e7565b925050602083015167ffffffffffffffff811115613a0d57613a0c615835565b5b613a19858286016135b9565b9150509250929050565b600060808284031215613a3957613a3861583f565b5b6000613a478482850161361b565b91505092915050565b600060e08284031215613a6657613a6561583f565b5b6000613a74848285016136b3565b91505092915050565b600080600080600080600080610120898b031215613a9e57613a9d61583f565b5b600089013567ffffffffffffffff811115613abc57613abb615835565b5b613ac88b828c01613767565b985050602089013567ffffffffffffffff811115613ae957613ae8615835565b5b613af58b828c01613563565b9750975050604089013567ffffffffffffffff811115613b1857613b17615835565b5b613b248b828c01613563565b95509550506060613b378b828c016135fc565b93505060e0613b488b828c016137fe565b925050610100613b5a8b828c016137fe565b9150509295985092959890939650565b600060808284031215613b8057613b7f61583f565b5b6000613b8e84828501613786565b91505092915050565b600060208284031215613bad57613bac61583f565b5b6000613bbb848285016137fe565b91505092915050565b60008060408385031215613bdb57613bda61583f565b5b6000613be9858286016137fe565b9250506020613bfa858286016134ce565b9150509250929050565b60008060408385031215613c1b57613c1a61583f565b5b6000613c29858286016137fe565b925050602083013567ffffffffffffffff811115613c4a57613c49615835565b5b613c5685828601613693565b9150509250929050565b60008060008060008060808789031215613c7d57613c7c61583f565b5b6000613c8b89828a016137fe565b965050602087013567ffffffffffffffff811115613cac57613cab615835565b5b613cb889828a01613767565b955050604087013567ffffffffffffffff811115613cd957613cd8615835565b5b613ce589828a01613563565b9450945050606087013567ffffffffffffffff811115613d0857613d07615835565b5b613d1489828a01613563565b92509250509295509295509295565b6000613d2f8383613d4a565b60208301905092915050565b613d4481615564565b82525050565b613d5381615552565b82525050565b613d6281615552565b82525050565b6000613d7483856152f7565b9350613d7f826152ca565b8060005b85811015613db857613d958284615351565b613d9f8882613d23565b9750613daa836152ea565b925050600181019050613d83565b5085925050509392505050565b613dce81615576565b82525050565b613ddd81615582565b82525050565b613dec8161558c565b82525050565b6000613dfe8385615308565b9350613e0b83858461563d565b613e1483615844565b840190509392505050565b6000613e2b8385615319565b9350613e3883858461563d565b613e4183615844565b840190509392505050565b6000613e58838561532a565b9350613e6583858461563d565b82840190509392505050565b6000613e7c826152d4565b613e868185615319565b9350613e9681856020860161564c565b613e9f81615844565b840191505092915050565b6000613eb5826152d4565b613ebf818561532a565b9350613ecf81856020860161564c565b80840191505092915050565b613ee4816155f5565b82525050565b613ef381615607565b82525050565b6000613f04826152df565b613f0e8185615335565b9350613f1e81856020860161564c565b613f2781615844565b840191505092915050565b6000613f3d826152df565b613f478185615346565b9350613f5781856020860161564c565b80840191505092915050565b6000613f70600e83615335565b9150613f7b82615862565b602082019050919050565b6000613f93601a83615335565b9150613f9e8261588b565b602082019050919050565b6000613fb6601283615335565b9150613fc1826158b4565b602082019050919050565b6000613fd9601983615335565b9150613fe4826158dd565b602082019050919050565b6000613ffc602683615335565b915061400782615906565b604082019050919050565b600061401f601983615335565b915061402a82615955565b602082019050919050565b6000614042601a83615335565b915061404d8261597e565b602082019050919050565b6000614065600183615346565b9150614070826159a7565b600182019050919050565b6000614088601483615346565b9150614093826159d0565b601482019050919050565b60006140ab600183615346565b91506140b6826159f9565b600182019050919050565b60006140ce600f83615335565b91506140d982615a22565b602082019050919050565b60006140f1601883615335565b91506140fc82615a4b565b602082019050919050565b6000614114601883615335565b915061411f82615a74565b602082019050919050565b6000614137601083615335565b915061414282615a9d565b602082019050919050565b600061415a601783615335565b915061416582615ac6565b602082019050919050565b600061417d600d83615335565b915061418882615aef565b602082019050919050565b60006141a0602083615335565b91506141ab82615b18565b602082019050919050565b60006141c3601083615335565b91506141ce82615b41565b602082019050919050565b60006141e6601a83615335565b91506141f182615b6a565b602082019050919050565b6000614209601283615335565b915061421482615b93565b602082019050919050565b600061422c601483615335565b915061423782615bbc565b602082019050919050565b600061424f601283615335565b915061425a82615be5565b602082019050919050565b6000614272601983615335565b915061427d82615c0e565b602082019050919050565b6000614295601883615335565b91506142a082615c37565b602082019050919050565b60006142b8601a83615335565b91506142c382615c60565b602082019050919050565b60006142db601483615335565b91506142e682615c89565b602082019050919050565b600060e083016143046000840184615351565b6143116000860182613d4a565b5061431f6020840184615351565b61432c6020860182613d4a565b5061433a604084018461541c565b6143476040860182614909565b50614355606084018461541c565b6143626060860182614909565b50614370608084018461541c565b61437d6080860182614909565b5061438b60a0840184615368565b85830360a087015261439e838284613df2565b925050506143af60c084018461541c565b6143bc60c0860182614909565b508091505092915050565b600060e083016143da6000840184615351565b6143e76000860182613d4a565b506143f56020840184615351565b6144026020860182613d4a565b50614410604084018461541c565b61441d6040860182614909565b5061442b606084018461541c565b6144386060860182614909565b50614446608084018461541c565b6144536080860182614909565b5061446160a0840184615368565b85830360a0870152614474838284613df2565b9250505061448560c084018461541c565b61449260c0860182614909565b508091505092915050565b6080820160008201516144b36000850182614909565b5060208201516144c66020850182614909565b5060408201516144d96040850182614909565b5060608201516144ec6060850182614909565b50505050565b60006101408301614506600084018461541c565b6145136000860182614909565b50614521602084018461541c565b61452e6020860182614909565b5061453c604084018461541c565b6145496040860182614909565b50614557606084018461541c565b6145646060860182614909565b50614572608084018461541c565b61457f6080860182614909565b5061458d60a0840184615351565b61459a60a0860182613d4a565b506145a860c0840184615351565b6145b560c0860182613d4a565b506145c360e0840184615351565b6145d060e0860182613d4a565b506145df610100840184615368565b8583036101008701526145f3838284613df2565b9250505061460561012084018461541c565b614613610120860182614909565b508091505092915050565b60006101408301614632600084018461541c565b61463f6000860182614909565b5061464d602084018461541c565b61465a6020860182614909565b50614668604084018461541c565b6146756040860182614909565b50614683606084018461541c565b6146906060860182614909565b5061469e608084018461541c565b6146ab6080860182614909565b506146b960a0840184615351565b6146c660a0860182613d4a565b506146d460c0840184615351565b6146e160c0860182613d4a565b506146ef60e0840184615351565b6146fc60e0860182613d4a565b5061470b610100840184615368565b85830361010087015261471f838284613df2565b9250505061473161012084018461541c565b61473f610120860182614909565b508091505092915050565b60e0820160008201516147606000850182614909565b5060208201516147736020850182614909565b5060408201516147866040850182614909565b5060608201516147996060850182614909565b5060808201516147ac6080850182614909565b5060a08201516147bf60a0850182614909565b5060c08201516147d260c0850182614909565b50505050565b60e0820160008083015490506147ed8161567f565b6147fa6000860182614909565b506001830154905061480b8161567f565b6148186020860182614909565b50600283015490506148298161567f565b6148366040860182614909565b50600383015490506148478161567f565b6148546060860182614909565b50600483015490506148658161567f565b6148726080860182614909565b50600583015490506148838161567f565b61489060a0860182614909565b50600683015490506148a18161567f565b6148ae60c0860182614909565b5050505050565b6000604083016148c860008401846153cb565b84820360008601526148da82826142f1565b9150506148ea60208401846153f3565b84820360208601526148fc82826144f2565b9150508091505092915050565b614912816155eb565b82525050565b614921816155eb565b82525050565b6000614934828486613e4c565b91508190509392505050565b600061494c8284613eaa565b915081905092915050565b60006149638286613f32565b915061496e8261409e565b915061497a8285613f32565b915061498582614058565b91506149918284613f32565b9150819050949350505050565b60006149a98261407b565b91506149b58284613eaa565b915081905092915050565b60006020820190506149d56000830184613d59565b92915050565b60006060820190506149f06000830186613d59565b6149fd6020830185613d3b565b614a0a6040830184614918565b949350505050565b600060a082019050614a276000830188613d59565b614a346020830187613d59565b614a416040830186613de3565b614a4e6060830185613eea565b614a5b6080830184614918565b9695505050505050565b600060a082019050614a7a6000830188613d59565b614a876020830187613d59565b614a946040830186613de3565b614aa16060830185614918565b8181036080830152614ab38184613e71565b90509695505050505050565b6000608082019050614ad46000830187613d59565b614ae16020830186613d59565b614aee6040830185614918565b614afb6060830184614918565b95945050505050565b60006040820190508181036000830152614b1f818587613d68565b9050614b2e6020830184614918565b949350505050565b6000602082019050614b4b6000830184613dc5565b92915050565b6000604082019050614b666000830185613dc5565b8181036020830152614b788184613e71565b90509392505050565b6000602082019050614b966000830184613dd4565b92915050565b600060a082019050614bb16000830188613dd4565b614bbe6020830187613dd4565b614bcb6040830186613dd4565b614bd86060830185614918565b614be56080830184613d59565b9695505050505050565b600061014082019050614c05600083018d613dd4565b614c12602083018c614918565b614c1f604083018b614918565b614c2c606083018a614918565b614c396080830189614918565b614c4660a0830188613d59565b614c5360c0830187613d59565b614c6060e0830186613d59565b614c6e610100830185613dd4565b614c7c610120830184614918565b9b9a5050505050505050505050565b60006080820190508181036000830152614ca58187613e71565b9050614cb46020830186613dc5565b614cc16040830185614918565b8181036060830152614cd3818461461e565b905095945050505050565b6000602082019050614cf36000830184613edb565b92915050565b6000604082019050614d0e6000830185613eea565b8181036020830152614d208184613e71565b90509392505050565b60006020820190508181036000830152614d438184613ef9565b905092915050565b60006020820190508181036000830152614d6481613f63565b9050919050565b60006020820190508181036000830152614d8481613f86565b9050919050565b60006020820190508181036000830152614da481613fa9565b9050919050565b60006020820190508181036000830152614dc481613fcc565b9050919050565b60006020820190508181036000830152614de481613fef565b9050919050565b60006020820190508181036000830152614e0481614012565b9050919050565b60006020820190508181036000830152614e2481614035565b9050919050565b60006020820190508181036000830152614e44816140c1565b9050919050565b60006020820190508181036000830152614e64816140e4565b9050919050565b60006020820190508181036000830152614e8481614107565b9050919050565b60006020820190508181036000830152614ea48161412a565b9050919050565b60006020820190508181036000830152614ec48161414d565b9050919050565b60006020820190508181036000830152614ee481614170565b9050919050565b60006020820190508181036000830152614f0481614193565b9050919050565b60006020820190508181036000830152614f24816141b6565b9050919050565b60006020820190508181036000830152614f44816141d9565b9050919050565b60006020820190508181036000830152614f64816141fc565b9050919050565b60006020820190508181036000830152614f848161421f565b9050919050565b60006020820190508181036000830152614fa481614242565b9050919050565b60006020820190508181036000830152614fc481614265565b9050919050565b60006020820190508181036000830152614fe481614288565b9050919050565b60006020820190508181036000830152615004816142ab565b9050919050565b60006020820190508181036000830152615024816142ce565b9050919050565b600060a082019050818103600083015261504581896143c7565b90506150546020830188613dd4565b6150616040830187613dd4565b81810360608301526150738186613e71565b90508181036080830152615088818486613e1f565b9050979650505050505050565b600060e0820190506150aa600083018461474a565b92915050565b600060e0820190506150c560008301846147d8565b92915050565b60006101208201905081810360008301526150e6818b6148b5565b905081810360208301526150fb81898b613e1f565b90508181036040830152615110818789613e1f565b905061511f606083018661449d565b61512c60e0830185614918565b61513a610100830184614918565b9998505050505050505050565b6000608082019050818103600083015261516181896148b5565b90508181036020830152615176818789613e1f565b9050818103604083015261518b818587613e1f565b905061519a6060830184614918565b979650505050505050565b60006020820190506151ba6000830184614918565b92915050565b600080833560016020038436030381126151dd576151dc61581c565b5b80840192508235915067ffffffffffffffff8211156151ff576151fe61580d565b5b60208301925060018202360383131561521b5761521a61582b565b5b509250929050565b60008235600160e00383360303811261523f5761523e61581c565b5b80830191505092915050565b600082356001610140038336030381126152685761526761581c565b5b80830191505092915050565b600061527e61528f565b905061528a8282615699565b919050565b6000604051905090565b600067ffffffffffffffff8211156152b4576152b36157cf565b5b6152bd82615844565b9050602081019050919050565b6000819050919050565b600081519050919050565b600081519050919050565b6000602082019050919050565b600082825260208201905092915050565b600082825260208201905092915050565b600082825260208201905092915050565b600081905092915050565b600082825260208201905092915050565b600081905092915050565b600061536060208401846134b9565b905092915050565b600080833560016020038436030381126153855761538461583a565b5b83810192508235915060208301925067ffffffffffffffff8211156153ad576153ac6157fe565b5b6001820236038413156153c3576153c2615821565b5b509250929050565b60008235600160e0038336030381126153e7576153e661583a565b5b82810191505092915050565b600082356001610140038336030381126154105761540f61583a565b5b82810191505092915050565b600061542b60208401846137fe565b905092915050565b600061543e826155eb565b9150615449836155eb565b9250827fffffffffffffffffffffffffffffffffffffffffffffffffffffffffffffffff0382111561547e5761547d615713565b5b828201905092915050565b6000615494826155eb565b915061549f836155eb565b9250826154af576154ae615742565b5b828204905092915050565b60006154c5826155eb565b91506154d0836155eb565b9250817fffffffffffffffffffffffffffffffffffffffffffffffffffffffffffffffff048311821515161561550957615508615713565b5b828202905092915050565b600061551f826155eb565b915061552a836155eb565b92508282101561553d5761553c615713565b5b828203905092915050565b6000819050919050565b600061555d826155cb565b9050919050565b600061556f826155cb565b9050919050565b60008115159050919050565b6000819050919050565b60007fffffffff0000000000000000000000000000000000000000000000000000000082169050919050565b60008190506155c682615cb2565b919050565b600073ffffffffffffffffffffffffffffffffffffffff82169050919050565b6000819050919050565b600061560082615619565b9050919050565b6000615612826155b8565b9050919050565b60006156248261562b565b9050919050565b6000615636826155cb565b9050919050565b82818337600083830152505050565b60005b8381101561566a57808201518184015260208101905061564f565b83811115615679576000848401525b50505050565b600061569261568d83615855565b615548565b9050919050565b6156a282615844565b810181811067ffffffffffffffff821117156156c1576156c06157cf565b5b80604052505050565b60006156d5826155eb565b91507fffffffffffffffffffffffffffffffffffffffffffffffffffffffffffffffff82141561570857615707615713565b5b600182019050919050565b7f4e487b7100000000000000000000000000000000000000000000000000000000600052601160045260246000fd5b7f4e487b7100000000000000000000000000000000000000000000000000000000600052601260045260246000fd5b7f4e487b7100000000000000000000000000000000000000000000000000000000600052602160045260246000fd5b7f4e487b7100000000000000000000000000000000000000000000000000000000600052603260045260246000fd5b7f4e487b7100000000000000000000000000000000000000000000000000000000600052604160045260246000fd5b600080fd5b600080fd5b600080fd5b600080fd5b600080fd5b600080fd5b600080fd5b600080fd5b600080fd5b600080fd5b600080fd5b600080fd5b600080fd5b600080fd5b6000601f19601f8301169050919050565b60008160001c9050919050565b7f6875622064657072656361746564000000000000000000000000000000000000600082015250565b7f72656c617952656769737472617220616c726561647920736574000000000000600082015250565b7f416c726561647920646570726563617465640000000000000000000000000000600082015250565b7f7468697320776f726b6572206861732061206d616e6167657200000000000000600082015250565b7f4f776e61626c653a206e6577206f776e657220697320746865207a65726f206160008201527f6464726573730000000000000000000000000000000000000000000000000000602082015250565b7f616363657074616e63652062756467657420746f6f206c6f7700000000000000600082015250565b7f4d7573742062652063616c6c65642062792052656c6179487562000000000000600082015250565b7f2c00000000000000000000000000000000000000000000000000000000000000600082015250565b7f52656c6179446174612072656c61794461746129000000000000000000000000600082015250565b7f2800000000000000000000000000000000000000000000000000000000000000600082015250565b7f6465706f73697420746f6f206269670000000000000000000000000000000000600082015250565b7f72656c6179206d616e61676572206e6f74207374616b65640000000000000000600082015250565b7f72656c617920776f726b6572206d75737420626520454f410000000000000000600082015250565b7f6e6f2072656c617920776f726b65727300000000000000000000000000000000600082015250565b7f6d73672e64617461206578636565646564206c696d6974000000000000000000600082015250565b7f4e6f742070656e616c697a657200000000000000000000000000000000000000600082015250565b7f4f776e61626c653a2063616c6c6572206973206e6f7420746865206f776e6572600082015250565b7f746f6f206d616e7920776f726b65727300000000000000000000000000000000600082015250565b7f616363657074616e63652062756467657420746f6f2068696768000000000000600082015250565b7f696e73756666696369656e742066756e64730000000000000000000000000000600082015250565b7f6578747261206d73672e64617461206279746573000000000000000000000000600082015250565b7f4e6f74206120726967687420776f726b65720000000000000000000000000000600082015250565b7f5061796d61737465722062616c616e636520746f6f206c6f7700000000000000600082015250565b7f696e76616c6964207369676e6174757265206c656e6774680000000000000000600082015250565b7f726561644279746573343a206461746120746f6f2073686f7274000000000000600082015250565b7f556e6b6e6f776e2072656c617920776f726b6572000000000000000000000000600082015250565b60078110615cc357615cc2615771565b5b50565b615ccf81615552565b8114615cda57600080fd5b50565b615ce681615564565b8114615cf157600080fd5b50565b615cfd81615576565b8114615d0857600080fd5b50565b60078110615d1857600080fd5b50565b615d24816155eb565b8114615d2f57600080fd5b5056fe616464726573732066726f6d2c6164647265737320746f2c75696e743235362076616c75652c75696e74323536206761732c75696e74323536206e6f6e63652c627974657320646174612c75696e743235362076616c6964556e74696c332e302e302d616c7068612e312b6f70656e67736e2e6875622e6972656c617968756252656c6179446174612875696e74323536206d61784665655065724761732c75696e74323536206d61785072696f726974794665655065724761732c75696e743235362070637452656c61794665652c75696e74323536206261736552656c61794665652c616464726573732072656c6179576f726b65722c61646472657373207061796d61737465722c6164647265737320666f727761726465722c6279746573207061796d6173746572446174612c75696e7432353620636c69656e74496429a2646970667358221220f6c2c6fb3920dba05aa50c13b2cc00156c92144849570d775f2349c72981b25664736f6c63430008070033",
  "devdoc": {
    "kind": "dev",
    "methods": {
      "aggregateGasleft()": {
        "returns": {
          "_0": "a total measurable amount of gas left to current execution; same as 'gasleft()' for pure EVMs"
        }
      },
      "isRelayManagerStaked(address)": {
        "returns": {
          "_0": "true if stake size and delay satisfy all requirements"
        }
      },
      "owner()": {
        "details": "Returns the address of the current owner."
      },
      "relayCall(uint256,((address,address,uint256,uint256,uint256,bytes,uint256),(uint256,uint256,uint256,uint256,uint256,address,address,address,bytes,uint256)),bytes,bytes)": {
        "params": {
          "approvalData": ": dapp-specific data forwarded to preRelayedCall.        This value is *not* verified by the Hub. For example, it can be used to pass a signature to the Paymaster Emits a TransactionRelayed event.",
          "maxAcceptanceBudget": "- max valid value for paymaster.getGasLimits().acceptanceBudget",
          "relayRequest": "- all details of the requested relayed call",
          "signature": "- client's EIP-712 signature over the relayRequest struct"
        }
      },
      "renounceOwnership()": {
        "details": "Leaves the contract without owner. It will not be possible to call `onlyOwner` functions anymore. Can only be called by the current owner. NOTE: Renouncing ownership will leave the contract without an owner, thereby removing any functionality that is only available to the owner."
      },
      "transferOwnership(address)": {
        "details": "Transfers ownership of the contract to a new account (`newOwner`). Can only be called by the current owner."
      },
      "versionHub()": {
        "returns": {
          "_0": "a SemVer-compliant version of the hub contract"
        }
      }
    },
    "version": 1
  },
  "userdoc": {
    "events": {
      "Deposited(address,address,uint256)": {
        "notice": "Emitted when depositFor is called, including the amount and account that was funded."
      },
      "RelayWorkersAdded(address,address[],uint256)": {
        "notice": "Emitted when relays are added by a relayManager"
      },
      "TransactionRejectedByPaymaster(address,address,address,address,address,bytes4,uint256,bytes)": {
        "notice": "Emitted when an attempt to relay a call fails and Paymaster does not accept the transaction. The actual relayed call was not executed, and the recipient not charged."
      },
      "TransactionRelayed(address,address,address,address,address,bytes4,uint8,uint256)": {
        "notice": "Emitted when a transaction is relayed. Note that the actual encoded function might be reverted: this will be indicated in the status field. Useful when monitoring a relay's operation and relayed calls to a contract. Charge is the ether value deducted from the recipient's balance, paid to the relay's manager."
      },
      "Withdrawn(address,address,uint256)": {
        "notice": "Emitted when an account withdraws funds from RelayHub."
      }
    },
    "kind": "user",
    "methods": {
      "addRelayWorkers(address[])": {
        "notice": "Add new worker addresses controlled by sender who must be a staked Relay Manager address. Emits a RelayWorkersAdded event. This function can be called multiple times, emitting new events"
      },
      "balanceOf(address)": {
        "notice": "Returns an account's deposits. It can be either a deposit of a paymaster, or a revenue of a relay manager."
      },
      "calculateCharge(uint256,(uint256,uint256,uint256,uint256,uint256,address,address,address,bytes,uint256))": {
        "notice": "The fee is expressed as a base fee in wei plus percentage on actual charge. E.g. a value of 40 stands for a 40% fee, so the recipient will be charged for 1.4 times the spent amount."
      },
      "depositFor(address)": {
        "notice": "Deposits ether for a contract, so that it can receive (and pay for) relayed transactions. Unused balance can only be withdrawn by the contract itself, by calling withdraw. Emits a Deposited event."
      },
      "getConfiguration()": {
        "notice": "Returns the whole hub configuration"
      },
      "isRelayManagerStaked(address)": {
        "notice": "Uses StakeManager info to decide if the Relay Manager can be considered staked"
      },
      "relayCall(uint256,((address,address,uint256,uint256,uint256,bytes,uint256),(uint256,uint256,uint256,uint256,uint256,address,address,address,bytes,uint256)),bytes,bytes)": {
        "notice": "Relays a transaction. For this to succeed, multiple conditions must be met:  - Paymaster's \"preRelayCall\" method must succeed and not revert  - the sender must be a registered Relay Worker that the user signed  - the transaction's gas price must be equal or larger than the one that was signed by the sender  - the transaction must have enough gas to run all internal transactions if they use all gas available to them  - the Paymaster must have enough balance to pay the Relay Worker for the scenario when all gas is spent If all conditions are met, the call will be relayed and the recipient charged. Arguments:"
      },
      "withdraw(uint256,address)": {
        "notice": "Withdraws from an account's balance, sending it back to it. Relay managers call this to retrieve their revenue, and contracts can also use it to reduce their funding. Emits a Withdrawn event."
      }
    },
    "version": 1
  },
  "storageLayout": {
    "storage": [
      {
        "astId": 137,
        "contract": "contracts-src/RelayHub.sol:RelayHub",
        "label": "_owner",
        "offset": 0,
        "slot": "0",
        "type": "t_address"
      },
      {
        "astId": 2304,
        "contract": "contracts-src/RelayHub.sol:RelayHub",
        "label": "relayRegistrar",
        "offset": 0,
        "slot": "1",
        "type": "t_address"
      },
      {
        "astId": 2307,
        "contract": "contracts-src/RelayHub.sol:RelayHub",
        "label": "config",
        "offset": 0,
        "slot": "2",
        "type": "t_struct(RelayHubConfig)5282_storage"
      },
      {
        "astId": 2340,
        "contract": "contracts-src/RelayHub.sol:RelayHub",
        "label": "workerToManager",
        "offset": 0,
        "slot": "9",
        "type": "t_mapping(t_address,t_address)"
      },
      {
        "astId": 2345,
        "contract": "contracts-src/RelayHub.sol:RelayHub",
        "label": "workerCount",
        "offset": 0,
        "slot": "10",
        "type": "t_mapping(t_address,t_uint256)"
      },
      {
        "astId": 2349,
        "contract": "contracts-src/RelayHub.sol:RelayHub",
        "label": "balances",
        "offset": 0,
        "slot": "11",
        "type": "t_mapping(t_address,t_uint256)"
      },
      {
        "astId": 2357,
        "contract": "contracts-src/RelayHub.sol:RelayHub",
        "label": "deprecationBlock",
        "offset": 0,
        "slot": "12",
        "type": "t_uint256"
      }
    ],
    "types": {
      "t_address": {
        "encoding": "inplace",
        "label": "address",
        "numberOfBytes": "20"
      },
      "t_mapping(t_address,t_address)": {
        "encoding": "mapping",
        "key": "t_address",
        "label": "mapping(address => address)",
        "numberOfBytes": "32",
        "value": "t_address"
      },
      "t_mapping(t_address,t_uint256)": {
        "encoding": "mapping",
        "key": "t_address",
        "label": "mapping(address => uint256)",
        "numberOfBytes": "32",
        "value": "t_uint256"
      },
      "t_struct(RelayHubConfig)5282_storage": {
        "encoding": "inplace",
        "label": "struct IRelayHub.RelayHubConfig",
        "members": [
          {
            "astId": 5269,
            "contract": "contracts-src/RelayHub.sol:RelayHub",
            "label": "maxWorkerCount",
            "offset": 0,
            "slot": "0",
            "type": "t_uint256"
          },
          {
            "astId": 5271,
            "contract": "contracts-src/RelayHub.sol:RelayHub",
            "label": "gasReserve",
            "offset": 0,
            "slot": "1",
            "type": "t_uint256"
          },
          {
            "astId": 5273,
            "contract": "contracts-src/RelayHub.sol:RelayHub",
            "label": "postOverhead",
            "offset": 0,
            "slot": "2",
            "type": "t_uint256"
          },
          {
            "astId": 5275,
            "contract": "contracts-src/RelayHub.sol:RelayHub",
            "label": "gasOverhead",
            "offset": 0,
            "slot": "3",
            "type": "t_uint256"
          },
          {
            "astId": 5277,
            "contract": "contracts-src/RelayHub.sol:RelayHub",
            "label": "maximumRecipientDeposit",
            "offset": 0,
            "slot": "4",
            "type": "t_uint256"
          },
          {
            "astId": 5279,
            "contract": "contracts-src/RelayHub.sol:RelayHub",
            "label": "minimumUnstakeDelay",
            "offset": 0,
            "slot": "5",
            "type": "t_uint256"
          },
          {
            "astId": 5281,
            "contract": "contracts-src/RelayHub.sol:RelayHub",
            "label": "minimumStake",
            "offset": 0,
            "slot": "6",
            "type": "t_uint256"
          }
        ],
        "numberOfBytes": "224"
      },
      "t_uint256": {
        "encoding": "inplace",
        "label": "uint256",
        "numberOfBytes": "32"
      }
    }
  }
}