{
  "address": "0xA58a23d4846617807e43420d21EA0127d9d9Fa0e",
  "abi": [
    {
      "inputs": [
        {
          "internalType": "address",
          "name": "forwarder",
          "type": "address"
        }
      ],
      "stateMutability": "nonpayable",
      "type": "constructor"
    },
    {
      "anonymous": false,
      "inputs": [
        {
          "indexed": false,
          "internalType": "string",
          "name": "message",
          "type": "string"
        }
      ],
      "name": "Reverting",
      "type": "event"
    },
    {
      "anonymous": false,
      "inputs": [
        {
          "indexed": false,
          "internalType": "string",
          "name": "message",
          "type": "string"
        },
        {
          "indexed": false,
          "internalType": "address",
          "name": "realSender",
          "type": "address"
        },
        {
          "indexed": false,
          "internalType": "address",
          "name": "msgSender",
          "type": "address"
        },
        {
          "indexed": false,
          "internalType": "address",
          "name": "origin",
          "type": "address"
        },
        {
          "indexed": false,
          "internalType": "uint256",
          "name": "msgValue",
          "type": "uint256"
        },
        {
          "indexed": false,
          "internalType": "uint256",
          "name": "gasLeft",
          "type": "uint256"
        },
        {
          "indexed": false,
          "internalType": "uint256",
          "name": "balance",
          "type": "uint256"
        }
      ],
      "name": "SampleRecipientEmitted",
      "type": "event"
    },
    {
      "inputs": [
        {
          "internalType": "bool",
          "name": "doRevert",
          "type": "bool"
        }
      ],
      "name": "checkNoReturnValues",
      "outputs": [],
      "stateMutability": "view",
      "type": "function"
    },
    {
      "inputs": [
        {
          "internalType": "uint256",
          "name": "len",
          "type": "uint256"
        },
        {
          "internalType": "bool",
          "name": "doRevert",
          "type": "bool"
        }
      ],
      "name": "checkReturnValues",
      "outputs": [
        {
          "internalType": "string",
          "name": "",
          "type": "string"
        }
      ],
      "stateMutability": "view",
      "type": "function"
    },
    {
      "inputs": [
        {
          "internalType": "string",
          "name": "message",
          "type": "string"
        }
      ],
      "name": "dontEmitMessage",
      "outputs": [],
      "stateMutability": "nonpayable",
      "type": "function"
    },
    {
      "inputs": [
        {
          "internalType": "string",
          "name": "message",
          "type": "string"
        }
      ],
      "name": "emitMessage",
      "outputs": [
        {
          "internalType": "string",
          "name": "",
          "type": "string"
        }
      ],
      "stateMutability": "payable",
      "type": "function"
    },
    {
      "inputs": [],
      "name": "emitMessageNoParams",
      "outputs": [],
      "stateMutability": "nonpayable",
      "type": "function"
    },
    {
      "inputs": [
        {
          "internalType": "address",
          "name": "forwarder",
          "type": "address"
        }
      ],
      "name": "isTrustedForwarder",
      "outputs": [
        {
          "internalType": "bool",
          "name": "",
          "type": "bool"
        }
      ],
      "stateMutability": "view",
      "type": "function"
    },
    {
      "inputs": [],
      "name": "paymaster",
      "outputs": [
        {
          "internalType": "address payable",
          "name": "",
          "type": "address"
        }
      ],
      "stateMutability": "view",
      "type": "function"
    },
    {
      "inputs": [
        {
          "internalType": "address payable",
          "name": "_paymaster",
          "type": "address"
        }
      ],
      "name": "setWithdrawDuringRelayedCall",
      "outputs": [],
      "stateMutability": "nonpayable",
      "type": "function"
    },
    {
      "inputs": [],
      "name": "testRevert",
      "outputs": [],
      "stateMutability": "nonpayable",
      "type": "function"
    },
    {
      "inputs": [],
      "name": "trustedForwarder",
      "outputs": [
        {
          "internalType": "address",
          "name": "",
          "type": "address"
        }
      ],
      "stateMutability": "view",
      "type": "function"
    },
    {
      "inputs": [],
      "name": "versionRecipient",
      "outputs": [
        {
          "internalType": "string",
          "name": "",
          "type": "string"
        }
      ],
      "stateMutability": "view",
      "type": "function"
    },
    {
      "inputs": [],
      "name": "withdrawAllBalance",
      "outputs": [],
      "stateMutability": "nonpayable",
      "type": "function"
    },
    {
      "stateMutability": "payable",
      "type": "receive"
    }
  ],
  "transactionHash": "0x44a0b7fae9846bf9da3e0b3c8d9ebec74912c43a73a3e2f18123e8f2965211ea",
  "args": [
    "0xB5e01be8Acd72b9AE6692cD3264Fe6DCA03B4E75"
  ],
  "solcInputHash": "be5a48c8b1a9bbcc600cdeb4c9bc885a",
  "bytecode": "0x60e0604052602a608081815290610b5860a039805161002691600191602090910190610073565b5034801561003357600080fd5b50604051610b82380380610b828339810160408190526100529161010c565b600080546001600160a01b0319166001600160a01b03831617905550610177565b82805461007f9061013c565b90600052602060002090601f0160209004810192826100a157600085556100e7565b82601f106100ba57805160ff19168380011785556100e7565b828001600101855582156100e7579182015b828111156100e75782518255916020019190600101906100cc565b506100f39291506100f7565b5090565b5b808211156100f357600081556001016100f8565b60006020828403121561011e57600080fd5b81516001600160a01b038116811461013557600080fd5b9392505050565b600181811c9082168061015057607f821691505b6020821081141561017157634e487b7160e01b600052602260045260246000fd5b50919050565b6109d2806101866000396000f3fe6080604052600436106100ab5760003560e01c80638db93e3d116100645780638db93e3d1461019d578063a26388bb146101da578063b51fab0a146101ef578063c095ad3c1461020e578063dc59c90f1461022e578063de6e56f61461024357600080fd5b806316e4cbf9146100b75780632ac0df26146100f45780633b17eadc14610114578063486ff0cd1461012b578063572b6c05146101405780637da0a8771461017f57600080fd5b366100b257005b600080fd5b3480156100c357600080fd5b506002546100d7906001600160a01b031681565b6040516001600160a01b0390911681526020015b60405180910390f35b610107610102366004610703565b610263565b6040516100eb9190610846565b34801561012057600080fd5b50610129610309565b005b34801561013757600080fd5b50610107610394565b34801561014c57600080fd5b5061016f61015b366004610652565b6000546001600160a01b0391821691161490565b60405190151581526020016100eb565b34801561018b57600080fd5b506000546001600160a01b03166100d7565b3480156101a957600080fd5b506101296101b8366004610652565b600280546001600160a01b0319166001600160a01b0392909216919091179055565b3480156101e657600080fd5b50610129610422565b3480156101fb57600080fd5b5061012961020a366004610691565b5050565b34801561021a57600080fd5b50610129610229366004610676565b6104ca565b34801561023a57600080fd5b506101296104d5565b34801561024f57600080fd5b5061010761025e3660046107cd565b610575565b606060005a6002549091506001600160a01b03161561028457610284610309565b7f757e1fd4f3cac236f4594151fa8cb2b3f650fe76098389e524823b76ccbaaf41836102ae610609565b33323486476040516102c69796959493929190610859565b60405180910390a1505060408051808201909152601881527f656d69744d6573736167652072657475726e2076616c756500000000000000006020820152919050565b600260009054906101000a90046001600160a01b03166001600160a01b0316633b17eadc6040518163ffffffff1660e01b8152600401602060405180830381600087803b15801561035957600080fd5b505af115801561036d573d6000803e3d6000fd5b505050506040513d601f19601f8201168201806040525081019061039191906107b4565b50565b600180546103a1906108a7565b80601f01602080910402602001604051908101604052809291908181526020018280546103cd906108a7565b801561041a5780601f106103ef5761010080835404028352916020019161041a565b820191906000526020600020905b8154815290600101906020018083116103fd57829003601f168201915b505050505081565b30156104635760405162461bcd60e51b815260206004820152600b60248201526a185b1dd85e5cc819985a5b60aa1b60448201526064015b60405180910390fd5b7f3f110cf99894407239c5fa1bf0523ea12b54ef6eb3e88be600b6a7f0ff76eb0e6040516104c0906020808252818101527f696620796f7520736565207468697320726576657274206661696c65642e2e2e604082015260600190565b60405180910390a1565b801561039157600080fd5b7f757e1fd4f3cac236f4594151fa8cb2b3f650fe76098389e524823b76ccbaaf416104fe610609565b333260005a6040805160e08082526019908201527f4d6574686f642077697468206e6f20706172616d6574657273000000000000006101008201526001600160a01b03968716602082015294861690850152939091166060830152608082015260a08101919091524760c0820152610120016104c0565b606060006040518060c00160405280608f815260200161090e608f9139905083815110156105de5760405162461bcd60e51b8152602060048201526016602482015275696e76616c6964206c656e3a20746f6f206c6172676560501b604482015260640161045a565b8381528083156106015760405162461bcd60e51b815260040161045a9190610846565b509392505050565b60006014361080159061062657506000546001600160a01b031633145b15610638575060131936013560601c90565b503390565b8035801515811461064d57600080fd5b919050565b60006020828403121561066457600080fd5b813561066f816108f8565b9392505050565b60006020828403121561068857600080fd5b61066f8261063d565b600080602083850312156106a457600080fd5b823567ffffffffffffffff808211156106bc57600080fd5b818501915085601f8301126106d057600080fd5b8135818111156106df57600080fd5b8660208285010111156106f157600080fd5b60209290920196919550909350505050565b60006020828403121561071557600080fd5b813567ffffffffffffffff8082111561072d57600080fd5b818401915084601f83011261074157600080fd5b813581811115610753576107536108e2565b604051601f8201601f19908116603f0116810190838211818310171561077b5761077b6108e2565b8160405282815287602084870101111561079457600080fd5b826020860160208301376000928101602001929092525095945050505050565b6000602082840312156107c657600080fd5b5051919050565b600080604083850312156107e057600080fd5b823591506107f06020840161063d565b90509250929050565b6000815180845260005b8181101561081f57602081850181015186830182015201610803565b81811115610831576000602083870101525b50601f01601f19169290920160200192915050565b60208152600061066f60208301846107f9565b60e08152600061086c60e083018a6107f9565b6001600160a01b039889166020840152968816604083015250939095166060840152608083019190915260a082015260c00191909152919050565b600181811c908216806108bb57607f821691505b602082108114156108dc57634e487b7160e01b600052602260045260246000fd5b50919050565b634e487b7160e01b600052604160045260246000fd5b6001600160a01b038116811461039157600080fdfe746869732069732061206c6f6e67206d65737361676520746861742077652061726520676f696e6720746f2072657475726e206120736d616c6c20706172742066726f6d2e20776520646f6e2774207573652061206c6f6f702073696e63652077652077616e74206120666978656420676173207573616765206f6620746865206d6574686f6420697473656c662ea26469706673582212202620588ed46518229e946fe3f979d4d3f66ee96c856526413ff1c7b3e55eec7864736f6c63430008070033332e302e302d616c7068612e312b6f70656e67736e2e746573742e6972656c6179726563697069656e74",
  "devdoc": {
    "kind": "dev",
    "methods": {},
    "version": 1
  },
  "userdoc": {
    "kind": "user",
    "methods": {
      "isTrustedForwarder(address)": {
        "notice": "return if the forwarder is trusted to forward relayed transactions to us. the forwarder is required to verify the sender's signature, and verify the call is not a replay."
      }
    },
    "version": 1
  },
  "storageLayout": {
    "storage": [
      {
        "astId": 1329,
        "contract": "contracts-link/test/TestRecipient.sol:TestRecipient",
        "label": "_trustedForwarder",
        "offset": 0,
        "slot": "0",
        "type": "t_address"
      },
      {
        "astId": 7034,
        "contract": "contracts-link/test/TestRecipient.sol:TestRecipient",
        "label": "versionRecipient",
        "offset": 0,
        "slot": "1",
        "type": "t_string_storage"
      },
      {
        "astId": 7071,
        "contract": "contracts-link/test/TestRecipient.sol:TestRecipient",
        "label": "paymaster",
        "offset": 0,
        "slot": "2",
        "type": "t_address_payable"
      }
    ],
    "types": {
      "t_address": {
        "encoding": "inplace",
        "label": "address",
        "numberOfBytes": "20"
      },
      "t_address_payable": {
        "encoding": "inplace",
        "label": "address payable",
        "numberOfBytes": "20"
      },
      "t_string_storage": {
        "encoding": "bytes",
        "label": "string",
        "numberOfBytes": "32"
      }
    }
  }
}