{
  "address": "0x72da187896669E4591AEb3B6deE70Ac3D39C6932",
  "abi": [
    {
      "inputs": [
        {
          "internalType": "contract IRelayHub",
          "name": "_hub",
          "type": "address"
        }
      ],
      "stateMutability": "nonpayable",
      "type": "constructor"
    },
    {
      "anonymous": false,
      "inputs": [
        {
          "indexed": false,
          "internalType": "bool",
          "name": "success",
          "type": "bool"
        },
        {
          "indexed": false,
          "internalType": "bool",
          "name": "pmAccepted",
          "type": "bool"
        },
        {
          "indexed": false,
          "internalType": "bytes",
          "name": "res",
          "type": "bytes"
        }
      ],
      "name": "Exec",
      "type": "event"
    },
    {
      "stateMutability": "nonpayable",
      "type": "fallback"
    },
    {
      "inputs": [
        {
          "internalType": "address",
          "name": "target",
          "type": "address"
        },
        {
          "internalType": "bytes",
          "name": "callData",
          "type": "bytes"
        }
      ],
      "name": "exec",
      "outputs": [],
      "stateMutability": "nonpayable",
      "type": "function"
    },
    {
      "inputs": [],
      "name": "hub",
      "outputs": [
        {
          "internalType": "contract IRelayHub",
          "name": "",
          "type": "address"
        }
      ],
      "stateMutability": "view",
      "type": "function"
    },
    {
      "inputs": [
        {
          "internalType": "uint256",
          "name": "maxAcceptanceBudget",
          "type": "uint256"
        },
        {
          "components": [
            {
              "components": [
                {
                  "internalType": "address",
                  "name": "from",
                  "type": "address"
                },
                {
                  "internalType": "address",
                  "name": "to",
                  "type": "address"
                },
                {
                  "internalType": "uint256",
                  "name": "value",
                  "type": "uint256"
                },
                {
                  "internalType": "uint256",
                  "name": "gas",
                  "type": "uint256"
                },
                {
                  "internalType": "uint256",
                  "name": "nonce",
                  "type": "uint256"
                },
                {
                  "internalType": "bytes",
                  "name": "data",
                  "type": "bytes"
                },
                {
                  "internalType": "uint256",
                  "name": "validUntil",
                  "type": "uint256"
                }
              ],
              "internalType": "struct IForwarder.ForwardRequest",
              "name": "request",
              "type": "tuple"
            },
            {
              "components": [
                {
                  "internalType": "uint256",
                  "name": "maxFeePerGas",
                  "type": "uint256"
                },
                {
                  "internalType": "uint256",
                  "name": "maxPriorityFeePerGas",
                  "type": "uint256"
                },
                {
                  "internalType": "uint256",
                  "name": "pctRelayFee",
                  "type": "uint256"
                },
                {
                  "internalType": "uint256",
                  "name": "baseRelayFee",
                  "type": "uint256"
                },
                {
                  "internalType": "uint256",
                  "name": "transactionCalldataGasUsed",
                  "type": "uint256"
                },
                {
                  "internalType": "address",
                  "name": "relayWorker",
                  "type": "address"
                },
                {
                  "internalType": "address",
                  "name": "paymaster",
                  "type": "address"
                },
                {
                  "internalType": "address",
                  "name": "forwarder",
                  "type": "address"
                },
                {
                  "internalType": "bytes",
                  "name": "paymasterData",
                  "type": "bytes"
                },
                {
                  "internalType": "uint256",
                  "name": "clientId",
                  "type": "uint256"
                }
              ],
              "internalType": "struct GsnTypes.RelayData",
              "name": "relayData",
              "type": "tuple"
            }
          ],
          "internalType": "struct GsnTypes.RelayRequest",
          "name": "relayRequest",
          "type": "tuple"
        },
        {
          "internalType": "bytes",
          "name": "signature",
          "type": "bytes"
        },
        {
          "internalType": "bytes",
          "name": "approvalData",
          "type": "bytes"
        }
      ],
      "name": "relayCall",
      "outputs": [
        {
          "internalType": "bool",
          "name": "paymasterAccepted",
          "type": "bool"
        },
        {
          "internalType": "bytes",
          "name": "returnValue",
          "type": "bytes"
        }
      ],
      "stateMutability": "nonpayable",
      "type": "function"
    },
    {
      "inputs": [
        {
          "internalType": "contract IRelayHub",
          "name": "_hub",
          "type": "address"
        }
      ],
      "name": "setRelayHub",
      "outputs": [],
      "stateMutability": "nonpayable",
      "type": "function"
    }
  ],
  "transactionHash": "0x9a8991670a954b1f5e98d780553a7ce0ab912e8e596b1dc773dd3e3a5dfb036d",
  "args": [
    "0xA920cF363cDF18FBf9edD1eAEe89e601476357eE"
  ],
  "numDeployments": 2,
  "solcInputHash": "ad4381fa1d3f9a61a55ec15510c12837",
  "bytecode": "0x608060405234801561001057600080fd5b50604051610a41380380610a4183398101604081905261002f91610050565b600080546001600160a01b0319166001600160a01b03831617905550610080565b60006020828403121561006257600080fd5b81516001600160a01b038116811461007957600080fd5b9392505050565b6109b28061008f6000396000f3fe608060405234801561001057600080fd5b506004361061004c5760003560e01c8063365a86fc1461007e5780637bb05264146100ae578063be6002c2146100e0578063d17da3e8146100f3575b600080546001600160a01b0316903690803760008036600080855af13d6000803e808015610079573d6000f35b3d6000fd5b600054610091906001600160a01b031681565b6040516001600160a01b0390911681526020015b60405180910390f35b6100de6100bc366004610485565b600080546001600160a01b0319166001600160a01b0392909216919091179055565b005b6100de6100ee36600461037d565b610114565b6101066101013660046104a9565b6101a9565b6040516100a5929190610699565b600080846001600160a01b0316848460405161013192919061065d565b6000604051808303816000865af19150503d806000811461016e576040519150601f19603f3d011682016040523d82523d6000602084013e610173565b606091505b509150915060008051602061095d8339815191528260008360405161019a9392919061066d565b60405180910390a15050505050565b60008054604051631a2fb47d60e31b81526060916001600160a01b03169063d17da3e8906101e5908b908b908b908b908b908b906004016106bc565b600060405180830381600087803b1580156101ff57600080fd5b505af192505050801561023457506040513d6000823e601f3d908101601f1916820160405261023191908101906103d2565b60015b6102e95761024061089e565b806308c379a0141561029557506102556108ba565b806102605750610297565b60008051602061095d833981519152600080836040516102829392919061066d565b60405180910390a1600092509050610319565b505b3d8080156102c1576040519150601f19603f3d011682016040523d82523d6000602084013e6102c6565b606091505b5060008051602061095d833981519152600080836040516102829392919061066d565b60008051602061095d8339815191526001838360405161030b9392919061066d565b60405180910390a190925090505b965096945050505050565b803561032f81610944565b919050565b60008083601f84011261034657600080fd5b50813567ffffffffffffffff81111561035e57600080fd5b60208301915083602082850101111561037657600080fd5b9250929050565b60008060006040848603121561039257600080fd5b833561039d81610944565b9250602084013567ffffffffffffffff8111156103b957600080fd5b6103c586828701610334565b9497909650939450505050565b600080604083850312156103e557600080fd5b825180151581146103f557600080fd5b602084015190925067ffffffffffffffff8082111561041357600080fd5b818501915085601f83011261042757600080fd5b81518181111561043957610439610888565b6040519150610452601f8201601f19166020018361085b565b80825286602082850101111561046757600080fd5b61047881602084016020860161082b565b5080925050509250929050565b60006020828403121561049757600080fd5b81356104a281610944565b9392505050565b600080600080600080608087890312156104c257600080fd5b86359550602087013567ffffffffffffffff808211156104e157600080fd5b908801906040828b0312156104f557600080fd5b9095506040880135908082111561050b57600080fd5b6105178a838b01610334565b9096509450606089013591508082111561053057600080fd5b5061053d89828a01610334565b979a9699509497509295939492505050565b81835281816020850137506000828201602090810191909152601f909101601f19169091010190565b6000815180845261059081602086016020860161082b565b601f01601f19169290920160200192915050565b600061014082358452602083013560208501526040830135604085015260608301356060850152608083013560808501526105e160a08401610324565b6001600160a01b031660a08501526105fb60c08401610324565b6001600160a01b031660c085015261061560e08401610324565b6001600160a01b031660e0850152610100610632848201856107c5565b8383880152610644848801828461054f565b6101209687013597909601969096525092949350505050565b8183823760009101908152919050565b831515815282151560208201526060604082015260006106906060830184610578565b95945050505050565b82151581526040602082015260006106b46040830184610578565b949350505050565b868152608060208201526000863560de198836030181126106dc57600080fd5b60406080840152870180356106f081610944565b6001600160a01b0390811660c085015260208201359061070f82610944565b1660e084015260408101356101008401526060810135610120840152608081013561014084015261074360a08201826107c5565b60e061016086015261075a6101a08601828461054f565b91505060c082013561018085015261077560208a018a61080b565b848203607f190160a0860152915061078d81836105a4565b91505082810360408401526107a381878961054f565b905082810360608401526107b881858761054f565b9998505050505050505050565b6000808335601e198436030181126107dc57600080fd5b830160208101925035905067ffffffffffffffff8111156107fc57600080fd5b80360383131561037657600080fd5b6000823561013e1983360301811261082257600080fd5b90910192915050565b60005b8381101561084657818101518382015260200161082e565b83811115610855576000848401525b50505050565b601f8201601f1916810167ffffffffffffffff8111828210171561088157610881610888565b6040525050565b634e487b7160e01b600052604160045260246000fd5b600060033d11156108b75760046000803e5060005160e01c5b90565b600060443d10156108c85790565b6040516003193d81016004833e81513d67ffffffffffffffff81602484011181841117156108f857505050505090565b82850191508151818111156109105750505050505090565b843d870101602082850101111561092a5750505050505090565b6109396020828601018761085b565b509095945050505050565b6001600160a01b038116811461095957600080fd5b5056fe1869f9c0fd47ee5bd5e76dfffedb3e8452078e7c6f4c4d011f74d79014fbe2d2a2646970667358221220ab0f45b4565012012b5239c083f2361333da29fd824a6fb89440bf958e41b2c964736f6c63430008070033",
  "devdoc": {
    "kind": "dev",
    "methods": {},
    "version": 1
  },
  "userdoc": {
    "kind": "user",
    "methods": {},
    "notice": "As there is no way to run Arbitrum chain locally, tests currently need to run on simple hardhat node. If some behavior is needed from ArbSys, it has to be stubbed here.",
    "version": 1
  },
  "storageLayout": {
    "storage": [
      {
        "astId": 5666,
        "contract": "contracts-link/test/TestExec.sol:TestExec",
        "label": "hub",
        "offset": 0,
        "slot": "0",
        "type": "t_contract(IRelayHub)5333"
      }
    ],
    "types": {
      "t_contract(IRelayHub)5333": {
        "encoding": "inplace",
        "label": "contract IRelayHub",
        "numberOfBytes": "20"
      }
    }
  }
}