{
  "address": "0x694beb62BCF180F841a021e08FC8B016e66a6d17",
  "abi": [
    {
      "anonymous": false,
      "inputs": [
        {
          "indexed": true,
          "internalType": "address",
          "name": "previousOwner",
          "type": "address"
        },
        {
          "indexed": true,
          "internalType": "address",
          "name": "newOwner",
          "type": "address"
        }
      ],
      "name": "OwnershipTransferred",
      "type": "event"
    },
    {
      "anonymous": false,
      "inputs": [
        {
          "indexed": true,
          "internalType": "bytes32",
          "name": "id",
          "type": "bytes32"
        },
        {
          "indexed": false,
          "internalType": "bytes32",
          "name": "version",
          "type": "bytes32"
        },
        {
          "indexed": false,
          "internalType": "string",
          "name": "value",
          "type": "string"
        },
        {
          "indexed": false,
          "internalType": "uint256",
          "name": "time",
          "type": "uint256"
        }
      ],
      "name": "VersionAdded",
      "type": "event"
    },
    {
      "anonymous": false,
      "inputs": [
        {
          "indexed": true,
          "internalType": "bytes32",
          "name": "id",
          "type": "bytes32"
        },
        {
          "indexed": false,
          "internalType": "bytes32",
          "name": "version",
          "type": "bytes32"
        },
        {
          "indexed": false,
          "internalType": "string",
          "name": "reason",
          "type": "string"
        }
      ],
      "name": "VersionCanceled",
      "type": "event"
    },
    {
      "inputs": [
        {
          "internalType": "bytes32",
          "name": "id",
          "type": "bytes32"
        },
        {
          "internalType": "bytes32",
          "name": "version",
          "type": "bytes32"
        },
        {
          "internalType": "string",
          "name": "value",
          "type": "string"
        }
      ],
      "name": "addVersion",
      "outputs": [],
      "stateMutability": "nonpayable",
      "type": "function"
    },
    {
      "inputs": [
        {
          "internalType": "bytes32",
          "name": "id",
          "type": "bytes32"
        },
        {
          "internalType": "bytes32",
          "name": "version",
          "type": "bytes32"
        },
        {
          "internalType": "string",
          "name": "reason",
          "type": "string"
        }
      ],
      "name": "cancelVersion",
      "outputs": [],
      "stateMutability": "nonpayable",
      "type": "function"
    },
    {
      "inputs": [],
      "name": "owner",
      "outputs": [
        {
          "internalType": "address",
          "name": "",
          "type": "address"
        }
      ],
      "stateMutability": "view",
      "type": "function"
    },
    {
      "inputs": [],
      "name": "renounceOwnership",
      "outputs": [],
      "stateMutability": "nonpayable",
      "type": "function"
    },
    {
      "inputs": [
        {
          "internalType": "address",
          "name": "newOwner",
          "type": "address"
        }
      ],
      "name": "transferOwnership",
      "outputs": [],
      "stateMutability": "nonpayable",
      "type": "function"
    }
  ],
  "transactionHash": "0x51309fa1a42713e1e2c7665af3687126405b9a49363ace453bf2222b1113ae5e",
  "args": [],
  "solcInputHash": "82b5270a3508b1f236ef759e7a80de08",
  "bytecode": "0x608060405234801561001057600080fd5b5061001a3361001f565b61006f565b600080546001600160a01b038381166001600160a01b0319831681178455604051919092169283917f8be0079c531659141344cd1fd0a4f28419497f9722a3daafe3b4186f6b6457e09190a35050565b6104bf8061007e6000396000f3fe608060405234801561001057600080fd5b50600436106100575760003560e01c8063089eae7e1461005c578063219ae67214610071578063715018a6146100845780638da5cb5b1461008c578063f2fde38b146100ab575b600080fd5b61006f61006a36600461035d565b6100be565b005b61006f61007f36600461035d565b6101ae565b61006f61020c565b600054604080516001600160a01b039092168252519081900360200190f35b61006f6100b936600461032d565b610242565b6000546001600160a01b031633146100f15760405162461bcd60e51b81526004016100e890610454565b60405180910390fd5b8361012b5760405162461bcd60e51b815260206004820152600a6024820152691b5a5cdcda5b99c81a5960b21b60448201526064016100e8565b8261016a5760405162461bcd60e51b815260206004820152600f60248201526e36b4b9b9b4b733903b32b939b4b7b760891b60448201526064016100e8565b837f56950023a84954108e1797b4f116b9339e395c7dfe94f9dd60b64806de93d3f8848484426040516101a09493929190610429565b60405180910390a250505050565b6000546001600160a01b031633146101d85760405162461bcd60e51b81526004016100e890610454565b837f488c2df78ad692792ecea5763ee0cb43065ea3110cf94e887b6f870129b70b508484846040516101a093929190610406565b6000546001600160a01b031633146102365760405162461bcd60e51b81526004016100e890610454565b61024060006102dd565b565b6000546001600160a01b0316331461026c5760405162461bcd60e51b81526004016100e890610454565b6001600160a01b0381166102d15760405162461bcd60e51b815260206004820152602660248201527f4f776e61626c653a206e6577206f776e657220697320746865207a65726f206160448201526564647265737360d01b60648201526084016100e8565b6102da816102dd565b50565b600080546001600160a01b038381166001600160a01b0319831681178455604051919092169283917f8be0079c531659141344cd1fd0a4f28419497f9722a3daafe3b4186f6b6457e09190a35050565b60006020828403121561033f57600080fd5b81356001600160a01b038116811461035657600080fd5b9392505050565b6000806000806060858703121561037357600080fd5b8435935060208501359250604085013567ffffffffffffffff8082111561039957600080fd5b818701915087601f8301126103ad57600080fd5b8135818111156103bc57600080fd5b8860208285010111156103ce57600080fd5b95989497505060200194505050565b81835281816020850137506000828201602090810191909152601f909101601f19169091010190565b8381526040602082015260006104206040830184866103dd565b95945050505050565b8481526060602082015260006104436060830185876103dd565b905082604083015295945050505050565b6020808252818101527f4f776e61626c653a2063616c6c6572206973206e6f7420746865206f776e657260408201526060019056fea26469706673582212202abe6921f07382d97cca37b71b7cbb2dca40e2ff795f761d76a27397d0cb9d8364736f6c63430008070033",
  "devdoc": {
    "kind": "dev",
    "methods": {
      "addVersion(bytes32,bytes32,string)": {
        "params": {
          "id": "the object-id to add a version (32-byte string)",
          "value": "value to attach to this version",
          "version": "the new version to add (32-byte string)"
        }
      },
      "owner()": {
        "details": "Returns the address of the current owner."
      },
      "renounceOwnership()": {
        "details": "Leaves the contract without owner. It will not be possible to call `onlyOwner` functions anymore. Can only be called by the current owner. NOTE: Renouncing ownership will leave the contract without an owner, thereby removing any functionality that is only available to the owner."
      },
      "transferOwnership(address)": {
        "details": "Transfers ownership of the contract to a new account (`newOwner`). Can only be called by the current owner."
      }
    },
    "version": 1
  },
  "userdoc": {
    "kind": "user",
    "methods": {
      "addVersion(bytes32,bytes32,string)": {
        "notice": "add a version"
      },
      "cancelVersion(bytes32,bytes32,string)": {
        "notice": "cancel a version."
      }
    },
    "version": 1
  },
  "storageLayout": {
    "storage": [
      {
        "astId": 7,
        "contract": "contracts-link/utils/VersionRegistry.sol:VersionRegistry",
        "label": "_owner",
        "offset": 0,
        "slot": "0",
        "type": "t_address"
      }
    ],
    "types": {
      "t_address": {
        "encoding": "inplace",
        "label": "address",
        "numberOfBytes": "20"
      }
    }
  }
}